{"contracts/KaskadeRouterV1.sol":{"KaskadeRouterV1":{"abi":[{"inputs":[{"internalType":"address","name":"_syncSwapContract","type":"address"}],"stateMutability":"nonpayable","type":"constructor"},{"anonymous":false,"inputs":[],"name":"Disabled","type":"event"},{"anonymous":false,"inputs":[{"indexed":true,"internalType":"address","name":"previousOwner","type":"address"},{"indexed":true,"internalType":"address","name":"newOwner","type":"address"}],"name":"OwnershipTransferred","type":"event"},{"anonymous":false,"inputs":[{"indexed":true,"internalType":"address","name":"user","type":"address"},{"indexed":false,"internalType":"uint256","name":"amountOut","type":"uint256"},{"indexed":false,"internalType":"uint256","name":"timestamp","type":"uint256"}],"name":"SwapSuccessful","type":"event"},{"inputs":[],"name":"destroy","outputs":[],"stateMutability":"nonpayable","type":"function"},{"inputs":[],"name":"disable","outputs":[],"stateMutability":"nonpayable","type":"function"},{"inputs":[],"name":"isDisabled","outputs":[{"internalType":"bool","name":"","type":"bool"}],"stateMutability":"view","type":"function"},{"inputs":[],"name":"owner","outputs":[{"internalType":"address","name":"","type":"address"}],"stateMutability":"view","type":"function"},{"inputs":[{"internalType":"address","name":"token","type":"address"},{"internalType":"address","name":"to","type":"address"},{"internalType":"uint256","name":"amount","type":"uint256"}],"name":"rescueERC20","outputs":[],"stateMutability":"nonpayable","type":"function"},{"inputs":[{"internalType":"address payable","name":"to","type":"address"},{"internalType":"uint256","name":"amount","type":"uint256"}],"name":"rescueETH","outputs":[],"stateMutability":"nonpayable","type":"function"},{"inputs":[{"components":[{"internalType":"address","name":"tokenIn","type":"address"},{"internalType":"uint256","name":"amountIn","type":"uint256"},{"components":[{"internalType":"address","name":"pool","type":"address"},{"internalType":"bytes","name":"data","type":"bytes"},{"internalType":"bool","name":"useVault","type":"bool"},{"internalType":"address","name":"callback","type":"address"},{"internalType":"bytes","name":"callbackData","type":"bytes"}],"internalType":"struct KaskadeRouterV1.SwapStep[]","name":"steps","type":"tuple[]"}],"internalType":"struct KaskadeRouterV1.SwapPath[]","name":"paths","type":"tuple[]"},{"internalType":"uint256","name":"amountOutMin","type":"uint256"},{"internalType":"uint256","name":"deadline","type":"uint256"}],"name":"swapSyncSwap","outputs":[{"components":[{"internalType":"address","name":"token","type":"address"},{"internalType":"uint256","name":"amount","type":"uint256"}],"internalType":"struct KaskadeRouterV1.TokenAmount","name":"amountOut","type":"tuple"}],"stateMutability":"payable","type":"function"},{"inputs":[],"name":"syncSwapContract","outputs":[{"internalType":"address","name":"","type":"address"}],"stateMutability":"view","type":"function"},{"inputs":[{"internalType":"address","name":"newOwner","type":"address"}],"name":"transferOwnership","outputs":[],"stateMutability":"nonpayable","type":"function"},{"stateMutability":"payable","type":"receive"}],"evm":{"bytecode":{"linkReferences":{},"object":"608060405234801561001057600080fd5b5060405161108b38038061108b83398101604081905261002f916100ad565b6100383361005d565b600180546001600160a01b0319166001600160a01b03929092169190911790556100dd565b600080546001600160a01b038381166001600160a01b0319831681178455604051919092169283917f8be0079c531659141344cd1fd0a4f28419497f9722a3daafe3b4186f6b6457e09190a35050565b6000602082840312156100bf57600080fd5b81516001600160a01b03811681146100d657600080fd5b9392505050565b610f9f806100ec6000396000f3fe60806040526004361061008a5760003560e01c80636c57f5a9116100595780636c57f5a91461014157806383197ef01461016b5780638da5cb5b14610180578063b2118a8d1461019e578063f2fde38b146101be57600080fd5b8063099a04e5146100965780631088a10e146100b8578063274c6d9d146100f45780632f2770db1461012c57600080fd5b3661009157005b600080fd5b3480156100a257600080fd5b506100b66100b13660046108d3565b6101de565b005b6100cb6100c6366004610a44565b6101ff565b6040805182516001600160a01b0316815260209283015192810192909252015b60405180910390f35b34801561010057600080fd5b50600154610114906001600160a01b031681565b6040516001600160a01b0390911681526020016100eb565b34801561013857600080fd5b506100b6610404565b34801561014d57600080fd5b50600054600160a01b900460ff1660405190151581526020016100eb565b34801561017757600080fd5b506100b6610448565b34801561018c57600080fd5b506000546001600160a01b0316610114565b3480156101aa57600080fd5b506100b66101b9366004610ce2565b61045e565b3480156101ca57600080fd5b506100b66101d9366004610d23565b6105a1565b6101e661061a565b806000036101f15750475b6101fb8282610685565b5050565b604080518082019091526000808252602082015281804211156102535760405162461bcd60e51b8152602060048201526007602482015266115e1c1a5c995960ca1b60448201526064015b60405180910390fd5b600054600160a01b900460ff16156102a45760405162461bcd60e51b815260206004820152601460248201527310dbdb9d1c9858dd081a5cc8191a5cd8589b195960621b604482015260640161024a565b60015460405160009182916001600160a01b03909116906102cd90899089908990602401610d97565b60408051601f198184030181529181526020820180516001600160e01b0316636713b41160e11b179052516103029190610ebf565b600060405180830381855af49150503d806000811461033d576040519150601f19603f3d011682016040523d82523d6000602084013e610342565b606091505b5091509150816103945760405162461bcd60e51b815260206004820152601b60248201527f44656c656761746563616c6c20746f2073776170206661696c65640000000000604482015260640161024a565b808060200190518101906103a89190610edb565b9350336001600160a01b03167fd0dcb5d6ccbc65558941eda1d0add99921923cc1868a41bbf8d224258a21396d8560200151426040516103f2929190918252602082015260400190565b60405180910390a25050509392505050565b61040c61061a565b6000805460ff60a01b1916600160a01b1781556040517f75884cdadc4a89e8b545db800057f06ec7f5338a08183c7ba515f2bfdd9fe1e19190a1565b61045061061a565b6000546001600160a01b0316ff5b61046661061a565b6001600160a01b038216158015906104905750826001600160a01b0316826001600160a01b031614155b6104c95760405162461bcd60e51b815260206004820152600a602482015269496e76616c696420746f60b01b604482015260640161024a565b6040516370a0823160e01b81523060048201526000906001600160a01b038516906370a0823190602401602060405180830381865afa158015610510573d6000803e3d6000fd5b505050506040513d601f19601f820116820180604052508101906105349190610f33565b90508160000361054e57610549848483610753565b61059b565b808211156105905760405162461bcd60e51b815260206004820152600f60248201526e457863656564732062616c616e636560881b604482015260640161024a565b61059b848484610753565b50505050565b6105a961061a565b6001600160a01b03811661060e5760405162461bcd60e51b815260206004820152602660248201527f4f776e61626c653a206e6577206f776e657220697320746865207a65726f206160448201526564647265737360d01b606482015260840161024a565b6106178161086e565b50565b3361062d6000546001600160a01b031690565b6001600160a01b0316146106835760405162461bcd60e51b815260206004820181905260248201527f4f776e61626c653a2063616c6c6572206973206e6f7420746865206f776e6572604482015260640161024a565b565b604080516000808252602082019092526001600160a01b0384169083906040516106af9190610ebf565b60006040518083038185875af1925050503d80600081146106ec576040519150601f19603f3d011682016040523d82523d6000602084013e6106f1565b606091505b505090508061074e5760405162461bcd60e51b815260206004820152602360248201527f5472616e7366657248656c7065723a204554485f5452414e534645525f46414960448201526213115160ea1b606482015260840161024a565b505050565b604080516001600160a01b038481166024830152604480830185905283518084039091018152606490920183526020820180516001600160e01b031663a9059cbb60e01b17905291516000928392908716916107af9190610ebf565b6000604051808303816000865af19150503d80600081146107ec576040519150601f19603f3d011682016040523d82523d6000602084013e6107f1565b606091505b509150915081801561081b57508051158061081b57508080602001905181019061081b9190610f4c565b6108675760405162461bcd60e51b815260206004820152601f60248201527f5472616e7366657248656c7065723a205452414e534645525f4641494c454400604482015260640161024a565b5050505050565b600080546001600160a01b038381166001600160a01b0319831681178455604051919092169283917f8be0079c531659141344cd1fd0a4f28419497f9722a3daafe3b4186f6b6457e09190a35050565b6001600160a01b038116811461061757600080fd5b600080604083850312156108e657600080fd5b82356108f1816108be565b946020939093013593505050565b634e487b7160e01b600052604160045260246000fd5b6040516060810167ffffffffffffffff81118282101715610938576109386108ff565b60405290565b60405160a0810167ffffffffffffffff81118282101715610938576109386108ff565b604051601f8201601f1916810167ffffffffffffffff8111828210171561098a5761098a6108ff565b604052919050565b600067ffffffffffffffff8211156109ac576109ac6108ff565b5060051b60200190565b80356109c1816108be565b919050565b600082601f8301126109d757600080fd5b813567ffffffffffffffff8111156109f1576109f16108ff565b610a04601f8201601f1916602001610961565b818152846020838601011115610a1957600080fd5b816020850160208301376000918101602001919091529392505050565b801515811461061757600080fd5b600080600060608486031215610a5957600080fd5b67ffffffffffffffff84351115610a6f57600080fd5b84601f853586010112610a8157600080fd5b610a96610a918535860135610992565b610961565b8435850180358083526020808401939260059290921b90910101871015610abc57600080fd5b602086358701015b86358701803560051b01602001811015610ccb5767ffffffffffffffff81351115610aee57600080fd5b6060873588018235018903601f19011215610b0857600080fd5b610b10610915565b610b23602083358a358b010101356108be565b87358801823501602081810135835260408201359083015267ffffffffffffffff6060909101351115610b5557600080fd5b87358801823501606081013501603f81018a13610b7157600080fd5b610b81610a916020830135610992565b602082810135808352908201919060051b83016040018c1015610ba357600080fd5b604083015b6040602085013560051b850101811015610cb55767ffffffffffffffff81351115610bd257600080fd5b60a0813585018e03603f19011215610be957600080fd5b610bf161093e565b610c0160408335870101356108be565b813585016040810135825267ffffffffffffffff6060909101351115610c2657600080fd5b610c3c8e833587016060810135016040016109c6565b6020820152610c516080833587010135610a36565b8135850160808101356040830152610c6b9060a0016109b6565b606082015267ffffffffffffffff60c08335870101351115610c8c57600080fd5b610ca28e8335870160c0810135016040016109c6565b6080820152835260209283019201610ba8565b5060408401525050835260209283019201610ac4565b509660208601359650604090950135949350505050565b600080600060608486031215610cf757600080fd5b8335610d02816108be565b92506020840135610d12816108be565b929592945050506040919091013590565b600060208284031215610d3557600080fd5b8135610d40816108be565b9392505050565b60005b83811015610d62578181015183820152602001610d4a565b50506000910152565b60008151808452610d83816020860160208601610d47565b601f01601f19169290920160200192915050565b6000606082016060835280865180835260808501915060808160051b8601019250602080890160005b83811015610ea657607f1988870381018652825180516001600160a01b03908116895285820151868a01526040918201516060928a018390528051928a018390528601916080600582901b8b0181019291908b019060005b81811015610e8d57868d860301835285518481511686528a81015160a08c880152610e4660a0880182610d6b565b9050604082015115156040880152856060830151166060880152608082015191508681036080880152610e798183610d6b565b978c01979650505091890191600101610e18565b50929a5050509685019650505090820190600101610dc0565b5050850196909652506040909201929092529392505050565b60008251610ed1818460208701610d47565b9190910192915050565b600060408284031215610eed57600080fd5b6040516040810181811067ffffffffffffffff82111715610f1057610f106108ff565b6040528251610f1e816108be565b81526020928301519281019290925250919050565b600060208284031215610f4557600080fd5b5051919050565b600060208284031215610f5e57600080fd5b8151610d4081610a3656fea2646970667358221220b733758b33fdb799dc9b8fdb751135b0a91fdaf6e2c994c0df669c896fd5426864736f6c63430008180033","opcodes":"PUSH1 0x80 PUSH1 0x40 MSTORE CALLVALUE DUP1 ISZERO PUSH2 0x10 JUMPI PUSH1 0x0 DUP1 REVERT JUMPDEST POP PUSH1 0x40 MLOAD PUSH2 0x108B CODESIZE SUB DUP1 PUSH2 0x108B DUP4 CODECOPY DUP2 ADD PUSH1 0x40 DUP2 SWAP1 MSTORE PUSH2 0x2F SWAP2 PUSH2 0xAD JUMP JUMPDEST PUSH2 0x38 CALLER PUSH2 0x5D JUMP JUMPDEST PUSH1 0x1 DUP1 SLOAD PUSH1 0x1 PUSH1 0x1 PUSH1 0xA0 SHL SUB NOT AND PUSH1 0x1 PUSH1 0x1 PUSH1 0xA0 SHL SUB SWAP3 SWAP1 SWAP3 AND SWAP2 SWAP1 SWAP2 OR SWAP1 SSTORE PUSH2 0xDD JUMP JUMPDEST PUSH1 0x0 DUP1 SLOAD PUSH1 0x1 PUSH1 0x1 PUSH1 0xA0 SHL SUB DUP4 DUP2 AND PUSH1 0x1 PUSH1 0x1 PUSH1 0xA0 SHL SUB NOT DUP4 AND DUP2 OR DUP5 SSTORE PUSH1 0x40 MLOAD SWAP2 SWAP1 SWAP3 AND SWAP3 DUP4 SWAP2 PUSH32 0x8BE0079C531659141344CD1FD0A4F28419497F9722A3DAAFE3B4186F6B6457E0 SWAP2 SWAP1 LOG3 POP POP JUMP JUMPDEST PUSH1 0x0 PUSH1 0x20 DUP3 DUP5 SUB SLT ISZERO PUSH2 0xBF JUMPI PUSH1 0x0 DUP1 REVERT JUMPDEST DUP2 MLOAD PUSH1 0x1 PUSH1 0x1 PUSH1 0xA0 SHL SUB DUP2 AND DUP2 EQ PUSH2 0xD6 JUMPI PUSH1 0x0 DUP1 REVERT JUMPDEST SWAP4 SWAP3 POP POP POP JUMP JUMPDEST PUSH2 0xF9F DUP1 PUSH2 0xEC PUSH1 0x0 CODECOPY PUSH1 0x0 RETURN INVALID PUSH1 0x80 PUSH1 0x40 MSTORE PUSH1 0x4 CALLDATASIZE LT PUSH2 0x8A JUMPI PUSH1 0x0 CALLDATALOAD PUSH1 0xE0 SHR DUP1 PUSH4 0x6C57F5A9 GT PUSH2 0x59 JUMPI DUP1 PUSH4 0x6C57F5A9 EQ PUSH2 0x141 JUMPI DUP1 PUSH4 0x83197EF0 EQ PUSH2 0x16B JUMPI DUP1 PUSH4 0x8DA5CB5B EQ PUSH2 0x180 JUMPI DUP1 PUSH4 0xB2118A8D EQ PUSH2 0x19E JUMPI DUP1 PUSH4 0xF2FDE38B EQ PUSH2 0x1BE JUMPI PUSH1 0x0 DUP1 REVERT JUMPDEST DUP1 PUSH4 0x99A04E5 EQ PUSH2 0x96 JUMPI DUP1 PUSH4 0x1088A10E EQ PUSH2 0xB8 JUMPI DUP1 PUSH4 0x274C6D9D EQ PUSH2 0xF4 JUMPI DUP1 PUSH4 0x2F2770DB EQ PUSH2 0x12C JUMPI PUSH1 0x0 DUP1 REVERT JUMPDEST CALLDATASIZE PUSH2 0x91 JUMPI STOP JUMPDEST PUSH1 0x0 DUP1 REVERT JUMPDEST CALLVALUE DUP1 ISZERO PUSH2 0xA2 JUMPI PUSH1 0x0 DUP1 REVERT JUMPDEST POP PUSH2 0xB6 PUSH2 0xB1 CALLDATASIZE PUSH1 0x4 PUSH2 0x8D3 JUMP JUMPDEST PUSH2 0x1DE JUMP JUMPDEST STOP JUMPDEST PUSH2 0xCB PUSH2 0xC6 CALLDATASIZE PUSH1 0x4 PUSH2 0xA44 JUMP JUMPDEST PUSH2 0x1FF JUMP JUMPDEST PUSH1 0x40 DUP1 MLOAD DUP3 MLOAD PUSH1 0x1 PUSH1 0x1 PUSH1 0xA0 SHL SUB AND DUP2 MSTORE PUSH1 0x20 SWAP3 DUP4 ADD MLOAD SWAP3 DUP2 ADD SWAP3 SWAP1 SWAP3 MSTORE ADD JUMPDEST PUSH1 0x40 MLOAD DUP1 SWAP2 SUB SWAP1 RETURN JUMPDEST CALLVALUE DUP1 ISZERO PUSH2 0x100 JUMPI PUSH1 0x0 DUP1 REVERT JUMPDEST POP PUSH1 0x1 SLOAD PUSH2 0x114 SWAP1 PUSH1 0x1 PUSH1 0x1 PUSH1 0xA0 SHL SUB AND DUP2 JUMP JUMPDEST PUSH1 0x40 MLOAD PUSH1 0x1 PUSH1 0x1 PUSH1 0xA0 SHL SUB SWAP1 SWAP2 AND DUP2 MSTORE PUSH1 0x20 ADD PUSH2 0xEB JUMP JUMPDEST CALLVALUE DUP1 ISZERO PUSH2 0x138 JUMPI PUSH1 0x0 DUP1 REVERT JUMPDEST POP PUSH2 0xB6 PUSH2 0x404 JUMP JUMPDEST CALLVALUE DUP1 ISZERO PUSH2 0x14D JUMPI PUSH1 0x0 DUP1 REVERT JUMPDEST POP PUSH1 0x0 SLOAD PUSH1 0x1 PUSH1 0xA0 SHL SWAP1 DIV PUSH1 0xFF AND PUSH1 0x40 MLOAD SWAP1 ISZERO ISZERO DUP2 MSTORE PUSH1 0x20 ADD PUSH2 0xEB JUMP JUMPDEST CALLVALUE DUP1 ISZERO PUSH2 0x177 JUMPI PUSH1 0x0 DUP1 REVERT JUMPDEST POP PUSH2 0xB6 PUSH2 0x448 JUMP JUMPDEST CALLVALUE DUP1 ISZERO PUSH2 0x18C JUMPI PUSH1 0x0 DUP1 REVERT JUMPDEST POP PUSH1 0x0 SLOAD PUSH1 0x1 PUSH1 0x1 PUSH1 0xA0 SHL SUB AND PUSH2 0x114 JUMP JUMPDEST CALLVALUE DUP1 ISZERO PUSH2 0x1AA JUMPI PUSH1 0x0 DUP1 REVERT JUMPDEST POP PUSH2 0xB6 PUSH2 0x1B9 CALLDATASIZE PUSH1 0x4 PUSH2 0xCE2 JUMP JUMPDEST PUSH2 0x45E JUMP JUMPDEST CALLVALUE DUP1 ISZERO PUSH2 0x1CA JUMPI PUSH1 0x0 DUP1 REVERT JUMPDEST POP PUSH2 0xB6 PUSH2 0x1D9 CALLDATASIZE PUSH1 0x4 PUSH2 0xD23 JUMP JUMPDEST PUSH2 0x5A1 JUMP JUMPDEST PUSH2 0x1E6 PUSH2 0x61A JUMP JUMPDEST DUP1 PUSH1 0x0 SUB PUSH2 0x1F1 JUMPI POP SELFBALANCE JUMPDEST PUSH2 0x1FB DUP3 DUP3 PUSH2 0x685 JUMP JUMPDEST POP POP JUMP JUMPDEST PUSH1 0x40 DUP1 MLOAD DUP1 DUP3 ADD SWAP1 SWAP2 MSTORE PUSH1 0x0 DUP1 DUP3 MSTORE PUSH1 0x20 DUP3 ADD MSTORE DUP2 DUP1 TIMESTAMP GT ISZERO PUSH2 0x253 JUMPI PUSH1 0x40 MLOAD PUSH3 0x461BCD PUSH1 0xE5 SHL DUP2 MSTORE PUSH1 0x20 PUSH1 0x4 DUP3 ADD MSTORE PUSH1 0x7 PUSH1 0x24 DUP3 ADD MSTORE PUSH7 0x115E1C1A5C9959 PUSH1 0xCA SHL PUSH1 0x44 DUP3 ADD MSTORE PUSH1 0x64 ADD JUMPDEST PUSH1 0x40 MLOAD DUP1 SWAP2 SUB SWAP1 REVERT JUMPDEST PUSH1 0x0 SLOAD PUSH1 0x1 PUSH1 0xA0 SHL SWAP1 DIV PUSH1 0xFF AND ISZERO PUSH2 0x2A4 JUMPI PUSH1 0x40 MLOAD PUSH3 0x461BCD PUSH1 0xE5 SHL DUP2 MSTORE PUSH1 0x20 PUSH1 0x4 DUP3 ADD MSTORE PUSH1 0x14 PUSH1 0x24 DUP3 ADD MSTORE PUSH20 0x10DBDB9D1C9858DD081A5CC8191A5CD8589B1959 PUSH1 0x62 SHL PUSH1 0x44 DUP3 ADD MSTORE PUSH1 0x64 ADD PUSH2 0x24A JUMP JUMPDEST PUSH1 0x1 SLOAD PUSH1 0x40 MLOAD PUSH1 0x0 SWAP2 DUP3 SWAP2 PUSH1 0x1 PUSH1 0x1 PUSH1 0xA0 SHL SUB SWAP1 SWAP2 AND SWAP1 PUSH2 0x2CD SWAP1 DUP10 SWAP1 DUP10 SWAP1 DUP10 SWAP1 PUSH1 0x24 ADD PUSH2 0xD97 JUMP JUMPDEST PUSH1 0x40 DUP1 MLOAD PUSH1 0x1F NOT DUP2 DUP5 SUB ADD DUP2 MSTORE SWAP2 DUP2 MSTORE PUSH1 0x20 DUP3 ADD DUP1 MLOAD PUSH1 0x1 PUSH1 0x1 PUSH1 0xE0 SHL SUB AND PUSH4 0x6713B411 PUSH1 0xE1 SHL OR SWAP1 MSTORE MLOAD PUSH2 0x302 SWAP2 SWAP1 PUSH2 0xEBF JUMP JUMPDEST PUSH1 0x0 PUSH1 0x40 MLOAD DUP1 DUP4 SUB DUP2 DUP6 GAS DELEGATECALL SWAP2 POP POP RETURNDATASIZE DUP1 PUSH1 0x0 DUP2 EQ PUSH2 0x33D JUMPI PUSH1 0x40 MLOAD SWAP2 POP PUSH1 0x1F NOT PUSH1 0x3F RETURNDATASIZE ADD AND DUP3 ADD PUSH1 0x40 MSTORE RETURNDATASIZE DUP3 MSTORE RETURNDATASIZE PUSH1 0x0 PUSH1 0x20 DUP5 ADD RETURNDATACOPY PUSH2 0x342 JUMP JUMPDEST PUSH1 0x60 SWAP2 POP JUMPDEST POP SWAP2 POP SWAP2 POP DUP2 PUSH2 0x394 JUMPI PUSH1 0x40 MLOAD PUSH3 0x461BCD PUSH1 0xE5 SHL DUP2 MSTORE PUSH1 0x20 PUSH1 0x4 DUP3 ADD MSTORE PUSH1 0x1B PUSH1 0x24 DUP3 ADD MSTORE PUSH32 0x44656C656761746563616C6C20746F2073776170206661696C65640000000000 PUSH1 0x44 DUP3 ADD MSTORE PUSH1 0x64 ADD PUSH2 0x24A JUMP JUMPDEST DUP1 DUP1 PUSH1 0x20 ADD SWAP1 MLOAD DUP2 ADD SWAP1 PUSH2 0x3A8 SWAP2 SWAP1 PUSH2 0xEDB JUMP JUMPDEST SWAP4 POP CALLER PUSH1 0x1 PUSH1 0x1 PUSH1 0xA0 SHL SUB AND PUSH32 0xD0DCB5D6CCBC65558941EDA1D0ADD99921923CC1868A41BBF8D224258A21396D DUP6 PUSH1 0x20 ADD MLOAD TIMESTAMP PUSH1 0x40 MLOAD PUSH2 0x3F2 SWAP3 SWAP2 SWAP1 SWAP2 DUP3 MSTORE PUSH1 0x20 DUP3 ADD MSTORE PUSH1 0x40 ADD SWAP1 JUMP JUMPDEST PUSH1 0x40 MLOAD DUP1 SWAP2 SUB SWAP1 LOG2 POP POP POP SWAP4 SWAP3 POP POP POP JUMP JUMPDEST PUSH2 0x40C PUSH2 0x61A JUMP JUMPDEST PUSH1 0x0 DUP1 SLOAD PUSH1 0xFF PUSH1 0xA0 SHL NOT AND PUSH1 0x1 PUSH1 0xA0 SHL OR DUP2 SSTORE PUSH1 0x40 MLOAD PUSH32 0x75884CDADC4A89E8B545DB800057F06EC7F5338A08183C7BA515F2BFDD9FE1E1 SWAP2 SWAP1 LOG1 JUMP JUMPDEST PUSH2 0x450 PUSH2 0x61A JUMP JUMPDEST PUSH1 0x0 SLOAD PUSH1 0x1 PUSH1 0x1 PUSH1 0xA0 SHL SUB AND SELFDESTRUCT JUMPDEST PUSH2 0x466 PUSH2 0x61A JUMP JUMPDEST PUSH1 0x1 PUSH1 0x1 PUSH1 0xA0 SHL SUB DUP3 AND ISZERO DUP1 ISZERO SWAP1 PUSH2 0x490 JUMPI POP DUP3 PUSH1 0x1 PUSH1 0x1 PUSH1 0xA0 SHL SUB AND DUP3 PUSH1 0x1 PUSH1 0x1 PUSH1 0xA0 SHL SUB AND EQ ISZERO JUMPDEST PUSH2 0x4C9 JUMPI PUSH1 0x40 MLOAD PUSH3 0x461BCD PUSH1 0xE5 SHL DUP2 MSTORE PUSH1 0x20 PUSH1 0x4 DUP3 ADD MSTORE PUSH1 0xA PUSH1 0x24 DUP3 ADD MSTORE PUSH10 0x496E76616C696420746F PUSH1 0xB0 SHL PUSH1 0x44 DUP3 ADD MSTORE PUSH1 0x64 ADD PUSH2 0x24A JUMP JUMPDEST PUSH1 0x40 MLOAD PUSH4 0x70A08231 PUSH1 0xE0 SHL DUP2 MSTORE ADDRESS PUSH1 0x4 DUP3 ADD MSTORE PUSH1 0x0 SWAP1 PUSH1 0x1 PUSH1 0x1 PUSH1 0xA0 SHL SUB DUP6 AND SWAP1 PUSH4 0x70A08231 SWAP1 PUSH1 0x24 ADD PUSH1 0x20 PUSH1 0x40 MLOAD DUP1 DUP4 SUB DUP2 DUP7 GAS STATICCALL ISZERO DUP1 ISZERO PUSH2 0x510 JUMPI RETURNDATASIZE PUSH1 0x0 DUP1 RETURNDATACOPY RETURNDATASIZE PUSH1 0x0 REVERT JUMPDEST POP POP POP POP PUSH1 0x40 MLOAD RETURNDATASIZE PUSH1 0x1F NOT PUSH1 0x1F DUP3 ADD AND DUP3 ADD DUP1 PUSH1 0x40 MSTORE POP DUP2 ADD SWAP1 PUSH2 0x534 SWAP2 SWAP1 PUSH2 0xF33 JUMP JUMPDEST SWAP1 POP DUP2 PUSH1 0x0 SUB PUSH2 0x54E JUMPI PUSH2 0x549 DUP5 DUP5 DUP4 PUSH2 0x753 JUMP JUMPDEST PUSH2 0x59B JUMP JUMPDEST DUP1 DUP3 GT ISZERO PUSH2 0x590 JUMPI PUSH1 0x40 MLOAD PUSH3 0x461BCD PUSH1 0xE5 SHL DUP2 MSTORE PUSH1 0x20 PUSH1 0x4 DUP3 ADD MSTORE PUSH1 0xF PUSH1 0x24 DUP3 ADD MSTORE PUSH15 0x457863656564732062616C616E6365 PUSH1 0x88 SHL PUSH1 0x44 DUP3 ADD MSTORE PUSH1 0x64 ADD PUSH2 0x24A JUMP JUMPDEST PUSH2 0x59B DUP5 DUP5 DUP5 PUSH2 0x753 JUMP JUMPDEST POP POP POP POP JUMP JUMPDEST PUSH2 0x5A9 PUSH2 0x61A JUMP JUMPDEST PUSH1 0x1 PUSH1 0x1 PUSH1 0xA0 SHL SUB DUP2 AND PUSH2 0x60E JUMPI PUSH1 0x40 MLOAD PUSH3 0x461BCD PUSH1 0xE5 SHL DUP2 MSTORE PUSH1 0x20 PUSH1 0x4 DUP3 ADD MSTORE PUSH1 0x26 PUSH1 0x24 DUP3 ADD MSTORE PUSH32 0x4F776E61626C653A206E6577206F776E657220697320746865207A65726F2061 PUSH1 0x44 DUP3 ADD MSTORE PUSH6 0x646472657373 PUSH1 0xD0 SHL PUSH1 0x64 DUP3 ADD MSTORE PUSH1 0x84 ADD PUSH2 0x24A JUMP JUMPDEST PUSH2 0x617 DUP2 PUSH2 0x86E JUMP JUMPDEST POP JUMP JUMPDEST CALLER PUSH2 0x62D PUSH1 0x0 SLOAD PUSH1 0x1 PUSH1 0x1 PUSH1 0xA0 SHL SUB AND SWAP1 JUMP JUMPDEST PUSH1 0x1 PUSH1 0x1 PUSH1 0xA0 SHL SUB AND EQ PUSH2 0x683 JUMPI PUSH1 0x40 MLOAD PUSH3 0x461BCD PUSH1 0xE5 SHL DUP2 MSTORE PUSH1 0x20 PUSH1 0x4 DUP3 ADD DUP2 SWAP1 MSTORE PUSH1 0x24 DUP3 ADD MSTORE PUSH32 0x4F776E61626C653A2063616C6C6572206973206E6F7420746865206F776E6572 PUSH1 0x44 DUP3 ADD MSTORE PUSH1 0x64 ADD PUSH2 0x24A JUMP JUMPDEST JUMP JUMPDEST PUSH1 0x40 DUP1 MLOAD PUSH1 0x0 DUP1 DUP3 MSTORE PUSH1 0x20 DUP3 ADD SWAP1 SWAP3 MSTORE PUSH1 0x1 PUSH1 0x1 PUSH1 0xA0 SHL SUB DUP5 AND SWAP1 DUP4 SWAP1 PUSH1 0x40 MLOAD PUSH2 0x6AF SWAP2 SWAP1 PUSH2 0xEBF JUMP JUMPDEST PUSH1 0x0 PUSH1 0x40 MLOAD DUP1 DUP4 SUB DUP2 DUP6 DUP8 GAS CALL SWAP3 POP POP POP RETURNDATASIZE DUP1 PUSH1 0x0 DUP2 EQ PUSH2 0x6EC JUMPI PUSH1 0x40 MLOAD SWAP2 POP PUSH1 0x1F NOT PUSH1 0x3F RETURNDATASIZE ADD AND DUP3 ADD PUSH1 0x40 MSTORE RETURNDATASIZE DUP3 MSTORE RETURNDATASIZE PUSH1 0x0 PUSH1 0x20 DUP5 ADD RETURNDATACOPY PUSH2 0x6F1 JUMP JUMPDEST PUSH1 0x60 SWAP2 POP JUMPDEST POP POP SWAP1 POP DUP1 PUSH2 0x74E JUMPI PUSH1 0x40 MLOAD PUSH3 0x461BCD PUSH1 0xE5 SHL DUP2 MSTORE PUSH1 0x20 PUSH1 0x4 DUP3 ADD MSTORE PUSH1 0x23 PUSH1 0x24 DUP3 ADD MSTORE PUSH32 0x5472616E7366657248656C7065723A204554485F5452414E534645525F464149 PUSH1 0x44 DUP3 ADD MSTORE PUSH3 0x131151 PUSH1 0xEA SHL PUSH1 0x64 DUP3 ADD MSTORE PUSH1 0x84 ADD PUSH2 0x24A JUMP JUMPDEST POP POP POP JUMP JUMPDEST PUSH1 0x40 DUP1 MLOAD PUSH1 0x1 PUSH1 0x1 PUSH1 0xA0 SHL SUB DUP5 DUP2 AND PUSH1 0x24 DUP4 ADD MSTORE PUSH1 0x44 DUP1 DUP4 ADD DUP6 SWAP1 MSTORE DUP4 MLOAD DUP1 DUP5 SUB SWAP1 SWAP2 ADD DUP2 MSTORE PUSH1 0x64 SWAP1 SWAP3 ADD DUP4 MSTORE PUSH1 0x20 DUP3 ADD DUP1 MLOAD PUSH1 0x1 PUSH1 0x1 PUSH1 0xE0 SHL SUB AND PUSH4 0xA9059CBB PUSH1 0xE0 SHL OR SWAP1 MSTORE SWAP2 MLOAD PUSH1 0x0 SWAP3 DUP4 SWAP3 SWAP1 DUP8 AND SWAP2 PUSH2 0x7AF SWAP2 SWAP1 PUSH2 0xEBF JUMP JUMPDEST PUSH1 0x0 PUSH1 0x40 MLOAD DUP1 DUP4 SUB DUP2 PUSH1 0x0 DUP7 GAS CALL SWAP2 POP POP RETURNDATASIZE DUP1 PUSH1 0x0 DUP2 EQ PUSH2 0x7EC JUMPI PUSH1 0x40 MLOAD SWAP2 POP PUSH1 0x1F NOT PUSH1 0x3F RETURNDATASIZE ADD AND DUP3 ADD PUSH1 0x40 MSTORE RETURNDATASIZE DUP3 MSTORE RETURNDATASIZE PUSH1 0x0 PUSH1 0x20 DUP5 ADD RETURNDATACOPY PUSH2 0x7F1 JUMP JUMPDEST PUSH1 0x60 SWAP2 POP JUMPDEST POP SWAP2 POP SWAP2 POP DUP2 DUP1 ISZERO PUSH2 0x81B JUMPI POP DUP1 MLOAD ISZERO DUP1 PUSH2 0x81B JUMPI POP DUP1 DUP1 PUSH1 0x20 ADD SWAP1 MLOAD DUP2 ADD SWAP1 PUSH2 0x81B SWAP2 SWAP1 PUSH2 0xF4C JUMP JUMPDEST PUSH2 0x867 JUMPI PUSH1 0x40 MLOAD PUSH3 0x461BCD PUSH1 0xE5 SHL DUP2 MSTORE PUSH1 0x20 PUSH1 0x4 DUP3 ADD MSTORE PUSH1 0x1F PUSH1 0x24 DUP3 ADD MSTORE PUSH32 0x5472616E7366657248656C7065723A205452414E534645525F4641494C454400 PUSH1 0x44 DUP3 ADD MSTORE PUSH1 0x64 ADD PUSH2 0x24A JUMP JUMPDEST POP POP POP POP POP JUMP JUMPDEST PUSH1 0x0 DUP1 SLOAD PUSH1 0x1 PUSH1 0x1 PUSH1 0xA0 SHL SUB DUP4 DUP2 AND PUSH1 0x1 PUSH1 0x1 PUSH1 0xA0 SHL SUB NOT DUP4 AND DUP2 OR DUP5 SSTORE PUSH1 0x40 MLOAD SWAP2 SWAP1 SWAP3 AND SWAP3 DUP4 SWAP2 PUSH32 0x8BE0079C531659141344CD1FD0A4F28419497F9722A3DAAFE3B4186F6B6457E0 SWAP2 SWAP1 LOG3 POP POP JUMP JUMPDEST PUSH1 0x1 PUSH1 0x1 PUSH1 0xA0 SHL SUB DUP2 AND DUP2 EQ PUSH2 0x617 JUMPI PUSH1 0x0 DUP1 REVERT JUMPDEST PUSH1 0x0 DUP1 PUSH1 0x40 DUP4 DUP6 SUB SLT ISZERO PUSH2 0x8E6 JUMPI PUSH1 0x0 DUP1 REVERT JUMPDEST DUP3 CALLDATALOAD PUSH2 0x8F1 DUP2 PUSH2 0x8BE JUMP JUMPDEST SWAP5 PUSH1 0x20 SWAP4 SWAP1 SWAP4 ADD CALLDATALOAD SWAP4 POP POP POP JUMP JUMPDEST PUSH4 0x4E487B71 PUSH1 0xE0 SHL PUSH1 0x0 MSTORE PUSH1 0x41 PUSH1 0x4 MSTORE PUSH1 0x24 PUSH1 0x0 REVERT JUMPDEST PUSH1 0x40 MLOAD PUSH1 0x60 DUP2 ADD PUSH8 0xFFFFFFFFFFFFFFFF DUP2 GT DUP3 DUP3 LT OR ISZERO PUSH2 0x938 JUMPI PUSH2 0x938 PUSH2 0x8FF JUMP JUMPDEST PUSH1 0x40 MSTORE SWAP1 JUMP JUMPDEST PUSH1 0x40 MLOAD PUSH1 0xA0 DUP2 ADD PUSH8 0xFFFFFFFFFFFFFFFF DUP2 GT DUP3 DUP3 LT OR ISZERO PUSH2 0x938 JUMPI PUSH2 0x938 PUSH2 0x8FF JUMP JUMPDEST PUSH1 0x40 MLOAD PUSH1 0x1F DUP3 ADD PUSH1 0x1F NOT AND DUP2 ADD PUSH8 0xFFFFFFFFFFFFFFFF DUP2 GT DUP3 DUP3 LT OR ISZERO PUSH2 0x98A JUMPI PUSH2 0x98A PUSH2 0x8FF JUMP JUMPDEST PUSH1 0x40 MSTORE SWAP2 SWAP1 POP JUMP JUMPDEST PUSH1 0x0 PUSH8 0xFFFFFFFFFFFFFFFF DUP3 GT ISZERO PUSH2 0x9AC JUMPI PUSH2 0x9AC PUSH2 0x8FF JUMP JUMPDEST POP PUSH1 0x5 SHL PUSH1 0x20 ADD SWAP1 JUMP JUMPDEST DUP1 CALLDATALOAD PUSH2 0x9C1 DUP2 PUSH2 0x8BE JUMP JUMPDEST SWAP2 SWAP1 POP JUMP JUMPDEST PUSH1 0x0 DUP3 PUSH1 0x1F DUP4 ADD SLT PUSH2 0x9D7 JUMPI PUSH1 0x0 DUP1 REVERT JUMPDEST DUP2 CALLDATALOAD PUSH8 0xFFFFFFFFFFFFFFFF DUP2 GT ISZERO PUSH2 0x9F1 JUMPI PUSH2 0x9F1 PUSH2 0x8FF JUMP JUMPDEST PUSH2 0xA04 PUSH1 0x1F DUP3 ADD PUSH1 0x1F NOT AND PUSH1 0x20 ADD PUSH2 0x961 JUMP JUMPDEST DUP2 DUP2 MSTORE DUP5 PUSH1 0x20 DUP4 DUP7 ADD ADD GT ISZERO PUSH2 0xA19 JUMPI PUSH1 0x0 DUP1 REVERT JUMPDEST DUP2 PUSH1 0x20 DUP6 ADD PUSH1 0x20 DUP4 ADD CALLDATACOPY PUSH1 0x0 SWAP2 DUP2 ADD PUSH1 0x20 ADD SWAP2 SWAP1 SWAP2 MSTORE SWAP4 SWAP3 POP POP POP JUMP JUMPDEST DUP1 ISZERO ISZERO DUP2 EQ PUSH2 0x617 JUMPI PUSH1 0x0 DUP1 REVERT JUMPDEST PUSH1 0x0 DUP1 PUSH1 0x0 PUSH1 0x60 DUP5 DUP7 SUB SLT ISZERO PUSH2 0xA59 JUMPI PUSH1 0x0 DUP1 REVERT JUMPDEST PUSH8 0xFFFFFFFFFFFFFFFF DUP5 CALLDATALOAD GT ISZERO PUSH2 0xA6F JUMPI PUSH1 0x0 DUP1 REVERT JUMPDEST DUP5 PUSH1 0x1F DUP6 CALLDATALOAD DUP7 ADD ADD SLT PUSH2 0xA81 JUMPI PUSH1 0x0 DUP1 REVERT JUMPDEST PUSH2 0xA96 PUSH2 0xA91 DUP6 CALLDATALOAD DUP7 ADD CALLDATALOAD PUSH2 0x992 JUMP JUMPDEST PUSH2 0x961 JUMP JUMPDEST DUP5 CALLDATALOAD DUP6 ADD DUP1 CALLDATALOAD DUP1 DUP4 MSTORE PUSH1 0x20 DUP1 DUP5 ADD SWAP4 SWAP3 PUSH1 0x5 SWAP3 SWAP1 SWAP3 SHL SWAP1 SWAP2 ADD ADD DUP8 LT ISZERO PUSH2 0xABC JUMPI PUSH1 0x0 DUP1 REVERT JUMPDEST PUSH1 0x20 DUP7 CALLDATALOAD DUP8 ADD ADD JUMPDEST DUP7 CALLDATALOAD DUP8 ADD DUP1 CALLDATALOAD PUSH1 0x5 SHL ADD PUSH1 0x20 ADD DUP2 LT ISZERO PUSH2 0xCCB JUMPI PUSH8 0xFFFFFFFFFFFFFFFF DUP2 CALLDATALOAD GT ISZERO PUSH2 0xAEE JUMPI PUSH1 0x0 DUP1 REVERT JUMPDEST PUSH1 0x60 DUP8 CALLDATALOAD DUP9 ADD DUP3 CALLDATALOAD ADD DUP10 SUB PUSH1 0x1F NOT ADD SLT ISZERO PUSH2 0xB08 JUMPI PUSH1 0x0 DUP1 REVERT JUMPDEST PUSH2 0xB10 PUSH2 0x915 JUMP JUMPDEST PUSH2 0xB23 PUSH1 0x20 DUP4 CALLDATALOAD DUP11 CALLDATALOAD DUP12 ADD ADD ADD CALLDATALOAD PUSH2 0x8BE JUMP JUMPDEST DUP8 CALLDATALOAD DUP9 ADD DUP3 CALLDATALOAD ADD PUSH1 0x20 DUP2 DUP2 ADD CALLDATALOAD DUP4 MSTORE PUSH1 0x40 DUP3 ADD CALLDATALOAD SWAP1 DUP4 ADD MSTORE PUSH8 0xFFFFFFFFFFFFFFFF PUSH1 0x60 SWAP1 SWAP2 ADD CALLDATALOAD GT ISZERO PUSH2 0xB55 JUMPI PUSH1 0x0 DUP1 REVERT JUMPDEST DUP8 CALLDATALOAD DUP9 ADD DUP3 CALLDATALOAD ADD PUSH1 0x60 DUP2 ADD CALLDATALOAD ADD PUSH1 0x3F DUP2 ADD DUP11 SGT PUSH2 0xB71 JUMPI PUSH1 0x0 DUP1 REVERT JUMPDEST PUSH2 0xB81 PUSH2 0xA91 PUSH1 0x20 DUP4 ADD CALLDATALOAD PUSH2 0x992 JUMP JUMPDEST PUSH1 0x20 DUP3 DUP2 ADD CALLDATALOAD DUP1 DUP4 MSTORE SWAP1 DUP3 ADD SWAP2 SWAP1 PUSH1 0x5 SHL DUP4 ADD PUSH1 0x40 ADD DUP13 LT ISZERO PUSH2 0xBA3 JUMPI PUSH1 0x0 DUP1 REVERT JUMPDEST PUSH1 0x40 DUP4 ADD JUMPDEST PUSH1 0x40 PUSH1 0x20 DUP6 ADD CALLDATALOAD PUSH1 0x5 SHL DUP6 ADD ADD DUP2 LT ISZERO PUSH2 0xCB5 JUMPI PUSH8 0xFFFFFFFFFFFFFFFF DUP2 CALLDATALOAD GT ISZERO PUSH2 0xBD2 JUMPI PUSH1 0x0 DUP1 REVERT JUMPDEST PUSH1 0xA0 DUP2 CALLDATALOAD DUP6 ADD DUP15 SUB PUSH1 0x3F NOT ADD SLT ISZERO PUSH2 0xBE9 JUMPI PUSH1 0x0 DUP1 REVERT JUMPDEST PUSH2 0xBF1 PUSH2 0x93E JUMP JUMPDEST PUSH2 0xC01 PUSH1 0x40 DUP4 CALLDATALOAD DUP8 ADD ADD CALLDATALOAD PUSH2 0x8BE JUMP JUMPDEST DUP2 CALLDATALOAD DUP6 ADD PUSH1 0x40 DUP2 ADD CALLDATALOAD DUP3 MSTORE PUSH8 0xFFFFFFFFFFFFFFFF PUSH1 0x60 SWAP1 SWAP2 ADD CALLDATALOAD GT ISZERO PUSH2 0xC26 JUMPI PUSH1 0x0 DUP1 REVERT JUMPDEST PUSH2 0xC3C DUP15 DUP4 CALLDATALOAD DUP8 ADD PUSH1 0x60 DUP2 ADD CALLDATALOAD ADD PUSH1 0x40 ADD PUSH2 0x9C6 JUMP JUMPDEST PUSH1 0x20 DUP3 ADD MSTORE PUSH2 0xC51 PUSH1 0x80 DUP4 CALLDATALOAD DUP8 ADD ADD CALLDATALOAD PUSH2 0xA36 JUMP JUMPDEST DUP2 CALLDATALOAD DUP6 ADD PUSH1 0x80 DUP2 ADD CALLDATALOAD PUSH1 0x40 DUP4 ADD MSTORE PUSH2 0xC6B SWAP1 PUSH1 0xA0 ADD PUSH2 0x9B6 JUMP JUMPDEST PUSH1 0x60 DUP3 ADD MSTORE PUSH8 0xFFFFFFFFFFFFFFFF PUSH1 0xC0 DUP4 CALLDATALOAD DUP8 ADD ADD CALLDATALOAD GT ISZERO PUSH2 0xC8C JUMPI PUSH1 0x0 DUP1 REVERT JUMPDEST PUSH2 0xCA2 DUP15 DUP4 CALLDATALOAD DUP8 ADD PUSH1 0xC0 DUP2 ADD CALLDATALOAD ADD PUSH1 0x40 ADD PUSH2 0x9C6 JUMP JUMPDEST PUSH1 0x80 DUP3 ADD MSTORE DUP4 MSTORE PUSH1 0x20 SWAP3 DUP4 ADD SWAP3 ADD PUSH2 0xBA8 JUMP JUMPDEST POP PUSH1 0x40 DUP5 ADD MSTORE POP POP DUP4 MSTORE PUSH1 0x20 SWAP3 DUP4 ADD SWAP3 ADD PUSH2 0xAC4 JUMP JUMPDEST POP SWAP7 PUSH1 0x20 DUP7 ADD CALLDATALOAD SWAP7 POP PUSH1 0x40 SWAP1 SWAP6 ADD CALLDATALOAD SWAP5 SWAP4 POP POP POP POP JUMP JUMPDEST PUSH1 0x0 DUP1 PUSH1 0x0 PUSH1 0x60 DUP5 DUP7 SUB SLT ISZERO PUSH2 0xCF7 JUMPI PUSH1 0x0 DUP1 REVERT JUMPDEST DUP4 CALLDATALOAD PUSH2 0xD02 DUP2 PUSH2 0x8BE JUMP JUMPDEST SWAP3 POP PUSH1 0x20 DUP5 ADD CALLDATALOAD PUSH2 0xD12 DUP2 PUSH2 0x8BE JUMP JUMPDEST SWAP3 SWAP6 SWAP3 SWAP5 POP POP POP PUSH1 0x40 SWAP2 SWAP1 SWAP2 ADD CALLDATALOAD SWAP1 JUMP JUMPDEST PUSH1 0x0 PUSH1 0x20 DUP3 DUP5 SUB SLT ISZERO PUSH2 0xD35 JUMPI PUSH1 0x0 DUP1 REVERT JUMPDEST DUP2 CALLDATALOAD PUSH2 0xD40 DUP2 PUSH2 0x8BE JUMP JUMPDEST SWAP4 SWAP3 POP POP POP JUMP JUMPDEST PUSH1 0x0 JUMPDEST DUP4 DUP2 LT ISZERO PUSH2 0xD62 JUMPI DUP2 DUP2 ADD MLOAD DUP4 DUP3 ADD MSTORE PUSH1 0x20 ADD PUSH2 0xD4A JUMP JUMPDEST POP POP PUSH1 0x0 SWAP2 ADD MSTORE JUMP JUMPDEST PUSH1 0x0 DUP2 MLOAD DUP1 DUP5 MSTORE PUSH2 0xD83 DUP2 PUSH1 0x20 DUP7 ADD PUSH1 0x20 DUP7 ADD PUSH2 0xD47 JUMP JUMPDEST PUSH1 0x1F ADD PUSH1 0x1F NOT AND SWAP3 SWAP1 SWAP3 ADD PUSH1 0x20 ADD SWAP3 SWAP2 POP POP JUMP JUMPDEST PUSH1 0x0 PUSH1 0x60 DUP3 ADD PUSH1 0x60 DUP4 MSTORE DUP1 DUP7 MLOAD DUP1 DUP4 MSTORE PUSH1 0x80 DUP6 ADD SWAP2 POP PUSH1 0x80 DUP2 PUSH1 0x5 SHL DUP7 ADD ADD SWAP3 POP PUSH1 0x20 DUP1 DUP10 ADD PUSH1 0x0 JUMPDEST DUP4 DUP2 LT ISZERO PUSH2 0xEA6 JUMPI PUSH1 0x7F NOT DUP9 DUP8 SUB DUP2 ADD DUP7 MSTORE DUP3 MLOAD DUP1 MLOAD PUSH1 0x1 PUSH1 0x1 PUSH1 0xA0 SHL SUB SWAP1 DUP2 AND DUP10 MSTORE DUP6 DUP3 ADD MLOAD DUP7 DUP11 ADD MSTORE PUSH1 0x40 SWAP2 DUP3 ADD MLOAD PUSH1 0x60 SWAP3 DUP11 ADD DUP4 SWAP1 MSTORE DUP1 MLOAD SWAP3 DUP11 ADD DUP4 SWAP1 MSTORE DUP7 ADD SWAP2 PUSH1 0x80 PUSH1 0x5 DUP3 SWAP1 SHL DUP12 ADD DUP2 ADD SWAP3 SWAP2 SWAP1 DUP12 ADD SWAP1 PUSH1 0x0 JUMPDEST DUP2 DUP2 LT ISZERO PUSH2 0xE8D JUMPI DUP7 DUP14 DUP7 SUB ADD DUP4 MSTORE DUP6 MLOAD DUP5 DUP2 MLOAD AND DUP7 MSTORE DUP11 DUP2 ADD MLOAD PUSH1 0xA0 DUP13 DUP9 ADD MSTORE PUSH2 0xE46 PUSH1 0xA0 DUP9 ADD DUP3 PUSH2 0xD6B JUMP JUMPDEST SWAP1 POP PUSH1 0x40 DUP3 ADD MLOAD ISZERO ISZERO PUSH1 0x40 DUP9 ADD MSTORE DUP6 PUSH1 0x60 DUP4 ADD MLOAD AND PUSH1 0x60 DUP9 ADD MSTORE PUSH1 0x80 DUP3 ADD MLOAD SWAP2 POP DUP7 DUP2 SUB PUSH1 0x80 DUP9 ADD MSTORE PUSH2 0xE79 DUP2 DUP4 PUSH2 0xD6B JUMP JUMPDEST SWAP8 DUP13 ADD SWAP8 SWAP7 POP POP POP SWAP2 DUP10 ADD SWAP2 PUSH1 0x1 ADD PUSH2 0xE18 JUMP JUMPDEST POP SWAP3 SWAP11 POP POP POP SWAP7 DUP6 ADD SWAP7 POP POP POP SWAP1 DUP3 ADD SWAP1 PUSH1 0x1 ADD PUSH2 0xDC0 JUMP JUMPDEST POP POP DUP6 ADD SWAP7 SWAP1 SWAP7 MSTORE POP PUSH1 0x40 SWAP1 SWAP3 ADD SWAP3 SWAP1 SWAP3 MSTORE SWAP4 SWAP3 POP POP POP JUMP JUMPDEST PUSH1 0x0 DUP3 MLOAD PUSH2 0xED1 DUP2 DUP5 PUSH1 0x20 DUP8 ADD PUSH2 0xD47 JUMP JUMPDEST SWAP2 SWAP1 SWAP2 ADD SWAP3 SWAP2 POP POP JUMP JUMPDEST PUSH1 0x0 PUSH1 0x40 DUP3 DUP5 SUB SLT ISZERO PUSH2 0xEED JUMPI PUSH1 0x0 DUP1 REVERT JUMPDEST PUSH1 0x40 MLOAD PUSH1 0x40 DUP2 ADD DUP2 DUP2 LT PUSH8 0xFFFFFFFFFFFFFFFF DUP3 GT OR ISZERO PUSH2 0xF10 JUMPI PUSH2 0xF10 PUSH2 0x8FF JUMP JUMPDEST PUSH1 0x40 MSTORE DUP3 MLOAD PUSH2 0xF1E DUP2 PUSH2 0x8BE JUMP JUMPDEST DUP2 MSTORE PUSH1 0x20 SWAP3 DUP4 ADD MLOAD SWAP3 DUP2 ADD SWAP3 SWAP1 SWAP3 MSTORE POP SWAP2 SWAP1 POP JUMP JUMPDEST PUSH1 0x0 PUSH1 0x20 DUP3 DUP5 SUB SLT ISZERO PUSH2 0xF45 JUMPI PUSH1 0x0 DUP1 REVERT JUMPDEST POP MLOAD SWAP2 SWAP1 POP JUMP JUMPDEST PUSH1 0x0 PUSH1 0x20 DUP3 DUP5 SUB SLT ISZERO PUSH2 0xF5E JUMPI PUSH1 0x0 DUP1 REVERT JUMPDEST DUP2 MLOAD PUSH2 0xD40 DUP2 PUSH2 0xA36 JUMP INVALID LOG2 PUSH5 0x6970667358 0x22 SLT KECCAK256 0xB7 CALLER PUSH22 0x8B33FDB799DC9B8FDB751135B0A91FDAF6E2C994C0DF PUSH7 0x9C896FD5426864 PUSH20 0x6F6C634300081800330000000000000000000000 "},"methodIdentifiers":{"destroy()":"83197ef0","disable()":"2f2770db","isDisabled()":"6c57f5a9","owner()":"8da5cb5b","rescueERC20(address,address,uint256)":"b2118a8d","rescueETH(address,uint256)":"099a04e5","swapSyncSwap((address,uint256,(address,bytes,bool,address,bytes)[])[],uint256,uint256)":"1088a10e","syncSwapContract()":"274c6d9d","transferOwnership(address)":"f2fde38b"}}}}}