{"contracts/KaskadeSwapRouterV2.sol":{"KaskadeSwapRouterV2":{"abi":[{"inputs":[{"internalType":"address","name":"_vault","type":"address"},{"internalType":"address","name":"_wETH","type":"address"}],"stateMutability":"nonpayable","type":"constructor"},{"inputs":[],"name":"ApproveFailed","type":"error"},{"inputs":[],"name":"ETHTransferFailed","type":"error"},{"inputs":[],"name":"Expired","type":"error"},{"inputs":[],"name":"NotEnoughLiquidityMinted","type":"error"},{"inputs":[],"name":"TooLittleReceived","type":"error"},{"inputs":[],"name":"TransferFailed","type":"error"},{"inputs":[],"name":"TransferFromFailed","type":"error"},{"anonymous":false,"inputs":[],"name":"Disabled","type":"event"},{"anonymous":false,"inputs":[{"indexed":true,"internalType":"address","name":"previousOwner","type":"address"},{"indexed":true,"internalType":"address","name":"newOwner","type":"address"}],"name":"OwnershipTransferred","type":"event"},{"anonymous":false,"inputs":[{"indexed":true,"internalType":"address","name":"sender","type":"address"},{"components":[{"components":[{"internalType":"address","name":"pool","type":"address"},{"internalType":"bytes","name":"data","type":"bytes"},{"internalType":"address","name":"callback","type":"address"},{"internalType":"bytes","name":"callbackData","type":"bytes"},{"internalType":"bool","name":"useVault","type":"bool"}],"internalType":"struct IRouter.SwapStep[]","name":"steps","type":"tuple[]"},{"internalType":"address","name":"tokenIn","type":"address"},{"internalType":"uint256","name":"amountIn","type":"uint256"}],"indexed":false,"internalType":"struct IRouter.SwapPath[]","name":"paths","type":"tuple[]"},{"indexed":false,"internalType":"uint256","name":"amountOut","type":"uint256"}],"name":"SwapSynced","type":"event"},{"anonymous":false,"inputs":[{"indexed":true,"internalType":"address","name":"sender","type":"address"},{"components":[{"components":[{"internalType":"address","name":"pool","type":"address"},{"internalType":"bytes","name":"data","type":"bytes"},{"internalType":"address","name":"callback","type":"address"},{"internalType":"bytes","name":"callbackData","type":"bytes"},{"internalType":"bool","name":"useVault","type":"bool"}],"internalType":"struct IRouter.SwapStep[]","name":"steps","type":"tuple[]"},{"internalType":"address","name":"tokenIn","type":"address"},{"internalType":"uint256","name":"amountIn","type":"uint256"}],"indexed":false,"internalType":"struct IRouter.SwapPath[]","name":"paths","type":"tuple[]"},{"indexed":false,"internalType":"uint256","name":"amountOut","type":"uint256"}],"name":"SwapWithPermitSynced","type":"event"},{"inputs":[{"internalType":"address","name":"pool","type":"address"},{"components":[{"internalType":"address","name":"token","type":"address"},{"internalType":"uint256","name":"amount","type":"uint256"},{"internalType":"bool","name":"useVault","type":"bool"}],"internalType":"struct KaskadeSwapRouterV2.TokenInput[]","name":"inputs","type":"tuple[]"},{"internalType":"bytes","name":"data","type":"bytes"},{"internalType":"uint256","name":"minLiquidity","type":"uint256"},{"internalType":"address","name":"callback","type":"address"},{"internalType":"bytes","name":"callbackData","type":"bytes"},{"internalType":"address","name":"staking","type":"address"}],"name":"addLiquidity","outputs":[{"internalType":"uint256","name":"liquidity","type":"uint256"}],"stateMutability":"payable","type":"function"},{"inputs":[{"internalType":"address","name":"pool","type":"address"},{"components":[{"internalType":"address","name":"token","type":"address"},{"internalType":"uint256","name":"amount","type":"uint256"},{"internalType":"bool","name":"useVault","type":"bool"}],"internalType":"struct KaskadeSwapRouterV2.TokenInput[]","name":"inputs","type":"tuple[]"},{"internalType":"bytes","name":"data","type":"bytes"},{"internalType":"uint256","name":"minLiquidity","type":"uint256"},{"internalType":"address","name":"callback","type":"address"},{"internalType":"bytes","name":"callbackData","type":"bytes"},{"internalType":"address","name":"staking","type":"address"}],"name":"addLiquidity2","outputs":[{"internalType":"uint256","name":"liquidity","type":"uint256"}],"stateMutability":"payable","type":"function"},{"inputs":[{"internalType":"address","name":"pool","type":"address"},{"components":[{"internalType":"address","name":"token","type":"address"},{"internalType":"uint256","name":"amount","type":"uint256"},{"internalType":"bool","name":"useVault","type":"bool"}],"internalType":"struct KaskadeSwapRouterV2.TokenInput[]","name":"inputs","type":"tuple[]"},{"internalType":"bytes","name":"data","type":"bytes"},{"internalType":"uint256","name":"minLiquidity","type":"uint256"},{"internalType":"address","name":"callback","type":"address"},{"internalType":"bytes","name":"callbackData","type":"bytes"},{"components":[{"internalType":"address","name":"token","type":"address"},{"internalType":"uint256","name":"approveAmount","type":"uint256"},{"internalType":"uint256","name":"deadline","type":"uint256"},{"internalType":"uint8","name":"v","type":"uint8"},{"internalType":"bytes32","name":"r","type":"bytes32"},{"internalType":"bytes32","name":"s","type":"bytes32"}],"internalType":"struct IRouter.SplitPermitParams[]","name":"permits","type":"tuple[]"},{"internalType":"address","name":"staking","type":"address"}],"name":"addLiquidityWithPermit","outputs":[{"internalType":"uint256","name":"liquidity","type":"uint256"}],"stateMutability":"payable","type":"function"},{"inputs":[{"internalType":"address","name":"pool","type":"address"},{"components":[{"internalType":"address","name":"token","type":"address"},{"internalType":"uint256","name":"amount","type":"uint256"},{"internalType":"bool","name":"useVault","type":"bool"}],"internalType":"struct KaskadeSwapRouterV2.TokenInput[]","name":"inputs","type":"tuple[]"},{"internalType":"bytes","name":"data","type":"bytes"},{"internalType":"uint256","name":"minLiquidity","type":"uint256"},{"internalType":"address","name":"callback","type":"address"},{"internalType":"bytes","name":"callbackData","type":"bytes"},{"components":[{"internalType":"address","name":"token","type":"address"},{"internalType":"uint256","name":"approveAmount","type":"uint256"},{"internalType":"uint256","name":"deadline","type":"uint256"},{"internalType":"uint8","name":"v","type":"uint8"},{"internalType":"bytes32","name":"r","type":"bytes32"},{"internalType":"bytes32","name":"s","type":"bytes32"}],"internalType":"struct IRouter.SplitPermitParams[]","name":"permits","type":"tuple[]"},{"internalType":"address","name":"staking","type":"address"}],"name":"addLiquidityWithPermit2","outputs":[{"internalType":"uint256","name":"liquidity","type":"uint256"}],"stateMutability":"payable","type":"function"},{"inputs":[{"internalType":"address","name":"pool","type":"address"},{"internalType":"uint256","name":"liquidity","type":"uint256"},{"internalType":"bytes","name":"data","type":"bytes"},{"internalType":"uint256[]","name":"minAmounts","type":"uint256[]"},{"internalType":"address","name":"callback","type":"address"},{"internalType":"bytes","name":"callbackData","type":"bytes"}],"name":"burnLiquidity","outputs":[{"components":[{"internalType":"address","name":"token","type":"address"},{"internalType":"uint256","name":"amount","type":"uint256"}],"internalType":"struct IPool.TokenAmount[]","name":"amounts","type":"tuple[]"}],"stateMutability":"nonpayable","type":"function"},{"inputs":[{"internalType":"address","name":"pool","type":"address"},{"internalType":"uint256","name":"liquidity","type":"uint256"},{"internalType":"bytes","name":"data","type":"bytes"},{"internalType":"uint256","name":"minAmount","type":"uint256"},{"internalType":"address","name":"callback","type":"address"},{"internalType":"bytes","name":"callbackData","type":"bytes"}],"name":"burnLiquiditySingle","outputs":[{"components":[{"internalType":"address","name":"token","type":"address"},{"internalType":"uint256","name":"amount","type":"uint256"}],"internalType":"struct IPool.TokenAmount","name":"amountOut","type":"tuple"}],"stateMutability":"nonpayable","type":"function"},{"inputs":[{"internalType":"address","name":"pool","type":"address"},{"internalType":"uint256","name":"liquidity","type":"uint256"},{"internalType":"bytes","name":"data","type":"bytes"},{"internalType":"uint256","name":"minAmount","type":"uint256"},{"internalType":"address","name":"callback","type":"address"},{"internalType":"bytes","name":"callbackData","type":"bytes"},{"components":[{"internalType":"uint256","name":"approveAmount","type":"uint256"},{"internalType":"uint256","name":"deadline","type":"uint256"},{"internalType":"bytes","name":"signature","type":"bytes"}],"internalType":"struct IRouter.ArrayPermitParams","name":"permit","type":"tuple"}],"name":"burnLiquiditySingleWithPermit","outputs":[{"components":[{"internalType":"address","name":"token","type":"address"},{"internalType":"uint256","name":"amount","type":"uint256"}],"internalType":"struct IPool.TokenAmount","name":"amountOut","type":"tuple"}],"stateMutability":"nonpayable","type":"function"},{"inputs":[{"internalType":"address","name":"pool","type":"address"},{"internalType":"uint256","name":"liquidity","type":"uint256"},{"internalType":"bytes","name":"data","type":"bytes"},{"internalType":"uint256[]","name":"minAmounts","type":"uint256[]"},{"internalType":"address","name":"callback","type":"address"},{"internalType":"bytes","name":"callbackData","type":"bytes"},{"components":[{"internalType":"uint256","name":"approveAmount","type":"uint256"},{"internalType":"uint256","name":"deadline","type":"uint256"},{"internalType":"bytes","name":"signature","type":"bytes"}],"internalType":"struct IRouter.ArrayPermitParams","name":"permit","type":"tuple"}],"name":"burnLiquidityWithPermit","outputs":[{"components":[{"internalType":"address","name":"token","type":"address"},{"internalType":"uint256","name":"amount","type":"uint256"}],"internalType":"struct IPool.TokenAmount[]","name":"amounts","type":"tuple[]"}],"stateMutability":"nonpayable","type":"function"},{"inputs":[{"internalType":"address","name":"_factory","type":"address"},{"internalType":"bytes","name":"data","type":"bytes"}],"name":"createPool","outputs":[{"internalType":"address","name":"","type":"address"}],"stateMutability":"payable","type":"function"},{"inputs":[],"name":"disable","outputs":[],"stateMutability":"nonpayable","type":"function"},{"inputs":[{"internalType":"address","name":"","type":"address"},{"internalType":"uint256","name":"","type":"uint256"}],"name":"enteredPools","outputs":[{"internalType":"address","name":"","type":"address"}],"stateMutability":"view","type":"function"},{"inputs":[{"internalType":"address","name":"account","type":"address"}],"name":"enteredPoolsLength","outputs":[{"internalType":"uint256","name":"","type":"uint256"}],"stateMutability":"view","type":"function"},{"inputs":[],"name":"isDisabled","outputs":[{"internalType":"bool","name":"","type":"bool"}],"stateMutability":"view","type":"function"},{"inputs":[{"internalType":"address","name":"","type":"address"},{"internalType":"address","name":"","type":"address"}],"name":"isPoolEntered","outputs":[{"internalType":"bool","name":"","type":"bool"}],"stateMutability":"view","type":"function"},{"inputs":[{"internalType":"bytes[]","name":"data","type":"bytes[]"}],"name":"multicall","outputs":[{"internalType":"bytes[]","name":"results","type":"bytes[]"}],"stateMutability":"payable","type":"function"},{"inputs":[],"name":"owner","outputs":[{"internalType":"address","name":"","type":"address"}],"stateMutability":"view","type":"function"},{"inputs":[],"name":"renounceOwnership","outputs":[],"stateMutability":"nonpayable","type":"function"},{"inputs":[{"internalType":"address","name":"token","type":"address"},{"internalType":"address","name":"to","type":"address"},{"internalType":"uint256","name":"amount","type":"uint256"}],"name":"rescueERC20","outputs":[],"stateMutability":"nonpayable","type":"function"},{"inputs":[{"internalType":"address payable","name":"to","type":"address"},{"internalType":"uint256","name":"amount","type":"uint256"}],"name":"rescueETH","outputs":[],"stateMutability":"nonpayable","type":"function"},{"inputs":[{"internalType":"address","name":"token","type":"address"},{"internalType":"uint256","name":"value","type":"uint256"},{"internalType":"uint256","name":"deadline","type":"uint256"},{"internalType":"uint8","name":"v","type":"uint8"},{"internalType":"bytes32","name":"r","type":"bytes32"},{"internalType":"bytes32","name":"s","type":"bytes32"}],"name":"selfPermit","outputs":[],"stateMutability":"payable","type":"function"},{"inputs":[{"internalType":"address","name":"token","type":"address"},{"internalType":"uint256","name":"value","type":"uint256"},{"internalType":"uint256","name":"deadline","type":"uint256"},{"internalType":"bytes","name":"signature","type":"bytes"}],"name":"selfPermit2","outputs":[],"stateMutability":"payable","type":"function"},{"inputs":[{"internalType":"address","name":"token","type":"address"},{"internalType":"uint256","name":"value","type":"uint256"},{"internalType":"uint256","name":"deadline","type":"uint256"},{"internalType":"bytes","name":"signature","type":"bytes"}],"name":"selfPermit2IfNecessary","outputs":[],"stateMutability":"payable","type":"function"},{"inputs":[{"internalType":"address","name":"token","type":"address"},{"internalType":"uint256","name":"nonce","type":"uint256"},{"internalType":"uint256","name":"expiry","type":"uint256"},{"internalType":"uint8","name":"v","type":"uint8"},{"internalType":"bytes32","name":"r","type":"bytes32"},{"internalType":"bytes32","name":"s","type":"bytes32"}],"name":"selfPermitAllowed","outputs":[],"stateMutability":"payable","type":"function"},{"inputs":[{"internalType":"address","name":"token","type":"address"},{"internalType":"uint256","name":"nonce","type":"uint256"},{"internalType":"uint256","name":"expiry","type":"uint256"},{"internalType":"uint8","name":"v","type":"uint8"},{"internalType":"bytes32","name":"r","type":"bytes32"},{"internalType":"bytes32","name":"s","type":"bytes32"}],"name":"selfPermitAllowedIfNecessary","outputs":[],"stateMutability":"payable","type":"function"},{"inputs":[{"internalType":"address","name":"token","type":"address"},{"internalType":"uint256","name":"value","type":"uint256"},{"internalType":"uint256","name":"deadline","type":"uint256"},{"internalType":"uint8","name":"v","type":"uint8"},{"internalType":"bytes32","name":"r","type":"bytes32"},{"internalType":"bytes32","name":"s","type":"bytes32"}],"name":"selfPermitIfNecessary","outputs":[],"stateMutability":"payable","type":"function"},{"inputs":[{"internalType":"address","name":"target","type":"address"},{"internalType":"address","name":"token","type":"address"},{"internalType":"uint256","name":"amount","type":"uint256"},{"internalType":"address","name":"to","type":"address"}],"name":"stake","outputs":[],"stateMutability":"nonpayable","type":"function"},{"inputs":[{"internalType":"address","name":"target","type":"address"},{"internalType":"address","name":"token","type":"address"},{"internalType":"uint256","name":"amount","type":"uint256"},{"internalType":"address","name":"to","type":"address"}],"name":"stakeWithToken","outputs":[],"stateMutability":"nonpayable","type":"function"},{"inputs":[{"components":[{"components":[{"internalType":"address","name":"pool","type":"address"},{"internalType":"bytes","name":"data","type":"bytes"},{"internalType":"address","name":"callback","type":"address"},{"internalType":"bytes","name":"callbackData","type":"bytes"},{"internalType":"bool","name":"useVault","type":"bool"}],"internalType":"struct IRouter.SwapStep[]","name":"steps","type":"tuple[]"},{"internalType":"address","name":"tokenIn","type":"address"},{"internalType":"uint256","name":"amountIn","type":"uint256"}],"internalType":"struct IRouter.SwapPath[]","name":"paths","type":"tuple[]"},{"internalType":"uint256","name":"amountOutMin","type":"uint256"},{"internalType":"uint256","name":"deadline","type":"uint256"}],"name":"swap","outputs":[{"components":[{"internalType":"address","name":"token","type":"address"},{"internalType":"uint256","name":"amount","type":"uint256"}],"internalType":"struct IPool.TokenAmount","name":"amountOut","type":"tuple"}],"stateMutability":"payable","type":"function"},{"inputs":[{"components":[{"components":[{"internalType":"address","name":"pool","type":"address"},{"internalType":"bytes","name":"data","type":"bytes"},{"internalType":"address","name":"callback","type":"address"},{"internalType":"bytes","name":"callbackData","type":"bytes"},{"internalType":"bool","name":"useVault","type":"bool"}],"internalType":"struct IRouter.SwapStep[]","name":"steps","type":"tuple[]"},{"internalType":"address","name":"tokenIn","type":"address"},{"internalType":"uint256","name":"amountIn","type":"uint256"}],"internalType":"struct IRouter.SwapPath[]","name":"paths","type":"tuple[]"},{"internalType":"uint256","name":"amountOutMin","type":"uint256"},{"internalType":"uint256","name":"deadline","type":"uint256"}],"name":"swapSyncSwap","outputs":[{"components":[{"internalType":"address","name":"token","type":"address"},{"internalType":"uint256","name":"amount","type":"uint256"}],"internalType":"struct IPool.TokenAmount","name":"amountOut","type":"tuple"}],"stateMutability":"payable","type":"function"},{"inputs":[{"components":[{"components":[{"internalType":"address","name":"pool","type":"address"},{"internalType":"bytes","name":"data","type":"bytes"},{"internalType":"address","name":"callback","type":"address"},{"internalType":"bytes","name":"callbackData","type":"bytes"},{"internalType":"bool","name":"useVault","type":"bool"}],"internalType":"struct IRouter.SwapStep[]","name":"steps","type":"tuple[]"},{"internalType":"address","name":"tokenIn","type":"address"},{"internalType":"uint256","name":"amountIn","type":"uint256"}],"internalType":"struct IRouter.SwapPath[]","name":"paths","type":"tuple[]"},{"internalType":"uint256","name":"amountOutMin","type":"uint256"},{"internalType":"uint256","name":"deadline","type":"uint256"},{"components":[{"internalType":"address","name":"token","type":"address"},{"internalType":"uint256","name":"approveAmount","type":"uint256"},{"internalType":"uint256","name":"deadline","type":"uint256"},{"internalType":"uint8","name":"v","type":"uint8"},{"internalType":"bytes32","name":"r","type":"bytes32"},{"internalType":"bytes32","name":"s","type":"bytes32"}],"internalType":"struct IRouter.SplitPermitParams","name":"permit","type":"tuple"}],"name":"swapWithPermit","outputs":[{"components":[{"internalType":"address","name":"token","type":"address"},{"internalType":"uint256","name":"amount","type":"uint256"}],"internalType":"struct IPool.TokenAmount","name":"amountOut","type":"tuple"}],"stateMutability":"payable","type":"function"},{"inputs":[{"components":[{"components":[{"internalType":"address","name":"pool","type":"address"},{"internalType":"bytes","name":"data","type":"bytes"},{"internalType":"address","name":"callback","type":"address"},{"internalType":"bytes","name":"callbackData","type":"bytes"},{"internalType":"bool","name":"useVault","type":"bool"}],"internalType":"struct IRouter.SwapStep[]","name":"steps","type":"tuple[]"},{"internalType":"address","name":"tokenIn","type":"address"},{"internalType":"uint256","name":"amountIn","type":"uint256"}],"internalType":"struct IRouter.SwapPath[]","name":"paths","type":"tuple[]"},{"internalType":"uint256","name":"amountOutMin","type":"uint256"},{"internalType":"uint256","name":"deadline","type":"uint256"},{"components":[{"internalType":"address","name":"token","type":"address"},{"internalType":"uint256","name":"approveAmount","type":"uint256"},{"internalType":"uint256","name":"deadline","type":"uint256"},{"internalType":"uint8","name":"v","type":"uint8"},{"internalType":"bytes32","name":"r","type":"bytes32"},{"internalType":"bytes32","name":"s","type":"bytes32"}],"internalType":"struct IRouter.SplitPermitParams","name":"permit","type":"tuple"}],"name":"swapWithPermitSyncSwap","outputs":[{"components":[{"internalType":"address","name":"token","type":"address"},{"internalType":"uint256","name":"amount","type":"uint256"}],"internalType":"struct IPool.TokenAmount","name":"amountOut","type":"tuple"}],"stateMutability":"payable","type":"function"},{"inputs":[{"internalType":"address","name":"newOwner","type":"address"}],"name":"transferOwnership","outputs":[],"stateMutability":"nonpayable","type":"function"},{"inputs":[],"name":"vault","outputs":[{"internalType":"address","name":"","type":"address"}],"stateMutability":"view","type":"function"},{"inputs":[],"name":"wETH","outputs":[{"internalType":"address","name":"","type":"address"}],"stateMutability":"view","type":"function"}],"evm":{"bytecode":{"linkReferences":{},"object":"60c06040523480156200001157600080fd5b5060405162003daa38038062003daa8339810160408190526200003491620000c4565b6200003f3362000057565b6001600160a01b039182166080521660a052620000fc565b600080546001600160a01b038381166001600160a01b0319831681178455604051919092169283917f8be0079c531659141344cd1fd0a4f28419497f9722a3daafe3b4186f6b6457e09190a35050565b80516001600160a01b0381168114620000bf57600080fd5b919050565b60008060408385031215620000d857600080fd5b620000e383620000a7565b9150620000f360208401620000a7565b90509250929050565b60805160a051613c5762000153600039600081816105470152818161241e01526124b30152600081816105e101528181611aa601528181611ae6015281816122d90152818161235501526123a10152613c576000f3fe6080604052600436106101f95760003560e01c80639dd41df21161010d578063eb1432f0116100a0578063f3995c671161006f578063f3995c6714610589578063f44e537a1461059c578063fb689088146105bc578063fbfa77cf146105cf578063fc31d54a1461060357600080fd5b8063eb1432f01461050f578063ec26c55f14610522578063f242862114610535578063f2fde38b1461056957600080fd5b8063b2118a8d116100dc578063b2118a8d14610493578063b956b3fb146104b3578063c2e3140a146104e9578063d7570e45146104fc57600080fd5b80639dd41df21461042d578063a4a78f0c14610440578063ac9650d814610453578063ad271fa31461047357600080fd5b806353c43f15116101905780636cc781cd1161015f5780636cc781cd146103b4578063715018a6146103c75780637b2151e5146103dc5780637d10c9d6146103ef5780638da5cb5b1461040f57600080fd5b806353c43f15146103425780636291027c14610362578063688ee44c146103825780636c57f5a91461039557600080fd5b8063353766c6116101cc578063353766c61461029657806339be5126146102c35780634659a494146102e45780634f25b858146102f757600080fd5b806303fffa52146101fe578063099a04e5146102275780632b4abadb146102495780632f2770db14610281575b600080fd5b61021161020c366004612aa8565b610616565b60405161021e9190612b13565b60405180910390f35b34801561023357600080fd5b50610247610242366004612b35565b610770565b005b34801561025557600080fd5b50610269610264366004612b35565b610791565b6040516001600160a01b03909116815260200161021e565b34801561028d57600080fd5b506102476107c9565b3480156102a257600080fd5b506102b66102b1366004612c48565b61080d565b60405161021e9190612d32565b6102d66102d1366004612ea9565b61092f565b60405190815260200161021e565b6102476102f2366004612fa7565b610af9565b34801561030357600080fd5b50610332610312366004613001565b600160209081526000928352604080842090915290825290205460ff1681565b604051901515815260200161021e565b34801561034e57600080fd5b5061021161035d36600461303a565b610b8e565b34801561036e57600080fd5b5061024761037d3660046130d6565b610be5565b610247610390366004613129565b610c83565b3480156103a157600080fd5b50600054600160a01b900460ff16610332565b6102476103c2366004613129565b610d0d565b3480156103d357600080fd5b50610247610d7c565b6102116103ea366004612aa8565b610d90565b3480156103fb57600080fd5b5061021161040a3660046131aa565b610e99565b34801561041b57600080fd5b506000546001600160a01b0316610269565b61026961043b36600461326c565b610f69565b61024761044e366004612fa7565b61100d565b6104666104613660046132c0565b61109b565b60405161021e9190613351565b34801561047f57600080fd5b506102b661048e3660046133b5565b6111e7565b34801561049f57600080fd5b506102476104ae366004613481565b611299565b3480156104bf57600080fd5b506102d66104ce3660046134c2565b6001600160a01b031660009081526002602052604090205490565b6102476104f7366004612fa7565b6113dc565b61021161050a3660046134e6565b611460565b6102d661051d366004613533565b6114a9565b6102116105303660046134e6565b6114f1565b34801561054157600080fd5b506102697f000000000000000000000000000000000000000000000000000000000000000081565b34801561057557600080fd5b506102476105843660046134c2565b611582565b610247610597366004612fa7565b6115fb565b3480156105a857600080fd5b506102476105b73660046130d6565b611633565b6102d66105ca366004612ea9565b6116a5565b3480156105db57600080fd5b506102697f000000000000000000000000000000000000000000000000000000000000000081565b6102d6610611366004613533565b6116ee565b6040805180820190915260008082526020820152600054600160a01b900460ff161561065d5760405162461bcd60e51b81526004016106549061360d565b60405180910390fd5b828042111561067f57604051630407b05b60e31b815260040160405180910390fd5b61068c60208401846134c2565b6001600160a01b031663d505accf3330602087013560408801356106b660808a0160608b0161363b565b89608001358a60a001356040518863ffffffff1660e01b81526004016106e29796959493929190613656565b600060405180830381600087803b1580156106fc57600080fd5b505af1158015610710573d6000803e3d6000fd5b5050505061071e86866117cd565b9150336001600160a01b03167f36940ced1bc220ffc5a263cf54d210bb779876c0e43101ffd21cb1eb032e8cbc87846020015160405161075f929190613697565b60405180910390a250949350505050565b610778611bb4565b806000036107835750475b61078d8282611c1d565b5050565b600260205281600052604060002081815481106107ad57600080fd5b6000918252602090912001546001600160a01b03169150829050565b6107d1611bb4565b6000805460ff60a01b1916600160a01b1781556040517f75884cdadc4a89e8b545db800057f06ec7f5338a08183c7ba515f2bfdd9fe1e19190a1565b600054606090600160a01b900460ff161561083a5760405162461bcd60e51b81526004016106549061360d565b815160208301516040808501519051630b00663360e21b81526001600160a01b038f1693632c0198cc9361087793339330939291906004016137be565b600060405180830381600087803b15801561089157600080fd5b505af11580156108a5573d6000803e3d6000fd5b505050506109208b8b8b8b8080601f01602080910402602001604051908101604052809392919081815260200183838082843760009201919091525050604080516020808f0282810182019093528e82529093508e92508d9182918501908490808284376000920191909152508c92508b91508a9050611c96565b9b9a5050505050505050505050565b60008054600160a01b900460ff161561095a5760405162461bcd60e51b81526004016106549061360d565b82516040805160c081018252600080825260208201819052918101829052606081018290526080810182905260a08101829052905b82811015610a40578581815181106109a9576109a96137f8565b6020026020010151915081600001516001600160a01b031663d505accf333085602001518660400151876060015188608001518960a001516040518863ffffffff1660e01b8152600401610a039796959493929190613656565b600060405180830381600087803b158015610a1d57600080fd5b505af1158015610a31573d6000803e3d6000fd5b5050505080600101905061098f565b50610a528e8e8e8e8e8e8e8e8e611e0e565b92506001600160a01b03841615610ae8576000610a718b8d018d613001565b9150506001600160a01b03811615610ae657604051637acb775760e01b8152600481018590526001600160a01b038281166024830152861690637acb775790604401600060405180830381600087803b158015610acd57600080fd5b505af1158015610ae1573d6000803e3d6000fd5b505050505b505b50509b9a5050505050505050505050565b6040516323f2ebc360e21b815233600482015230602482015260448101869052606481018590526001608482015260ff841660a482015260c4810183905260e481018290526001600160a01b03871690638fcbaf0c90610104015b600060405180830381600087803b158015610b6e57600080fd5b505af1158015610b82573d6000803e3d6000fd5b50505050505050505050565b6040805180820190915260008082526020820152600054600160a01b900460ff1615610bcc5760405162461bcd60e51b81526004016106549061360d565b610bda878787878787611f2d565b979650505050505050565b600054600160a01b900460ff1615610c0f5760405162461bcd60e51b81526004016106549061360d565b610c1a848484612055565b604051637acb775760e01b8152600481018390526001600160a01b038281166024830152851690637acb7757906044015b600060405180830381600087803b158015610c6557600080fd5b505af1158015610c79573d6000803e3d6000fd5b5050505050505050565b604051636eb1769f60e11b815233600482015230602482015284906001600160a01b0387169063dd62ed3e90604401602060405180830381865afa158015610ccf573d6000803e3d6000fd5b505050506040513d601f19601f82011682018060405250810190610cf3919061380e565b1015610d0657610d068585858585610d0d565b5050505050565b604051630b00663360e21b81526001600160a01b03861690632c0198cc90610d4390339030908990899089908990600401613850565b600060405180830381600087803b158015610d5d57600080fd5b505af1158015610d71573d6000803e3d6000fd5b505050505050505050565b610d84611bb4565b610d8e60006120e7565b565b6040805180820190915260008082526020820152600054600160a01b900460ff1615610dce5760405162461bcd60e51b81526004016106549061360d565b8280421115610df057604051630407b05b60e31b815260040160405180910390fd5b610dfd60208401846134c2565b6001600160a01b031663d505accf333060208701356040880135610e2760808a0160608b0161363b565b89608001358a60a001356040518863ffffffff1660e01b8152600401610e539796959493929190613656565b600060405180830381600087803b158015610e6d57600080fd5b505af1158015610e81573d6000803e3d6000fd5b50505050610e8f86866117cd565b9695505050505050565b6040805180820190915260008082526020820152600054600160a01b900460ff1615610ed75760405162461bcd60e51b81526004016106549061360d565b6001600160a01b038816632c0198cc333085356020870135610efc604089018961388b565b6040518763ffffffff1660e01b8152600401610f1d96959493929190613850565b600060405180830381600087803b158015610f3757600080fd5b505af1158015610f4b573d6000803e3d6000fd5b50505050610f5d888888888888611f2d565b98975050505050505050565b60008054600160a01b900460ff1615610f945760405162461bcd60e51b81526004016106549061360d565b6040516313b8683f60e01b81526001600160a01b038516906313b8683f90610fc290869086906004016138d1565b6020604051808303816000875af1158015610fe1573d6000803e3d6000fd5b505050506040513d601f19601f8201168201806040525081019061100591906138e5565b949350505050565b604051636eb1769f60e11b8152336004820152306024820152600019906001600160a01b0388169063dd62ed3e90604401602060405180830381865afa15801561105b573d6000803e3d6000fd5b505050506040513d601f19601f8201168201806040525081019061107f919061380e565b101561109357611093868686868686610af9565b505050505050565b6060816001600160401b038111156110b5576110b5612708565b6040519080825280602002602001820160405280156110e857816020015b60608152602001906001900390816110d35790505b50905060005b828110156111e0576000803086868581811061110c5761110c6137f8565b905060200281019061111e919061388b565b60405161112c929190613902565b600060405180830381855af49150503d8060008114611167576040519150601f19603f3d011682016040523d82523d6000602084013e61116c565b606091505b5091509150816111b85760448151101561118557600080fd5b6004810190508080602001905181019061119f9190613912565b60405162461bcd60e51b8152600401610654919061397f565b808484815181106111cb576111cb6137f8565b602090810291909101015250506001016110ee565b5092915050565b600054606090600160a01b900460ff16156112145760405162461bcd60e51b81526004016106549061360d565b61128b8a8a8a8a8080601f01602080910402602001604051908101604052809392919081815260200183838082843760009201919091525050604080516020808e0282810182019093528d82529093508d92508c9182918501908490808284376000920191909152508b92508a9150899050611c96565b9a9950505050505050505050565b6112a1611bb4565b6001600160a01b038216158015906112cb5750826001600160a01b0316826001600160a01b031614155b6113045760405162461bcd60e51b815260206004820152600a602482015269496e76616c696420746f60b01b6044820152606401610654565b6040516370a0823160e01b81523060048201526000906001600160a01b038516906370a0823190602401602060405180830381865afa15801561134b573d6000803e3d6000fd5b505050506040513d601f19601f8201168201806040525081019061136f919061380e565b90508160000361138957611384848483612137565b6113d6565b808211156113cb5760405162461bcd60e51b815260206004820152600f60248201526e457863656564732062616c616e636560881b6044820152606401610654565b6113d6848484612137565b50505050565b604051636eb1769f60e11b815233600482015230602482015285906001600160a01b0388169063dd62ed3e90604401602060405180830381865afa158015611428573d6000803e3d6000fd5b505050506040513d601f19601f8201168201806040525081019061144c919061380e565b1015611093576110938686868686866115fb565b6040805180820190915260008082526020820152818042111561149657604051630407b05b60e31b815260040160405180910390fd5b6114a085856117cd565b95945050505050565b60008054600160a01b900460ff16156114d45760405162461bcd60e51b81526004016106549061360d565b6114e68b8b8b8b8b8b8b8b8b8b6116ee565b905061128b8b612221565b6040805180820190915260008082526020820152818042111561152757604051630407b05b60e31b815260040160405180910390fd5b61153185856117cd565b9150336001600160a01b03167fbf6987a1932ef5be105a5a977df78e2b879ace22bde38eb46e10372a9a9673d5868460200151604051611572929190613697565b60405180910390a2509392505050565b61158a611bb4565b6001600160a01b0381166115ef5760405162461bcd60e51b815260206004820152602660248201527f4f776e61626c653a206e6577206f776e657220697320746865207a65726f206160448201526564647265737360d01b6064820152608401610654565b6115f8816120e7565b50565b60405163d505accf60e01b81526001600160a01b0387169063d505accf90610b5490339030908a908a908a908a908a90600401613656565b600054600160a01b900460ff161561165d5760405162461bcd60e51b81526004016106549061360d565b611668848484612055565b60405163294091cd60e01b81526001600160a01b03848116600483015260248201849052828116604483015285169063294091cd90606401610c4b565b60008054600160a01b900460ff16156116d05760405162461bcd60e51b81526004016106549061360d565b6116e38c8c8c8c8c8c8c8c8c8c8c61092f565b90506109208c612221565b60008054600160a01b900460ff16156117195760405162461bcd60e51b81526004016106549061360d565b61172a8b8b8b8b8b8b8b8b8b611e0e565b90506001600160a01b0382161561128b576000611749888a018a613001565b9150506001600160a01b038116156117be57604051637acb775760e01b8152600481018390526001600160a01b038281166024830152841690637acb775790604401600060405180830381600087803b1580156117a557600080fd5b505af11580156117b9573d6000803e3d6000fd5b505050505b509a9950505050505050505050565b60408051808201909152600080825260208201528251604080516060808201835280825260006020808401829052838501829052845160a08101865282815290810183905293840181905283820191909152608083015290604080518082019091526000808252602082015260005b84811015611b8457878181518110611856576118566137f8565b602002602001015193508360000151600081518110611877576118776137f8565b6020026020010151925061189d846020015184600001518660400151866080015161229e565b83515160005b6118ae6001836139a8565b81036119685784600001516001600160a01b0316637132bb7f866020015133886040015189606001516040518563ffffffff1660e01b81526004016118f694939291906139bb565b60408051808303816000875af1158015611914573d6000803e3d6000fd5b505050506040513d601f19601f820116820180604052508101906119389190613a51565b80516001600160a01b03168952602080820151908a0180519296509091611960908390613a6d565b905250611b7a565b84600001516001600160a01b0316637132bb7f866020015133886040015189606001516040518563ffffffff1660e01b81526004016119aa94939291906139bb565b60408051808303816000875af11580156119c8573d6000803e3d6000fd5b505050506040513d601f19601f820116820180604052508101906119ec9190613a51565b608086015187518051929650600190930192909183908110611a1057611a106137f8565b6020026020010151955080158015611a29575085608001515b15611b745784516040516370a0823160e01b81523060048201526000916001600160a01b0316906370a0823190602401602060405180830381865afa158015611a76573d6000803e3d6000fd5b505050506040513d601f19601f82011682018060405250810190611a9a919061380e565b9050611acb86600001517f000000000000000000000000000000000000000000000000000000000000000083612137565b85518751604051631f2c13e160e31b81526001600160a01b037f0000000000000000000000000000000000000000000000000000000000000000169263f9609f0892611b2e926004016001600160a01b0392831681529116602082015260400190565b6020604051808303816000875af1158015611b4d573d6000803e3d6000fd5b505050506040513d601f19601f82011682018060405250810190611b71919061380e565b50505b506118a3565b505060010161183c565b508585602001511015611baa5760405163c9f52c7160e01b815260040160405180910390fd5b5050505092915050565b33611bc76000546001600160a01b031690565b6001600160a01b031614610d8e5760405162461bcd60e51b815260206004820181905260248201527f4f776e61626c653a2063616c6c6572206973206e6f7420746865206f776e65726044820152606401610654565b6000826001600160a01b03168260405160006040518083038185875af1925050503d8060008114611c6a576040519150601f19603f3d011682016040523d82523d6000602084013e611c6f565b606091505b5050905080611c915760405163b12d13eb60e01b815260040160405180910390fd5b505050565b6040516323b872dd60e01b81523360048201526001600160a01b03881660248201819052604482018890526060916323b872dd906064016020604051808303816000875af1158015611cec573d6000803e3d6000fd5b505050506040513d601f19601f82011682018060405250810190611d109190613a80565b5060405163f66eab5b60e01b81526001600160a01b0389169063f66eab5b90611d459089903390899089908990600401613a9d565b6000604051808303816000875af1158015611d64573d6000803e3d6000fd5b505050506040513d6000823e601f3d908101601f19168201604052611d8c9190810190613ada565b805190915060005b81811015611e01576000838281518110611db057611db06137f8565b60200260200101519050878281518110611dcc57611dcc6137f8565b602002602001015181602001511015611df85760405163c9f52c7160e01b815260040160405180910390fd5b50600101611d94565b5050979650505050505050565b60408051606081018252600080825260208201819052918101829052889060005b82811015611e81578b8b82818110611e4957611e496137f8565b905060600201803603810190611e5f9190613b6f565b9150611e7982600001518e8460200151856040015161229e565b600101611e2f565b506040516301f3943560e11b81526001600160a01b038d16906303e7286a90611eb8908c908c9033908c908c908c90600401613bba565b6020604051808303816000875af1158015611ed7573d6000803e3d6000fd5b505050506040513d601f19601f82011682018060405250810190611efb919061380e565b925086831015611f1e5760405163124ca15f60e11b815260040160405180910390fd5b50509998505050505050505050565b60408051808201909152600080825260208201526040516323b872dd60e01b81523360048201526001600160a01b0388166024820181905260448201889052906323b872dd906064016020604051808303816000875af1158015611f95573d6000803e3d6000fd5b505050506040513d601f19601f82011682018060405250810190611fb99190613a80565b506040516313d85e7560e11b81526001600160a01b038816906327b0bcea90611fec9088903390889088906004016139bb565b60408051808303816000875af115801561200a573d6000803e3d6000fd5b505050506040513d601f19601f8201168201806040525081019061202e9190613a51565b90508381602001511015610e8f5760405163c9f52c7160e01b815260040160405180910390fd5b6120618233308461252c565b604051636eb1769f60e11b81523060048201526001600160a01b03848116602483015282919084169063dd62ed3e90604401602060405180830381865afa1580156120b0573d6000803e3d6000fd5b505050506040513d601f19601f820116820180604052508101906120d4919061380e565b1015611c9157611c91828460001961261e565b600080546001600160a01b038381166001600160a01b0319831681178455604051919092169283917f8be0079c531659141344cd1fd0a4f28419497f9722a3daafe3b4186f6b6457e09190a35050565b604080516001600160a01b038481166024830152604480830185905283518084039091018152606490920183526020820180516001600160e01b031663a9059cbb60e01b17905291516000928392908716916121939190613c05565b6000604051808303816000865af19150503d80600081146121d0576040519150601f19603f3d011682016040523d82523d6000602084013e6121d5565b606091505b509150915081158061220357508051158015906122035750808060200190518101906122019190613a80565b155b15610d06576040516312171d8360e31b815260040160405180910390fd5b6001600160a01b038116600090815260016020908152604080832033845290915290205460ff166115f8576001600160a01b031660008181526001602081815260408084203385528252808420805460ff1916841790556002825283208054928301815583529091200180546001600160a01b0319169091179055565b801561240e576001600160a01b03841661234e57604051631f2c13e160e31b81526001600160a01b03858116600483015284811660248301527f0000000000000000000000000000000000000000000000000000000000000000169063f9609f0890849060440160206040518083038185885af1158015612323573d6000803e3d6000fd5b50505050506040513d601f19601f82011682018060405250810190612348919061380e565b506113d6565b61237a84337f00000000000000000000000000000000000000000000000000000000000000008561252c565b604051631f2c13e160e31b81526001600160a01b03858116600483015284811660248301527f0000000000000000000000000000000000000000000000000000000000000000169063f9609f08906044016020604051808303816000875af11580156123ea573d6000803e3d6000fd5b505050506040513d601f19601f82011682018060405250810190612348919061380e565b6001600160a01b038416612524577f00000000000000000000000000000000000000000000000000000000000000006001600160a01b031663d0e30db0836040518263ffffffff1660e01b81526004016000604051808303818588803b15801561247757600080fd5b505af115801561248b573d6000803e3d6000fd5b505060405163a9059cbb60e01b81526001600160a01b038781166004830152602482018790527f000000000000000000000000000000000000000000000000000000000000000016935063a9059cbb925060440190506020604051808303816000875af1158015612500573d6000803e3d6000fd5b505050506040513d601f19601f820116820180604052508101906123489190613a80565b6113d6843385855b604080516001600160a01b0385811660248301528481166044830152606480830185905283518084039091018152608490920183526020820180516001600160e01b03166323b872dd60e01b17905291516000928392908816916125909190613c05565b6000604051808303816000865af19150503d80600081146125cd576040519150601f19603f3d011682016040523d82523d6000602084013e6125d2565b606091505b509150915081158061260057508051158015906126005750808060200190518101906125fe9190613a80565b155b1561109357604051631e4e7d0960e21b815260040160405180910390fd5b604080516001600160a01b038481166024830152604480830185905283518084039091018152606490920183526020820180516001600160e01b031663095ea7b360e01b179052915160009283929087169161267a9190613c05565b6000604051808303816000865af19150503d80600081146126b7576040519150601f19603f3d011682016040523d82523d6000602084013e6126bc565b606091505b50915091508115806126ea57508051158015906126ea5750808060200190518101906126e89190613a80565b155b15610d0657604051633e3f8f7360e01b815260040160405180910390fd5b634e487b7160e01b600052604160045260246000fd5b604051606081016001600160401b038111828210171561274057612740612708565b60405290565b60405160a081016001600160401b038111828210171561274057612740612708565b60405160c081016001600160401b038111828210171561274057612740612708565b604051601f8201601f191681016001600160401b03811182821017156127b2576127b2612708565b604052919050565b60006001600160401b038211156127d3576127d3612708565b5060051b60200190565b6001600160a01b03811681146115f857600080fd5b80356127fd816127dd565b919050565b60006001600160401b0382111561281b5761281b612708565b50601f01601f191660200190565b600082601f83011261283a57600080fd5b813561284d61284882612802565b61278a565b81815284602083860101111561286257600080fd5b816020850160208301376000918101602001919091529392505050565b80151581146115f857600080fd5b80356127fd8161287f565b600082601f8301126128a957600080fd5b6128b661284883356127ba565b82358082526020808301929160051b8501018510156128d457600080fd5b602084015b6020853560051b860101811015612a9f576001600160401b03808235111561290057600080fd5b6060823587018803601f1901121561291757600080fd5b61291f61271e565b816020843589010135111561293357600080fd5b82358701602081013501603f8101891361294c57600080fd5b61295c61284860208301356127ba565b602082810135808352908201919060051b83016040018b101561297e57600080fd5b604083015b6040602085013560051b850101811015612a625785813511156129a557600080fd5b8035840160a0818e03603f190112156129bd57600080fd5b6129c5612746565b6129d260408301356127dd565b6040820135815287606083013511156129ea57600080fd5b6129fd8e60406060850135850101612829565b6020820152612a0f60808301356127dd565b608082013560408201528760a08301351115612a2a57600080fd5b612a3d8e604060a0850135850101612829565b6060820152612a4e60c0830161288d565b608082015284525060209283019201612983565b50835250612a779050833588016040016127f2565b60208201526060833588010135604082015280855250506020830192506020810190506128d9565b50949350505050565b600080600080848603610120811215612ac057600080fd5b85356001600160401b03811115612ad657600080fd5b612ae288828901612898565b955050602086013593506040860135925060c0605f1982011215612b0557600080fd5b509295919450926060019150565b81516001600160a01b0316815260208083015190820152604081015b92915050565b60008060408385031215612b4857600080fd5b8235612b53816127dd565b946020939093013593505050565b60008083601f840112612b7357600080fd5b5081356001600160401b03811115612b8a57600080fd5b602083019150836020828501011115612ba257600080fd5b9250929050565b60008083601f840112612bbb57600080fd5b5081356001600160401b03811115612bd257600080fd5b6020830191508360208260051b8501011115612ba257600080fd5b600060608284031215612bff57600080fd5b612c0761271e565b9050813581526020820135602082015260408201356001600160401b03811115612c3057600080fd5b612c3c84828501612829565b60408301525092915050565b60008060008060008060008060008060e08b8d031215612c6757600080fd5b612c708b6127f2565b995060208b0135985060408b01356001600160401b0380821115612c9357600080fd5b612c9f8e838f01612b61565b909a50985060608d0135915080821115612cb857600080fd5b612cc48e838f01612ba9565b9098509650869150612cd860808e016127f2565b955060a08d0135915080821115612cee57600080fd5b612cfa8e838f01612b61565b909550935060c08d0135915080821115612d1357600080fd5b50612d208d828e01612bed565b9150509295989b9194979a5092959850565b602080825282518282018190526000919060409081850190868401855b82811015612d8557612d7584835180516001600160a01b03168252602090810151910152565b9284019290850190600101612d4f565b5091979650505050505050565b60008083601f840112612da457600080fd5b5081356001600160401b03811115612dbb57600080fd5b602083019150836020606083028501011115612ba257600080fd5b803560ff811681146127fd57600080fd5b600082601f830112612df857600080fd5b81356020612e08612848836127ba565b82815260c09283028501820192828201919087851115612e2757600080fd5b8387015b85811015612e9c5781818a031215612e435760008081fd5b612e4b612768565b8135612e56816127dd565b81528186013586820152604080830135908201526060612e77818401612dd6565b908201526080828101359082015260a080830135908201528452928401928101612e2b565b5090979650505050505050565b60008060008060008060008060008060006101008c8e031215612ecb57600080fd5b612ed48c6127f2565b9a506001600160401b038060208e01351115612eef57600080fd5b612eff8e60208f01358f01612d92565b909b50995060408d0135811015612f1557600080fd5b612f258e60408f01358f01612b61565b909950975060608d01359650612f3d60808e016127f2565b95508060a08e01351115612f5057600080fd5b612f608e60a08f01358f01612b61565b909550935060c08d0135811015612f7657600080fd5b50612f878d60c08e01358e01612de7565b9150612f9560e08d016127f2565b90509295989b509295989b9093969950565b60008060008060008060c08789031215612fc057600080fd5b8635612fcb816127dd565b95506020870135945060408701359350612fe760608801612dd6565b92506080870135915060a087013590509295509295509295565b6000806040838503121561301457600080fd5b823561301f816127dd565b9150602083013561302f816127dd565b809150509250929050565b60008060008060008060c0878903121561305357600080fd5b863561305e816127dd565b95506020870135945060408701356001600160401b038082111561308157600080fd5b61308d8a838b01612829565b955060608901359450608089013591506130a6826127dd565b90925060a088013590808211156130bc57600080fd5b506130c989828a01612829565b9150509295509295509295565b600080600080608085870312156130ec57600080fd5b84356130f7816127dd565b93506020850135613107816127dd565b925060408501359150606085013561311e816127dd565b939692955090935050565b60008060008060006080868803121561314157600080fd5b853561314c816127dd565b9450602086013593506040860135925060608601356001600160401b0381111561317557600080fd5b61318188828901612b61565b969995985093965092949392505050565b6000606082840312156131a457600080fd5b50919050565b600080600080600080600060e0888a0312156131c557600080fd5b87356131d0816127dd565b96506020880135955060408801356001600160401b03808211156131f357600080fd5b6131ff8b838c01612829565b965060608a0135955060808a01359150613218826127dd565b90935060a0890135908082111561322e57600080fd5b61323a8b838c01612829565b935060c08a013591508082111561325057600080fd5b5061325d8a828b01613192565b91505092959891949750929550565b60008060006040848603121561328157600080fd5b833561328c816127dd565b925060208401356001600160401b038111156132a757600080fd5b6132b386828701612b61565b9497909650939450505050565b600080602083850312156132d357600080fd5b82356001600160401b038111156132e957600080fd5b6132f585828601612ba9565b90969095509350505050565b60005b8381101561331c578181015183820152602001613304565b50506000910152565b6000815180845261333d816020860160208601613301565b601f01601f19169290920160200192915050565b600060208083016020845280855180835260408601915060408160051b87010192506020870160005b828110156133a857603f19888603018452613396858351613325565b9450928501929085019060010161337a565b5092979650505050505050565b600080600080600080600080600060c08a8c0312156133d357600080fd5b89356133de816127dd565b985060208a0135975060408a01356001600160401b038082111561340157600080fd5b61340d8d838e01612b61565b909950975060608c013591508082111561342657600080fd5b6134328d838e01612ba9565b909750955060808c01359150613447826127dd565b90935060a08b0135908082111561345d57600080fd5b5061346a8c828d01612b61565b915080935050809150509295985092959850929598565b60008060006060848603121561349657600080fd5b83356134a1816127dd565b925060208401356134b1816127dd565b929592945050506040919091013590565b6000602082840312156134d457600080fd5b81356134df816127dd565b9392505050565b6000806000606084860312156134fb57600080fd5b83356001600160401b0381111561351157600080fd5b61351d86828701612898565b9660208601359650604090950135949350505050565b60008060008060008060008060008060e08b8d03121561355257600080fd5b8a3561355d816127dd565b995060208b01356001600160401b038082111561357957600080fd5b6135858e838f01612d92565b909b50995060408d013591508082111561359e57600080fd5b6135aa8e838f01612b61565b909950975060608d0135965060808d013591506135c6826127dd565b90945060a08c013590808211156135dc57600080fd5b506135e98d828e01612b61565b90945092506135fc905060c08c016127f2565b90509295989b9194979a5092959850565b60208082526014908201527310dbdb9d1c9858dd081a5cc8191a5cd8589b195960621b604082015260600190565b60006020828403121561364d57600080fd5b6134df82612dd6565b6001600160a01b0397881681529590961660208601526040850193909352606084019190915260ff16608083015260a082015260c081019190915260e00190565b6000604082016040835280855180835260608501915060608160051b8601019250602080880160005b838110156137ac57605f1988870301855281518051606080895281519089018190526080600582901b8a01810192870191908a019060005b8181101561377c578b8503607f19018352835180516001600160a01b0390811687528a82015160a08c890181905261373290890182613325565b90508160408401511660408901526060830151915087810360608901526137598183613325565b6080938401511515989093019790975250945092880192918801916001016136f8565b50505050848201516001600160a01b031688860152604091820151919097015293820193908201906001016136c0565b50509490940194909452949350505050565b6001600160a01b03868116825285166020820152604081018490526060810183905260a060808201819052600090610bda90830184613325565b634e487b7160e01b600052603260045260246000fd5b60006020828403121561382057600080fd5b5051919050565b81835281816020850137506000828201602090810191909152601f909101601f19169091010190565b6001600160a01b03878116825286166020820152604081018590526060810184905260a060808201819052600090610f5d9083018486613827565b6000808335601e198436030181126138a257600080fd5b8301803591506001600160401b038211156138bc57600080fd5b602001915036819003821315612ba257600080fd5b602081526000611005602083018486613827565b6000602082840312156138f757600080fd5b81516134df816127dd565b8183823760009101908152919050565b60006020828403121561392457600080fd5b81516001600160401b0381111561393a57600080fd5b8201601f8101841361394b57600080fd5b805161395961284882612802565b81815285602083850101111561396e57600080fd5b6114a0826020830160208601613301565b6020815260006134df6020830184613325565b634e487b7160e01b600052601160045260246000fd5b81810381811115612b2f57612b2f613992565b6080815260006139ce6080830187613325565b6001600160a01b038681166020850152851660408401528281036060840152610bda8185613325565b600060408284031215613a0957600080fd5b604051604081018181106001600160401b0382111715613a2b57613a2b612708565b80604052508091508251613a3e816127dd565b8152602092830151920191909152919050565b600060408284031215613a6357600080fd5b6134df83836139f7565b80820180821115612b2f57612b2f613992565b600060208284031215613a9257600080fd5b81516134df8161287f565b608081526000613ab06080830188613325565b6001600160a01b038781166020850152861660408401528281036060840152610f5d818587613827565b60006020808385031215613aed57600080fd5b82516001600160401b03811115613b0357600080fd5b8301601f81018513613b1457600080fd5b8051613b22612848826127ba565b8082825260208201915060208360061b850101925087831115613b4457600080fd5b6020840193505b82841015610bda57613b5d88856139f7565b82528482019150604084019350613b4b565b600060608284031215613b8157600080fd5b613b8961271e565b8235613b94816127dd565b8152602083810135908201526040830135613bae8161287f565b60408201529392505050565b608081526000613bce60808301888a613827565b6001600160a01b038781166020850152861660408401528281036060840152613bf8818587613827565b9998505050505050505050565b60008251613c17818460208701613301565b919091019291505056fea2646970667358221220732391975ef19022d0f8b52bd5899c0849ac8f3e7effc9e47214afd3b902ab7d64736f6c63430008180033","opcodes":"PUSH1 0xC0 PUSH1 0x40 MSTORE CALLVALUE DUP1 ISZERO PUSH3 0x11 JUMPI PUSH1 0x0 DUP1 REVERT JUMPDEST POP PUSH1 0x40 MLOAD PUSH3 0x3DAA CODESIZE SUB DUP1 PUSH3 0x3DAA DUP4 CODECOPY DUP2 ADD PUSH1 0x40 DUP2 SWAP1 MSTORE PUSH3 0x34 SWAP2 PUSH3 0xC4 JUMP JUMPDEST PUSH3 0x3F CALLER PUSH3 0x57 JUMP JUMPDEST PUSH1 0x1 PUSH1 0x1 PUSH1 0xA0 SHL SUB SWAP2 DUP3 AND PUSH1 0x80 MSTORE AND PUSH1 0xA0 MSTORE PUSH3 0xFC JUMP JUMPDEST PUSH1 0x0 DUP1 SLOAD PUSH1 0x1 PUSH1 0x1 PUSH1 0xA0 SHL SUB DUP4 DUP2 AND PUSH1 0x1 PUSH1 0x1 PUSH1 0xA0 SHL SUB NOT DUP4 AND DUP2 OR DUP5 SSTORE PUSH1 0x40 MLOAD SWAP2 SWAP1 SWAP3 AND SWAP3 DUP4 SWAP2 PUSH32 0x8BE0079C531659141344CD1FD0A4F28419497F9722A3DAAFE3B4186F6B6457E0 SWAP2 SWAP1 LOG3 POP POP JUMP JUMPDEST DUP1 MLOAD PUSH1 0x1 PUSH1 0x1 PUSH1 0xA0 SHL SUB DUP2 AND DUP2 EQ PUSH3 0xBF JUMPI PUSH1 0x0 DUP1 REVERT JUMPDEST SWAP2 SWAP1 POP JUMP JUMPDEST PUSH1 0x0 DUP1 PUSH1 0x40 DUP4 DUP6 SUB SLT ISZERO PUSH3 0xD8 JUMPI PUSH1 0x0 DUP1 REVERT JUMPDEST PUSH3 0xE3 DUP4 PUSH3 0xA7 JUMP JUMPDEST SWAP2 POP PUSH3 0xF3 PUSH1 0x20 DUP5 ADD PUSH3 0xA7 JUMP JUMPDEST SWAP1 POP SWAP3 POP SWAP3 SWAP1 POP JUMP JUMPDEST PUSH1 0x80 MLOAD PUSH1 0xA0 MLOAD PUSH2 0x3C57 PUSH3 0x153 PUSH1 0x0 CODECOPY PUSH1 0x0 DUP2 DUP2 PUSH2 0x547 ADD MSTORE DUP2 DUP2 PUSH2 0x241E ADD MSTORE PUSH2 0x24B3 ADD MSTORE PUSH1 0x0 DUP2 DUP2 PUSH2 0x5E1 ADD MSTORE DUP2 DUP2 PUSH2 0x1AA6 ADD MSTORE DUP2 DUP2 PUSH2 0x1AE6 ADD MSTORE DUP2 DUP2 PUSH2 0x22D9 ADD MSTORE DUP2 DUP2 PUSH2 0x2355 ADD MSTORE PUSH2 0x23A1 ADD MSTORE PUSH2 0x3C57 PUSH1 0x0 RETURN INVALID PUSH1 0x80 PUSH1 0x40 MSTORE PUSH1 0x4 CALLDATASIZE LT PUSH2 0x1F9 JUMPI PUSH1 0x0 CALLDATALOAD PUSH1 0xE0 SHR DUP1 PUSH4 0x9DD41DF2 GT PUSH2 0x10D JUMPI DUP1 PUSH4 0xEB1432F0 GT PUSH2 0xA0 JUMPI DUP1 PUSH4 0xF3995C67 GT PUSH2 0x6F JUMPI DUP1 PUSH4 0xF3995C67 EQ PUSH2 0x589 JUMPI DUP1 PUSH4 0xF44E537A EQ PUSH2 0x59C JUMPI DUP1 PUSH4 0xFB689088 EQ PUSH2 0x5BC JUMPI DUP1 PUSH4 0xFBFA77CF EQ PUSH2 0x5CF JUMPI DUP1 PUSH4 0xFC31D54A EQ PUSH2 0x603 JUMPI PUSH1 0x0 DUP1 REVERT JUMPDEST DUP1 PUSH4 0xEB1432F0 EQ PUSH2 0x50F JUMPI DUP1 PUSH4 0xEC26C55F EQ PUSH2 0x522 JUMPI DUP1 PUSH4 0xF2428621 EQ PUSH2 0x535 JUMPI DUP1 PUSH4 0xF2FDE38B EQ PUSH2 0x569 JUMPI PUSH1 0x0 DUP1 REVERT JUMPDEST DUP1 PUSH4 0xB2118A8D GT PUSH2 0xDC JUMPI DUP1 PUSH4 0xB2118A8D EQ PUSH2 0x493 JUMPI DUP1 PUSH4 0xB956B3FB EQ PUSH2 0x4B3 JUMPI DUP1 PUSH4 0xC2E3140A EQ PUSH2 0x4E9 JUMPI DUP1 PUSH4 0xD7570E45 EQ PUSH2 0x4FC JUMPI PUSH1 0x0 DUP1 REVERT JUMPDEST DUP1 PUSH4 0x9DD41DF2 EQ PUSH2 0x42D JUMPI DUP1 PUSH4 0xA4A78F0C EQ PUSH2 0x440 JUMPI DUP1 PUSH4 0xAC9650D8 EQ PUSH2 0x453 JUMPI DUP1 PUSH4 0xAD271FA3 EQ PUSH2 0x473 JUMPI PUSH1 0x0 DUP1 REVERT JUMPDEST DUP1 PUSH4 0x53C43F15 GT PUSH2 0x190 JUMPI DUP1 PUSH4 0x6CC781CD GT PUSH2 0x15F JUMPI DUP1 PUSH4 0x6CC781CD EQ PUSH2 0x3B4 JUMPI DUP1 PUSH4 0x715018A6 EQ PUSH2 0x3C7 JUMPI DUP1 PUSH4 0x7B2151E5 EQ PUSH2 0x3DC JUMPI DUP1 PUSH4 0x7D10C9D6 EQ PUSH2 0x3EF JUMPI DUP1 PUSH4 0x8DA5CB5B EQ PUSH2 0x40F JUMPI PUSH1 0x0 DUP1 REVERT JUMPDEST DUP1 PUSH4 0x53C43F15 EQ PUSH2 0x342 JUMPI DUP1 PUSH4 0x6291027C EQ PUSH2 0x362 JUMPI DUP1 PUSH4 0x688EE44C EQ PUSH2 0x382 JUMPI DUP1 PUSH4 0x6C57F5A9 EQ PUSH2 0x395 JUMPI PUSH1 0x0 DUP1 REVERT JUMPDEST DUP1 PUSH4 0x353766C6 GT PUSH2 0x1CC JUMPI DUP1 PUSH4 0x353766C6 EQ PUSH2 0x296 JUMPI DUP1 PUSH4 0x39BE5126 EQ PUSH2 0x2C3 JUMPI DUP1 PUSH4 0x4659A494 EQ PUSH2 0x2E4 JUMPI DUP1 PUSH4 0x4F25B858 EQ PUSH2 0x2F7 JUMPI PUSH1 0x0 DUP1 REVERT JUMPDEST DUP1 PUSH4 0x3FFFA52 EQ PUSH2 0x1FE JUMPI DUP1 PUSH4 0x99A04E5 EQ PUSH2 0x227 JUMPI DUP1 PUSH4 0x2B4ABADB EQ PUSH2 0x249 JUMPI DUP1 PUSH4 0x2F2770DB EQ PUSH2 0x281 JUMPI JUMPDEST PUSH1 0x0 DUP1 REVERT JUMPDEST PUSH2 0x211 PUSH2 0x20C CALLDATASIZE PUSH1 0x4 PUSH2 0x2AA8 JUMP JUMPDEST PUSH2 0x616 JUMP JUMPDEST PUSH1 0x40 MLOAD PUSH2 0x21E SWAP2 SWAP1 PUSH2 0x2B13 JUMP JUMPDEST PUSH1 0x40 MLOAD DUP1 SWAP2 SUB SWAP1 RETURN JUMPDEST CALLVALUE DUP1 ISZERO PUSH2 0x233 JUMPI PUSH1 0x0 DUP1 REVERT JUMPDEST POP PUSH2 0x247 PUSH2 0x242 CALLDATASIZE PUSH1 0x4 PUSH2 0x2B35 JUMP JUMPDEST PUSH2 0x770 JUMP JUMPDEST STOP JUMPDEST CALLVALUE DUP1 ISZERO PUSH2 0x255 JUMPI PUSH1 0x0 DUP1 REVERT JUMPDEST POP PUSH2 0x269 PUSH2 0x264 CALLDATASIZE PUSH1 0x4 PUSH2 0x2B35 JUMP JUMPDEST PUSH2 0x791 JUMP JUMPDEST PUSH1 0x40 MLOAD PUSH1 0x1 PUSH1 0x1 PUSH1 0xA0 SHL SUB SWAP1 SWAP2 AND DUP2 MSTORE PUSH1 0x20 ADD PUSH2 0x21E JUMP JUMPDEST CALLVALUE DUP1 ISZERO PUSH2 0x28D JUMPI PUSH1 0x0 DUP1 REVERT JUMPDEST POP PUSH2 0x247 PUSH2 0x7C9 JUMP JUMPDEST CALLVALUE DUP1 ISZERO PUSH2 0x2A2 JUMPI PUSH1 0x0 DUP1 REVERT JUMPDEST POP PUSH2 0x2B6 PUSH2 0x2B1 CALLDATASIZE PUSH1 0x4 PUSH2 0x2C48 JUMP JUMPDEST PUSH2 0x80D JUMP JUMPDEST PUSH1 0x40 MLOAD PUSH2 0x21E SWAP2 SWAP1 PUSH2 0x2D32 JUMP JUMPDEST PUSH2 0x2D6 PUSH2 0x2D1 CALLDATASIZE PUSH1 0x4 PUSH2 0x2EA9 JUMP JUMPDEST PUSH2 0x92F JUMP JUMPDEST PUSH1 0x40 MLOAD SWAP1 DUP2 MSTORE PUSH1 0x20 ADD PUSH2 0x21E JUMP JUMPDEST PUSH2 0x247 PUSH2 0x2F2 CALLDATASIZE PUSH1 0x4 PUSH2 0x2FA7 JUMP JUMPDEST PUSH2 0xAF9 JUMP JUMPDEST CALLVALUE DUP1 ISZERO PUSH2 0x303 JUMPI PUSH1 0x0 DUP1 REVERT JUMPDEST POP PUSH2 0x332 PUSH2 0x312 CALLDATASIZE PUSH1 0x4 PUSH2 0x3001 JUMP JUMPDEST PUSH1 0x1 PUSH1 0x20 SWAP1 DUP2 MSTORE PUSH1 0x0 SWAP3 DUP4 MSTORE PUSH1 0x40 DUP1 DUP5 KECCAK256 SWAP1 SWAP2 MSTORE SWAP1 DUP3 MSTORE SWAP1 KECCAK256 SLOAD PUSH1 0xFF AND DUP2 JUMP JUMPDEST PUSH1 0x40 MLOAD SWAP1 ISZERO ISZERO DUP2 MSTORE PUSH1 0x20 ADD PUSH2 0x21E JUMP JUMPDEST CALLVALUE DUP1 ISZERO PUSH2 0x34E JUMPI PUSH1 0x0 DUP1 REVERT JUMPDEST POP PUSH2 0x211 PUSH2 0x35D CALLDATASIZE PUSH1 0x4 PUSH2 0x303A JUMP JUMPDEST PUSH2 0xB8E JUMP JUMPDEST CALLVALUE DUP1 ISZERO PUSH2 0x36E JUMPI PUSH1 0x0 DUP1 REVERT JUMPDEST POP PUSH2 0x247 PUSH2 0x37D CALLDATASIZE PUSH1 0x4 PUSH2 0x30D6 JUMP JUMPDEST PUSH2 0xBE5 JUMP JUMPDEST PUSH2 0x247 PUSH2 0x390 CALLDATASIZE PUSH1 0x4 PUSH2 0x3129 JUMP JUMPDEST PUSH2 0xC83 JUMP JUMPDEST CALLVALUE DUP1 ISZERO PUSH2 0x3A1 JUMPI PUSH1 0x0 DUP1 REVERT JUMPDEST POP PUSH1 0x0 SLOAD PUSH1 0x1 PUSH1 0xA0 SHL SWAP1 DIV PUSH1 0xFF AND PUSH2 0x332 JUMP JUMPDEST PUSH2 0x247 PUSH2 0x3C2 CALLDATASIZE PUSH1 0x4 PUSH2 0x3129 JUMP JUMPDEST PUSH2 0xD0D JUMP JUMPDEST CALLVALUE DUP1 ISZERO PUSH2 0x3D3 JUMPI PUSH1 0x0 DUP1 REVERT JUMPDEST POP PUSH2 0x247 PUSH2 0xD7C JUMP JUMPDEST PUSH2 0x211 PUSH2 0x3EA CALLDATASIZE PUSH1 0x4 PUSH2 0x2AA8 JUMP JUMPDEST PUSH2 0xD90 JUMP JUMPDEST CALLVALUE DUP1 ISZERO PUSH2 0x3FB JUMPI PUSH1 0x0 DUP1 REVERT JUMPDEST POP PUSH2 0x211 PUSH2 0x40A CALLDATASIZE PUSH1 0x4 PUSH2 0x31AA JUMP JUMPDEST PUSH2 0xE99 JUMP JUMPDEST CALLVALUE DUP1 ISZERO PUSH2 0x41B JUMPI PUSH1 0x0 DUP1 REVERT JUMPDEST POP PUSH1 0x0 SLOAD PUSH1 0x1 PUSH1 0x1 PUSH1 0xA0 SHL SUB AND PUSH2 0x269 JUMP JUMPDEST PUSH2 0x269 PUSH2 0x43B CALLDATASIZE PUSH1 0x4 PUSH2 0x326C JUMP JUMPDEST PUSH2 0xF69 JUMP JUMPDEST PUSH2 0x247 PUSH2 0x44E CALLDATASIZE PUSH1 0x4 PUSH2 0x2FA7 JUMP JUMPDEST PUSH2 0x100D JUMP JUMPDEST PUSH2 0x466 PUSH2 0x461 CALLDATASIZE PUSH1 0x4 PUSH2 0x32C0 JUMP JUMPDEST PUSH2 0x109B JUMP JUMPDEST PUSH1 0x40 MLOAD PUSH2 0x21E SWAP2 SWAP1 PUSH2 0x3351 JUMP JUMPDEST CALLVALUE DUP1 ISZERO PUSH2 0x47F JUMPI PUSH1 0x0 DUP1 REVERT JUMPDEST POP PUSH2 0x2B6 PUSH2 0x48E CALLDATASIZE PUSH1 0x4 PUSH2 0x33B5 JUMP JUMPDEST PUSH2 0x11E7 JUMP JUMPDEST CALLVALUE DUP1 ISZERO PUSH2 0x49F JUMPI PUSH1 0x0 DUP1 REVERT JUMPDEST POP PUSH2 0x247 PUSH2 0x4AE CALLDATASIZE PUSH1 0x4 PUSH2 0x3481 JUMP JUMPDEST PUSH2 0x1299 JUMP JUMPDEST CALLVALUE DUP1 ISZERO PUSH2 0x4BF JUMPI PUSH1 0x0 DUP1 REVERT JUMPDEST POP PUSH2 0x2D6 PUSH2 0x4CE CALLDATASIZE PUSH1 0x4 PUSH2 0x34C2 JUMP JUMPDEST PUSH1 0x1 PUSH1 0x1 PUSH1 0xA0 SHL SUB AND PUSH1 0x0 SWAP1 DUP2 MSTORE PUSH1 0x2 PUSH1 0x20 MSTORE PUSH1 0x40 SWAP1 KECCAK256 SLOAD SWAP1 JUMP JUMPDEST PUSH2 0x247 PUSH2 0x4F7 CALLDATASIZE PUSH1 0x4 PUSH2 0x2FA7 JUMP JUMPDEST PUSH2 0x13DC JUMP JUMPDEST PUSH2 0x211 PUSH2 0x50A CALLDATASIZE PUSH1 0x4 PUSH2 0x34E6 JUMP JUMPDEST PUSH2 0x1460 JUMP JUMPDEST PUSH2 0x2D6 PUSH2 0x51D CALLDATASIZE PUSH1 0x4 PUSH2 0x3533 JUMP JUMPDEST PUSH2 0x14A9 JUMP JUMPDEST PUSH2 0x211 PUSH2 0x530 CALLDATASIZE PUSH1 0x4 PUSH2 0x34E6 JUMP JUMPDEST PUSH2 0x14F1 JUMP JUMPDEST CALLVALUE DUP1 ISZERO PUSH2 0x541 JUMPI PUSH1 0x0 DUP1 REVERT JUMPDEST POP PUSH2 0x269 PUSH32 0x0 DUP2 JUMP JUMPDEST CALLVALUE DUP1 ISZERO PUSH2 0x575 JUMPI PUSH1 0x0 DUP1 REVERT JUMPDEST POP PUSH2 0x247 PUSH2 0x584 CALLDATASIZE PUSH1 0x4 PUSH2 0x34C2 JUMP JUMPDEST PUSH2 0x1582 JUMP JUMPDEST PUSH2 0x247 PUSH2 0x597 CALLDATASIZE PUSH1 0x4 PUSH2 0x2FA7 JUMP JUMPDEST PUSH2 0x15FB JUMP JUMPDEST CALLVALUE DUP1 ISZERO PUSH2 0x5A8 JUMPI PUSH1 0x0 DUP1 REVERT JUMPDEST POP PUSH2 0x247 PUSH2 0x5B7 CALLDATASIZE PUSH1 0x4 PUSH2 0x30D6 JUMP JUMPDEST PUSH2 0x1633 JUMP JUMPDEST PUSH2 0x2D6 PUSH2 0x5CA CALLDATASIZE PUSH1 0x4 PUSH2 0x2EA9 JUMP JUMPDEST PUSH2 0x16A5 JUMP JUMPDEST CALLVALUE DUP1 ISZERO PUSH2 0x5DB JUMPI PUSH1 0x0 DUP1 REVERT JUMPDEST POP PUSH2 0x269 PUSH32 0x0 DUP2 JUMP JUMPDEST PUSH2 0x2D6 PUSH2 0x611 CALLDATASIZE PUSH1 0x4 PUSH2 0x3533 JUMP JUMPDEST PUSH2 0x16EE JUMP JUMPDEST PUSH1 0x40 DUP1 MLOAD DUP1 DUP3 ADD SWAP1 SWAP2 MSTORE PUSH1 0x0 DUP1 DUP3 MSTORE PUSH1 0x20 DUP3 ADD MSTORE PUSH1 0x0 SLOAD PUSH1 0x1 PUSH1 0xA0 SHL SWAP1 DIV PUSH1 0xFF AND ISZERO PUSH2 0x65D JUMPI PUSH1 0x40 MLOAD PUSH3 0x461BCD PUSH1 0xE5 SHL DUP2 MSTORE PUSH1 0x4 ADD PUSH2 0x654 SWAP1 PUSH2 0x360D JUMP JUMPDEST PUSH1 0x40 MLOAD DUP1 SWAP2 SUB SWAP1 REVERT JUMPDEST DUP3 DUP1 TIMESTAMP GT ISZERO PUSH2 0x67F JUMPI PUSH1 0x40 MLOAD PUSH4 0x407B05B PUSH1 0xE3 SHL DUP2 MSTORE PUSH1 0x4 ADD PUSH1 0x40 MLOAD DUP1 SWAP2 SUB SWAP1 REVERT JUMPDEST PUSH2 0x68C PUSH1 0x20 DUP5 ADD DUP5 PUSH2 0x34C2 JUMP JUMPDEST PUSH1 0x1 PUSH1 0x1 PUSH1 0xA0 SHL SUB AND PUSH4 0xD505ACCF CALLER ADDRESS PUSH1 0x20 DUP8 ADD CALLDATALOAD PUSH1 0x40 DUP9 ADD CALLDATALOAD PUSH2 0x6B6 PUSH1 0x80 DUP11 ADD PUSH1 0x60 DUP12 ADD PUSH2 0x363B JUMP JUMPDEST DUP10 PUSH1 0x80 ADD CALLDATALOAD DUP11 PUSH1 0xA0 ADD CALLDATALOAD PUSH1 0x40 MLOAD DUP9 PUSH4 0xFFFFFFFF AND PUSH1 0xE0 SHL DUP2 MSTORE PUSH1 0x4 ADD PUSH2 0x6E2 SWAP8 SWAP7 SWAP6 SWAP5 SWAP4 SWAP3 SWAP2 SWAP1 PUSH2 0x3656 JUMP JUMPDEST PUSH1 0x0 PUSH1 0x40 MLOAD DUP1 DUP4 SUB DUP2 PUSH1 0x0 DUP8 DUP1 EXTCODESIZE ISZERO DUP1 ISZERO PUSH2 0x6FC JUMPI PUSH1 0x0 DUP1 REVERT JUMPDEST POP GAS CALL ISZERO DUP1 ISZERO PUSH2 0x710 JUMPI RETURNDATASIZE PUSH1 0x0 DUP1 RETURNDATACOPY RETURNDATASIZE PUSH1 0x0 REVERT JUMPDEST POP POP POP POP PUSH2 0x71E DUP7 DUP7 PUSH2 0x17CD JUMP JUMPDEST SWAP2 POP CALLER PUSH1 0x1 PUSH1 0x1 PUSH1 0xA0 SHL SUB AND PUSH32 0x36940CED1BC220FFC5A263CF54D210BB779876C0E43101FFD21CB1EB032E8CBC DUP8 DUP5 PUSH1 0x20 ADD MLOAD PUSH1 0x40 MLOAD PUSH2 0x75F SWAP3 SWAP2 SWAP1 PUSH2 0x3697 JUMP JUMPDEST PUSH1 0x40 MLOAD DUP1 SWAP2 SUB SWAP1 LOG2 POP SWAP5 SWAP4 POP POP POP POP JUMP JUMPDEST PUSH2 0x778 PUSH2 0x1BB4 JUMP JUMPDEST DUP1 PUSH1 0x0 SUB PUSH2 0x783 JUMPI POP SELFBALANCE JUMPDEST PUSH2 0x78D DUP3 DUP3 PUSH2 0x1C1D JUMP JUMPDEST POP POP JUMP JUMPDEST PUSH1 0x2 PUSH1 0x20 MSTORE DUP2 PUSH1 0x0 MSTORE PUSH1 0x40 PUSH1 0x0 KECCAK256 DUP2 DUP2 SLOAD DUP2 LT PUSH2 0x7AD JUMPI PUSH1 0x0 DUP1 REVERT JUMPDEST PUSH1 0x0 SWAP2 DUP3 MSTORE PUSH1 0x20 SWAP1 SWAP2 KECCAK256 ADD SLOAD PUSH1 0x1 PUSH1 0x1 PUSH1 0xA0 SHL SUB AND SWAP2 POP DUP3 SWAP1 POP JUMP JUMPDEST PUSH2 0x7D1 PUSH2 0x1BB4 JUMP JUMPDEST PUSH1 0x0 DUP1 SLOAD PUSH1 0xFF PUSH1 0xA0 SHL NOT AND PUSH1 0x1 PUSH1 0xA0 SHL OR DUP2 SSTORE PUSH1 0x40 MLOAD PUSH32 0x75884CDADC4A89E8B545DB800057F06EC7F5338A08183C7BA515F2BFDD9FE1E1 SWAP2 SWAP1 LOG1 JUMP JUMPDEST PUSH1 0x0 SLOAD PUSH1 0x60 SWAP1 PUSH1 0x1 PUSH1 0xA0 SHL SWAP1 DIV PUSH1 0xFF AND ISZERO PUSH2 0x83A JUMPI PUSH1 0x40 MLOAD PUSH3 0x461BCD PUSH1 0xE5 SHL DUP2 MSTORE PUSH1 0x4 ADD PUSH2 0x654 SWAP1 PUSH2 0x360D JUMP JUMPDEST DUP2 MLOAD PUSH1 0x20 DUP4 ADD MLOAD PUSH1 0x40 DUP1 DUP6 ADD MLOAD SWAP1 MLOAD PUSH4 0xB006633 PUSH1 0xE2 SHL DUP2 MSTORE PUSH1 0x1 PUSH1 0x1 PUSH1 0xA0 SHL SUB DUP16 AND SWAP4 PUSH4 0x2C0198CC SWAP4 PUSH2 0x877 SWAP4 CALLER SWAP4 ADDRESS SWAP4 SWAP3 SWAP2 SWAP1 PUSH1 0x4 ADD PUSH2 0x37BE JUMP JUMPDEST PUSH1 0x0 PUSH1 0x40 MLOAD DUP1 DUP4 SUB DUP2 PUSH1 0x0 DUP8 DUP1 EXTCODESIZE ISZERO DUP1 ISZERO PUSH2 0x891 JUMPI PUSH1 0x0 DUP1 REVERT JUMPDEST POP GAS CALL ISZERO DUP1 ISZERO PUSH2 0x8A5 JUMPI RETURNDATASIZE PUSH1 0x0 DUP1 RETURNDATACOPY RETURNDATASIZE PUSH1 0x0 REVERT JUMPDEST POP POP POP POP PUSH2 0x920 DUP12 DUP12 DUP12 DUP12 DUP1 DUP1 PUSH1 0x1F ADD PUSH1 0x20 DUP1 SWAP2 DIV MUL PUSH1 0x20 ADD PUSH1 0x40 MLOAD SWAP1 DUP2 ADD PUSH1 0x40 MSTORE DUP1 SWAP4 SWAP3 SWAP2 SWAP1 DUP2 DUP2 MSTORE PUSH1 0x20 ADD DUP4 DUP4 DUP1 DUP3 DUP5 CALLDATACOPY PUSH1 0x0 SWAP3 ADD SWAP2 SWAP1 SWAP2 MSTORE POP POP PUSH1 0x40 DUP1 MLOAD PUSH1 0x20 DUP1 DUP16 MUL DUP3 DUP2 ADD DUP3 ADD SWAP1 SWAP4 MSTORE DUP15 DUP3 MSTORE SWAP1 SWAP4 POP DUP15 SWAP3 POP DUP14 SWAP2 DUP3 SWAP2 DUP6 ADD SWAP1 DUP5 SWAP1 DUP1 DUP3 DUP5 CALLDATACOPY PUSH1 0x0 SWAP3 ADD SWAP2 SWAP1 SWAP2 MSTORE POP DUP13 SWAP3 POP DUP12 SWAP2 POP DUP11 SWAP1 POP PUSH2 0x1C96 JUMP JUMPDEST SWAP12 SWAP11 POP POP POP POP POP POP POP POP POP POP POP JUMP JUMPDEST PUSH1 0x0 DUP1 SLOAD PUSH1 0x1 PUSH1 0xA0 SHL SWAP1 DIV PUSH1 0xFF AND ISZERO PUSH2 0x95A JUMPI PUSH1 0x40 MLOAD PUSH3 0x461BCD PUSH1 0xE5 SHL DUP2 MSTORE PUSH1 0x4 ADD PUSH2 0x654 SWAP1 PUSH2 0x360D JUMP JUMPDEST DUP3 MLOAD PUSH1 0x40 DUP1 MLOAD PUSH1 0xC0 DUP2 ADD DUP3 MSTORE PUSH1 0x0 DUP1 DUP3 MSTORE PUSH1 0x20 DUP3 ADD DUP2 SWAP1 MSTORE SWAP2 DUP2 ADD DUP3 SWAP1 MSTORE PUSH1 0x60 DUP2 ADD DUP3 SWAP1 MSTORE PUSH1 0x80 DUP2 ADD DUP3 SWAP1 MSTORE PUSH1 0xA0 DUP2 ADD DUP3 SWAP1 MSTORE SWAP1 JUMPDEST DUP3 DUP2 LT ISZERO PUSH2 0xA40 JUMPI DUP6 DUP2 DUP2 MLOAD DUP2 LT PUSH2 0x9A9 JUMPI PUSH2 0x9A9 PUSH2 0x37F8 JUMP JUMPDEST PUSH1 0x20 MUL PUSH1 0x20 ADD ADD MLOAD SWAP2 POP DUP2 PUSH1 0x0 ADD MLOAD PUSH1 0x1 PUSH1 0x1 PUSH1 0xA0 SHL SUB AND PUSH4 0xD505ACCF CALLER ADDRESS DUP6 PUSH1 0x20 ADD MLOAD DUP7 PUSH1 0x40 ADD MLOAD DUP8 PUSH1 0x60 ADD MLOAD DUP9 PUSH1 0x80 ADD MLOAD DUP10 PUSH1 0xA0 ADD MLOAD PUSH1 0x40 MLOAD DUP9 PUSH4 0xFFFFFFFF AND PUSH1 0xE0 SHL DUP2 MSTORE PUSH1 0x4 ADD PUSH2 0xA03 SWAP8 SWAP7 SWAP6 SWAP5 SWAP4 SWAP3 SWAP2 SWAP1 PUSH2 0x3656 JUMP JUMPDEST PUSH1 0x0 PUSH1 0x40 MLOAD DUP1 DUP4 SUB DUP2 PUSH1 0x0 DUP8 DUP1 EXTCODESIZE ISZERO DUP1 ISZERO PUSH2 0xA1D JUMPI PUSH1 0x0 DUP1 REVERT JUMPDEST POP GAS CALL ISZERO DUP1 ISZERO PUSH2 0xA31 JUMPI RETURNDATASIZE PUSH1 0x0 DUP1 RETURNDATACOPY RETURNDATASIZE PUSH1 0x0 REVERT JUMPDEST POP POP POP POP DUP1 PUSH1 0x1 ADD SWAP1 POP PUSH2 0x98F JUMP JUMPDEST POP PUSH2 0xA52 DUP15 DUP15 DUP15 DUP15 DUP15 DUP15 DUP15 DUP15 DUP15 PUSH2 0x1E0E JUMP JUMPDEST SWAP3 POP PUSH1 0x1 PUSH1 0x1 PUSH1 0xA0 SHL SUB DUP5 AND ISZERO PUSH2 0xAE8 JUMPI PUSH1 0x0 PUSH2 0xA71 DUP12 DUP14 ADD DUP14 PUSH2 0x3001 JUMP JUMPDEST SWAP2 POP POP PUSH1 0x1 PUSH1 0x1 PUSH1 0xA0 SHL SUB DUP2 AND ISZERO PUSH2 0xAE6 JUMPI PUSH1 0x40 MLOAD PUSH4 0x7ACB7757 PUSH1 0xE0 SHL DUP2 MSTORE PUSH1 0x4 DUP2 ADD DUP6 SWAP1 MSTORE PUSH1 0x1 PUSH1 0x1 PUSH1 0xA0 SHL SUB DUP3 DUP2 AND PUSH1 0x24 DUP4 ADD MSTORE DUP7 AND SWAP1 PUSH4 0x7ACB7757 SWAP1 PUSH1 0x44 ADD PUSH1 0x0 PUSH1 0x40 MLOAD DUP1 DUP4 SUB DUP2 PUSH1 0x0 DUP8 DUP1 EXTCODESIZE ISZERO DUP1 ISZERO PUSH2 0xACD JUMPI PUSH1 0x0 DUP1 REVERT JUMPDEST POP GAS CALL ISZERO DUP1 ISZERO PUSH2 0xAE1 JUMPI RETURNDATASIZE PUSH1 0x0 DUP1 RETURNDATACOPY RETURNDATASIZE PUSH1 0x0 REVERT JUMPDEST POP POP POP POP JUMPDEST POP JUMPDEST POP POP SWAP12 SWAP11 POP POP POP POP POP POP POP POP POP POP POP JUMP JUMPDEST PUSH1 0x40 MLOAD PUSH4 0x23F2EBC3 PUSH1 0xE2 SHL DUP2 MSTORE CALLER PUSH1 0x4 DUP3 ADD MSTORE ADDRESS PUSH1 0x24 DUP3 ADD MSTORE PUSH1 0x44 DUP2 ADD DUP7 SWAP1 MSTORE PUSH1 0x64 DUP2 ADD DUP6 SWAP1 MSTORE PUSH1 0x1 PUSH1 0x84 DUP3 ADD MSTORE PUSH1 0xFF DUP5 AND PUSH1 0xA4 DUP3 ADD MSTORE PUSH1 0xC4 DUP2 ADD DUP4 SWAP1 MSTORE PUSH1 0xE4 DUP2 ADD DUP3 SWAP1 MSTORE PUSH1 0x1 PUSH1 0x1 PUSH1 0xA0 SHL SUB DUP8 AND SWAP1 PUSH4 0x8FCBAF0C SWAP1 PUSH2 0x104 ADD JUMPDEST PUSH1 0x0 PUSH1 0x40 MLOAD DUP1 DUP4 SUB DUP2 PUSH1 0x0 DUP8 DUP1 EXTCODESIZE ISZERO DUP1 ISZERO PUSH2 0xB6E JUMPI PUSH1 0x0 DUP1 REVERT JUMPDEST POP GAS CALL ISZERO DUP1 ISZERO PUSH2 0xB82 JUMPI RETURNDATASIZE PUSH1 0x0 DUP1 RETURNDATACOPY RETURNDATASIZE PUSH1 0x0 REVERT JUMPDEST POP POP POP POP POP POP POP POP POP POP JUMP JUMPDEST PUSH1 0x40 DUP1 MLOAD DUP1 DUP3 ADD SWAP1 SWAP2 MSTORE PUSH1 0x0 DUP1 DUP3 MSTORE PUSH1 0x20 DUP3 ADD MSTORE PUSH1 0x0 SLOAD PUSH1 0x1 PUSH1 0xA0 SHL SWAP1 DIV PUSH1 0xFF AND ISZERO PUSH2 0xBCC JUMPI PUSH1 0x40 MLOAD PUSH3 0x461BCD PUSH1 0xE5 SHL DUP2 MSTORE PUSH1 0x4 ADD PUSH2 0x654 SWAP1 PUSH2 0x360D JUMP JUMPDEST PUSH2 0xBDA DUP8 DUP8 DUP8 DUP8 DUP8 DUP8 PUSH2 0x1F2D JUMP JUMPDEST SWAP8 SWAP7 POP POP POP POP POP POP POP JUMP JUMPDEST PUSH1 0x0 SLOAD PUSH1 0x1 PUSH1 0xA0 SHL SWAP1 DIV PUSH1 0xFF AND ISZERO PUSH2 0xC0F JUMPI PUSH1 0x40 MLOAD PUSH3 0x461BCD PUSH1 0xE5 SHL DUP2 MSTORE PUSH1 0x4 ADD PUSH2 0x654 SWAP1 PUSH2 0x360D JUMP JUMPDEST PUSH2 0xC1A DUP5 DUP5 DUP5 PUSH2 0x2055 JUMP JUMPDEST PUSH1 0x40 MLOAD PUSH4 0x7ACB7757 PUSH1 0xE0 SHL DUP2 MSTORE PUSH1 0x4 DUP2 ADD DUP4 SWAP1 MSTORE PUSH1 0x1 PUSH1 0x1 PUSH1 0xA0 SHL SUB DUP3 DUP2 AND PUSH1 0x24 DUP4 ADD MSTORE DUP6 AND SWAP1 PUSH4 0x7ACB7757 SWAP1 PUSH1 0x44 ADD JUMPDEST PUSH1 0x0 PUSH1 0x40 MLOAD DUP1 DUP4 SUB DUP2 PUSH1 0x0 DUP8 DUP1 EXTCODESIZE ISZERO DUP1 ISZERO PUSH2 0xC65 JUMPI PUSH1 0x0 DUP1 REVERT JUMPDEST POP GAS CALL ISZERO DUP1 ISZERO PUSH2 0xC79 JUMPI RETURNDATASIZE PUSH1 0x0 DUP1 RETURNDATACOPY RETURNDATASIZE PUSH1 0x0 REVERT JUMPDEST POP POP POP POP POP POP POP POP JUMP JUMPDEST PUSH1 0x40 MLOAD PUSH4 0x6EB1769F PUSH1 0xE1 SHL DUP2 MSTORE CALLER PUSH1 0x4 DUP3 ADD MSTORE ADDRESS PUSH1 0x24 DUP3 ADD MSTORE DUP5 SWAP1 PUSH1 0x1 PUSH1 0x1 PUSH1 0xA0 SHL SUB DUP8 AND SWAP1 PUSH4 0xDD62ED3E SWAP1 PUSH1 0x44 ADD PUSH1 0x20 PUSH1 0x40 MLOAD DUP1 DUP4 SUB DUP2 DUP7 GAS STATICCALL ISZERO DUP1 ISZERO PUSH2 0xCCF JUMPI RETURNDATASIZE PUSH1 0x0 DUP1 RETURNDATACOPY RETURNDATASIZE PUSH1 0x0 REVERT JUMPDEST POP POP POP POP PUSH1 0x40 MLOAD RETURNDATASIZE PUSH1 0x1F NOT PUSH1 0x1F DUP3 ADD AND DUP3 ADD DUP1 PUSH1 0x40 MSTORE POP DUP2 ADD SWAP1 PUSH2 0xCF3 SWAP2 SWAP1 PUSH2 0x380E JUMP JUMPDEST LT ISZERO PUSH2 0xD06 JUMPI PUSH2 0xD06 DUP6 DUP6 DUP6 DUP6 DUP6 PUSH2 0xD0D JUMP JUMPDEST POP POP POP POP POP JUMP JUMPDEST PUSH1 0x40 MLOAD PUSH4 0xB006633 PUSH1 0xE2 SHL DUP2 MSTORE PUSH1 0x1 PUSH1 0x1 PUSH1 0xA0 SHL SUB DUP7 AND SWAP1 PUSH4 0x2C0198CC SWAP1 PUSH2 0xD43 SWAP1 CALLER SWAP1 ADDRESS SWAP1 DUP10 SWAP1 DUP10 SWAP1 DUP10 SWAP1 DUP10 SWAP1 PUSH1 0x4 ADD PUSH2 0x3850 JUMP JUMPDEST PUSH1 0x0 PUSH1 0x40 MLOAD DUP1 DUP4 SUB DUP2 PUSH1 0x0 DUP8 DUP1 EXTCODESIZE ISZERO DUP1 ISZERO PUSH2 0xD5D JUMPI PUSH1 0x0 DUP1 REVERT JUMPDEST POP GAS CALL ISZERO DUP1 ISZERO PUSH2 0xD71 JUMPI RETURNDATASIZE PUSH1 0x0 DUP1 RETURNDATACOPY RETURNDATASIZE PUSH1 0x0 REVERT JUMPDEST POP POP POP POP POP POP POP POP POP JUMP JUMPDEST PUSH2 0xD84 PUSH2 0x1BB4 JUMP JUMPDEST PUSH2 0xD8E PUSH1 0x0 PUSH2 0x20E7 JUMP JUMPDEST JUMP JUMPDEST PUSH1 0x40 DUP1 MLOAD DUP1 DUP3 ADD SWAP1 SWAP2 MSTORE PUSH1 0x0 DUP1 DUP3 MSTORE PUSH1 0x20 DUP3 ADD MSTORE PUSH1 0x0 SLOAD PUSH1 0x1 PUSH1 0xA0 SHL SWAP1 DIV PUSH1 0xFF AND ISZERO PUSH2 0xDCE JUMPI PUSH1 0x40 MLOAD PUSH3 0x461BCD PUSH1 0xE5 SHL DUP2 MSTORE PUSH1 0x4 ADD PUSH2 0x654 SWAP1 PUSH2 0x360D JUMP JUMPDEST DUP3 DUP1 TIMESTAMP GT ISZERO PUSH2 0xDF0 JUMPI PUSH1 0x40 MLOAD PUSH4 0x407B05B PUSH1 0xE3 SHL DUP2 MSTORE PUSH1 0x4 ADD PUSH1 0x40 MLOAD DUP1 SWAP2 SUB SWAP1 REVERT JUMPDEST PUSH2 0xDFD PUSH1 0x20 DUP5 ADD DUP5 PUSH2 0x34C2 JUMP JUMPDEST PUSH1 0x1 PUSH1 0x1 PUSH1 0xA0 SHL SUB AND PUSH4 0xD505ACCF CALLER ADDRESS PUSH1 0x20 DUP8 ADD CALLDATALOAD PUSH1 0x40 DUP9 ADD CALLDATALOAD PUSH2 0xE27 PUSH1 0x80 DUP11 ADD PUSH1 0x60 DUP12 ADD PUSH2 0x363B JUMP JUMPDEST DUP10 PUSH1 0x80 ADD CALLDATALOAD DUP11 PUSH1 0xA0 ADD CALLDATALOAD PUSH1 0x40 MLOAD DUP9 PUSH4 0xFFFFFFFF AND PUSH1 0xE0 SHL DUP2 MSTORE PUSH1 0x4 ADD PUSH2 0xE53 SWAP8 SWAP7 SWAP6 SWAP5 SWAP4 SWAP3 SWAP2 SWAP1 PUSH2 0x3656 JUMP JUMPDEST PUSH1 0x0 PUSH1 0x40 MLOAD DUP1 DUP4 SUB DUP2 PUSH1 0x0 DUP8 DUP1 EXTCODESIZE ISZERO DUP1 ISZERO PUSH2 0xE6D JUMPI PUSH1 0x0 DUP1 REVERT JUMPDEST POP GAS CALL ISZERO DUP1 ISZERO PUSH2 0xE81 JUMPI RETURNDATASIZE PUSH1 0x0 DUP1 RETURNDATACOPY RETURNDATASIZE PUSH1 0x0 REVERT JUMPDEST POP POP POP POP PUSH2 0xE8F DUP7 DUP7 PUSH2 0x17CD JUMP JUMPDEST SWAP7 SWAP6 POP POP POP POP POP POP JUMP JUMPDEST PUSH1 0x40 DUP1 MLOAD DUP1 DUP3 ADD SWAP1 SWAP2 MSTORE PUSH1 0x0 DUP1 DUP3 MSTORE PUSH1 0x20 DUP3 ADD MSTORE PUSH1 0x0 SLOAD PUSH1 0x1 PUSH1 0xA0 SHL SWAP1 DIV PUSH1 0xFF AND ISZERO PUSH2 0xED7 JUMPI PUSH1 0x40 MLOAD PUSH3 0x461BCD PUSH1 0xE5 SHL DUP2 MSTORE PUSH1 0x4 ADD PUSH2 0x654 SWAP1 PUSH2 0x360D JUMP JUMPDEST PUSH1 0x1 PUSH1 0x1 PUSH1 0xA0 SHL SUB DUP9 AND PUSH4 0x2C0198CC CALLER ADDRESS DUP6 CALLDATALOAD PUSH1 0x20 DUP8 ADD CALLDATALOAD PUSH2 0xEFC PUSH1 0x40 DUP10 ADD DUP10 PUSH2 0x388B JUMP JUMPDEST PUSH1 0x40 MLOAD DUP8 PUSH4 0xFFFFFFFF AND PUSH1 0xE0 SHL DUP2 MSTORE PUSH1 0x4 ADD PUSH2 0xF1D SWAP7 SWAP6 SWAP5 SWAP4 SWAP3 SWAP2 SWAP1 PUSH2 0x3850 JUMP JUMPDEST PUSH1 0x0 PUSH1 0x40 MLOAD DUP1 DUP4 SUB DUP2 PUSH1 0x0 DUP8 DUP1 EXTCODESIZE ISZERO DUP1 ISZERO PUSH2 0xF37 JUMPI PUSH1 0x0 DUP1 REVERT JUMPDEST POP GAS CALL ISZERO DUP1 ISZERO PUSH2 0xF4B JUMPI RETURNDATASIZE PUSH1 0x0 DUP1 RETURNDATACOPY RETURNDATASIZE PUSH1 0x0 REVERT JUMPDEST POP POP POP POP PUSH2 0xF5D DUP9 DUP9 DUP9 DUP9 DUP9 DUP9 PUSH2 0x1F2D JUMP JUMPDEST SWAP9 SWAP8 POP POP POP POP POP POP POP POP JUMP JUMPDEST PUSH1 0x0 DUP1 SLOAD PUSH1 0x1 PUSH1 0xA0 SHL SWAP1 DIV PUSH1 0xFF AND ISZERO PUSH2 0xF94 JUMPI PUSH1 0x40 MLOAD PUSH3 0x461BCD PUSH1 0xE5 SHL DUP2 MSTORE PUSH1 0x4 ADD PUSH2 0x654 SWAP1 PUSH2 0x360D JUMP JUMPDEST PUSH1 0x40 MLOAD PUSH4 0x13B8683F PUSH1 0xE0 SHL DUP2 MSTORE PUSH1 0x1 PUSH1 0x1 PUSH1 0xA0 SHL SUB DUP6 AND SWAP1 PUSH4 0x13B8683F SWAP1 PUSH2 0xFC2 SWAP1 DUP7 SWAP1 DUP7 SWAP1 PUSH1 0x4 ADD PUSH2 0x38D1 JUMP JUMPDEST PUSH1 0x20 PUSH1 0x40 MLOAD DUP1 DUP4 SUB DUP2 PUSH1 0x0 DUP8 GAS CALL ISZERO DUP1 ISZERO PUSH2 0xFE1 JUMPI RETURNDATASIZE PUSH1 0x0 DUP1 RETURNDATACOPY RETURNDATASIZE PUSH1 0x0 REVERT JUMPDEST POP POP POP POP PUSH1 0x40 MLOAD RETURNDATASIZE PUSH1 0x1F NOT PUSH1 0x1F DUP3 ADD AND DUP3 ADD DUP1 PUSH1 0x40 MSTORE POP DUP2 ADD SWAP1 PUSH2 0x1005 SWAP2 SWAP1 PUSH2 0x38E5 JUMP JUMPDEST SWAP5 SWAP4 POP POP POP POP JUMP JUMPDEST PUSH1 0x40 MLOAD PUSH4 0x6EB1769F PUSH1 0xE1 SHL DUP2 MSTORE CALLER PUSH1 0x4 DUP3 ADD MSTORE ADDRESS PUSH1 0x24 DUP3 ADD MSTORE PUSH1 0x0 NOT SWAP1 PUSH1 0x1 PUSH1 0x1 PUSH1 0xA0 SHL SUB DUP9 AND SWAP1 PUSH4 0xDD62ED3E SWAP1 PUSH1 0x44 ADD PUSH1 0x20 PUSH1 0x40 MLOAD DUP1 DUP4 SUB DUP2 DUP7 GAS STATICCALL ISZERO DUP1 ISZERO PUSH2 0x105B JUMPI RETURNDATASIZE PUSH1 0x0 DUP1 RETURNDATACOPY RETURNDATASIZE PUSH1 0x0 REVERT JUMPDEST POP POP POP POP PUSH1 0x40 MLOAD RETURNDATASIZE PUSH1 0x1F NOT PUSH1 0x1F DUP3 ADD AND DUP3 ADD DUP1 PUSH1 0x40 MSTORE POP DUP2 ADD SWAP1 PUSH2 0x107F SWAP2 SWAP1 PUSH2 0x380E JUMP JUMPDEST LT ISZERO PUSH2 0x1093 JUMPI PUSH2 0x1093 DUP7 DUP7 DUP7 DUP7 DUP7 DUP7 PUSH2 0xAF9 JUMP JUMPDEST POP POP POP POP POP POP JUMP JUMPDEST PUSH1 0x60 DUP2 PUSH1 0x1 PUSH1 0x1 PUSH1 0x40 SHL SUB DUP2 GT ISZERO PUSH2 0x10B5 JUMPI PUSH2 0x10B5 PUSH2 0x2708 JUMP JUMPDEST PUSH1 0x40 MLOAD SWAP1 DUP1 DUP3 MSTORE DUP1 PUSH1 0x20 MUL PUSH1 0x20 ADD DUP3 ADD PUSH1 0x40 MSTORE DUP1 ISZERO PUSH2 0x10E8 JUMPI DUP2 PUSH1 0x20 ADD JUMPDEST PUSH1 0x60 DUP2 MSTORE PUSH1 0x20 ADD SWAP1 PUSH1 0x1 SWAP1 SUB SWAP1 DUP2 PUSH2 0x10D3 JUMPI SWAP1 POP JUMPDEST POP SWAP1 POP PUSH1 0x0 JUMPDEST DUP3 DUP2 LT ISZERO PUSH2 0x11E0 JUMPI PUSH1 0x0 DUP1 ADDRESS DUP7 DUP7 DUP6 DUP2 DUP2 LT PUSH2 0x110C JUMPI PUSH2 0x110C PUSH2 0x37F8 JUMP JUMPDEST SWAP1 POP PUSH1 0x20 MUL DUP2 ADD SWAP1 PUSH2 0x111E SWAP2 SWAP1 PUSH2 0x388B JUMP JUMPDEST PUSH1 0x40 MLOAD PUSH2 0x112C SWAP3 SWAP2 SWAP1 PUSH2 0x3902 JUMP JUMPDEST PUSH1 0x0 PUSH1 0x40 MLOAD DUP1 DUP4 SUB DUP2 DUP6 GAS DELEGATECALL SWAP2 POP POP RETURNDATASIZE DUP1 PUSH1 0x0 DUP2 EQ PUSH2 0x1167 JUMPI PUSH1 0x40 MLOAD SWAP2 POP PUSH1 0x1F NOT PUSH1 0x3F RETURNDATASIZE ADD AND DUP3 ADD PUSH1 0x40 MSTORE RETURNDATASIZE DUP3 MSTORE RETURNDATASIZE PUSH1 0x0 PUSH1 0x20 DUP5 ADD RETURNDATACOPY PUSH2 0x116C JUMP JUMPDEST PUSH1 0x60 SWAP2 POP JUMPDEST POP SWAP2 POP SWAP2 POP DUP2 PUSH2 0x11B8 JUMPI PUSH1 0x44 DUP2 MLOAD LT ISZERO PUSH2 0x1185 JUMPI PUSH1 0x0 DUP1 REVERT JUMPDEST PUSH1 0x4 DUP2 ADD SWAP1 POP DUP1 DUP1 PUSH1 0x20 ADD SWAP1 MLOAD DUP2 ADD SWAP1 PUSH2 0x119F SWAP2 SWAP1 PUSH2 0x3912 JUMP JUMPDEST PUSH1 0x40 MLOAD PUSH3 0x461BCD PUSH1 0xE5 SHL DUP2 MSTORE PUSH1 0x4 ADD PUSH2 0x654 SWAP2 SWAP1 PUSH2 0x397F JUMP JUMPDEST DUP1 DUP5 DUP5 DUP2 MLOAD DUP2 LT PUSH2 0x11CB JUMPI PUSH2 0x11CB PUSH2 0x37F8 JUMP JUMPDEST PUSH1 0x20 SWAP1 DUP2 MUL SWAP2 SWAP1 SWAP2 ADD ADD MSTORE POP POP PUSH1 0x1 ADD PUSH2 0x10EE JUMP JUMPDEST POP SWAP3 SWAP2 POP POP JUMP JUMPDEST PUSH1 0x0 SLOAD PUSH1 0x60 SWAP1 PUSH1 0x1 PUSH1 0xA0 SHL SWAP1 DIV PUSH1 0xFF AND ISZERO PUSH2 0x1214 JUMPI PUSH1 0x40 MLOAD PUSH3 0x461BCD PUSH1 0xE5 SHL DUP2 MSTORE PUSH1 0x4 ADD PUSH2 0x654 SWAP1 PUSH2 0x360D JUMP JUMPDEST PUSH2 0x128B DUP11 DUP11 DUP11 DUP11 DUP1 DUP1 PUSH1 0x1F ADD PUSH1 0x20 DUP1 SWAP2 DIV MUL PUSH1 0x20 ADD PUSH1 0x40 MLOAD SWAP1 DUP2 ADD PUSH1 0x40 MSTORE DUP1 SWAP4 SWAP3 SWAP2 SWAP1 DUP2 DUP2 MSTORE PUSH1 0x20 ADD DUP4 DUP4 DUP1 DUP3 DUP5 CALLDATACOPY PUSH1 0x0 SWAP3 ADD SWAP2 SWAP1 SWAP2 MSTORE POP POP PUSH1 0x40 DUP1 MLOAD PUSH1 0x20 DUP1 DUP15 MUL DUP3 DUP2 ADD DUP3 ADD SWAP1 SWAP4 MSTORE DUP14 DUP3 MSTORE SWAP1 SWAP4 POP DUP14 SWAP3 POP DUP13 SWAP2 DUP3 SWAP2 DUP6 ADD SWAP1 DUP5 SWAP1 DUP1 DUP3 DUP5 CALLDATACOPY PUSH1 0x0 SWAP3 ADD SWAP2 SWAP1 SWAP2 MSTORE POP DUP12 SWAP3 POP DUP11 SWAP2 POP DUP10 SWAP1 POP PUSH2 0x1C96 JUMP JUMPDEST SWAP11 SWAP10 POP POP POP POP POP POP POP POP POP POP JUMP JUMPDEST PUSH2 0x12A1 PUSH2 0x1BB4 JUMP JUMPDEST PUSH1 0x1 PUSH1 0x1 PUSH1 0xA0 SHL SUB DUP3 AND ISZERO DUP1 ISZERO SWAP1 PUSH2 0x12CB JUMPI POP DUP3 PUSH1 0x1 PUSH1 0x1 PUSH1 0xA0 SHL SUB AND DUP3 PUSH1 0x1 PUSH1 0x1 PUSH1 0xA0 SHL SUB AND EQ ISZERO JUMPDEST PUSH2 0x1304 JUMPI PUSH1 0x40 MLOAD PUSH3 0x461BCD PUSH1 0xE5 SHL DUP2 MSTORE PUSH1 0x20 PUSH1 0x4 DUP3 ADD MSTORE PUSH1 0xA PUSH1 0x24 DUP3 ADD MSTORE PUSH10 0x496E76616C696420746F PUSH1 0xB0 SHL PUSH1 0x44 DUP3 ADD MSTORE PUSH1 0x64 ADD PUSH2 0x654 JUMP JUMPDEST PUSH1 0x40 MLOAD PUSH4 0x70A08231 PUSH1 0xE0 SHL DUP2 MSTORE ADDRESS PUSH1 0x4 DUP3 ADD MSTORE PUSH1 0x0 SWAP1 PUSH1 0x1 PUSH1 0x1 PUSH1 0xA0 SHL SUB DUP6 AND SWAP1 PUSH4 0x70A08231 SWAP1 PUSH1 0x24 ADD PUSH1 0x20 PUSH1 0x40 MLOAD DUP1 DUP4 SUB DUP2 DUP7 GAS STATICCALL ISZERO DUP1 ISZERO PUSH2 0x134B JUMPI RETURNDATASIZE PUSH1 0x0 DUP1 RETURNDATACOPY RETURNDATASIZE PUSH1 0x0 REVERT JUMPDEST POP POP POP POP PUSH1 0x40 MLOAD RETURNDATASIZE PUSH1 0x1F NOT PUSH1 0x1F DUP3 ADD AND DUP3 ADD DUP1 PUSH1 0x40 MSTORE POP DUP2 ADD SWAP1 PUSH2 0x136F SWAP2 SWAP1 PUSH2 0x380E JUMP JUMPDEST SWAP1 POP DUP2 PUSH1 0x0 SUB PUSH2 0x1389 JUMPI PUSH2 0x1384 DUP5 DUP5 DUP4 PUSH2 0x2137 JUMP JUMPDEST PUSH2 0x13D6 JUMP JUMPDEST DUP1 DUP3 GT ISZERO PUSH2 0x13CB JUMPI PUSH1 0x40 MLOAD PUSH3 0x461BCD PUSH1 0xE5 SHL DUP2 MSTORE PUSH1 0x20 PUSH1 0x4 DUP3 ADD MSTORE PUSH1 0xF PUSH1 0x24 DUP3 ADD MSTORE PUSH15 0x457863656564732062616C616E6365 PUSH1 0x88 SHL PUSH1 0x44 DUP3 ADD MSTORE PUSH1 0x64 ADD PUSH2 0x654 JUMP JUMPDEST PUSH2 0x13D6 DUP5 DUP5 DUP5 PUSH2 0x2137 JUMP JUMPDEST POP POP POP POP JUMP JUMPDEST PUSH1 0x40 MLOAD PUSH4 0x6EB1769F PUSH1 0xE1 SHL DUP2 MSTORE CALLER PUSH1 0x4 DUP3 ADD MSTORE ADDRESS PUSH1 0x24 DUP3 ADD MSTORE DUP6 SWAP1 PUSH1 0x1 PUSH1 0x1 PUSH1 0xA0 SHL SUB DUP9 AND SWAP1 PUSH4 0xDD62ED3E SWAP1 PUSH1 0x44 ADD PUSH1 0x20 PUSH1 0x40 MLOAD DUP1 DUP4 SUB DUP2 DUP7 GAS STATICCALL ISZERO DUP1 ISZERO PUSH2 0x1428 JUMPI RETURNDATASIZE PUSH1 0x0 DUP1 RETURNDATACOPY RETURNDATASIZE PUSH1 0x0 REVERT JUMPDEST POP POP POP POP PUSH1 0x40 MLOAD RETURNDATASIZE PUSH1 0x1F NOT PUSH1 0x1F DUP3 ADD AND DUP3 ADD DUP1 PUSH1 0x40 MSTORE POP DUP2 ADD SWAP1 PUSH2 0x144C SWAP2 SWAP1 PUSH2 0x380E JUMP JUMPDEST LT ISZERO PUSH2 0x1093 JUMPI PUSH2 0x1093 DUP7 DUP7 DUP7 DUP7 DUP7 DUP7 PUSH2 0x15FB JUMP JUMPDEST PUSH1 0x40 DUP1 MLOAD DUP1 DUP3 ADD SWAP1 SWAP2 MSTORE PUSH1 0x0 DUP1 DUP3 MSTORE PUSH1 0x20 DUP3 ADD MSTORE DUP2 DUP1 TIMESTAMP GT ISZERO PUSH2 0x1496 JUMPI PUSH1 0x40 MLOAD PUSH4 0x407B05B PUSH1 0xE3 SHL DUP2 MSTORE PUSH1 0x4 ADD PUSH1 0x40 MLOAD DUP1 SWAP2 SUB SWAP1 REVERT JUMPDEST PUSH2 0x14A0 DUP6 DUP6 PUSH2 0x17CD JUMP JUMPDEST SWAP6 SWAP5 POP POP POP POP POP JUMP JUMPDEST PUSH1 0x0 DUP1 SLOAD PUSH1 0x1 PUSH1 0xA0 SHL SWAP1 DIV PUSH1 0xFF AND ISZERO PUSH2 0x14D4 JUMPI PUSH1 0x40 MLOAD PUSH3 0x461BCD PUSH1 0xE5 SHL DUP2 MSTORE PUSH1 0x4 ADD PUSH2 0x654 SWAP1 PUSH2 0x360D JUMP JUMPDEST PUSH2 0x14E6 DUP12 DUP12 DUP12 DUP12 DUP12 DUP12 DUP12 DUP12 DUP12 DUP12 PUSH2 0x16EE JUMP JUMPDEST SWAP1 POP PUSH2 0x128B DUP12 PUSH2 0x2221 JUMP JUMPDEST PUSH1 0x40 DUP1 MLOAD DUP1 DUP3 ADD SWAP1 SWAP2 MSTORE PUSH1 0x0 DUP1 DUP3 MSTORE PUSH1 0x20 DUP3 ADD MSTORE DUP2 DUP1 TIMESTAMP GT ISZERO PUSH2 0x1527 JUMPI PUSH1 0x40 MLOAD PUSH4 0x407B05B PUSH1 0xE3 SHL DUP2 MSTORE PUSH1 0x4 ADD PUSH1 0x40 MLOAD DUP1 SWAP2 SUB SWAP1 REVERT JUMPDEST PUSH2 0x1531 DUP6 DUP6 PUSH2 0x17CD JUMP JUMPDEST SWAP2 POP CALLER PUSH1 0x1 PUSH1 0x1 PUSH1 0xA0 SHL SUB AND PUSH32 0xBF6987A1932EF5BE105A5A977DF78E2B879ACE22BDE38EB46E10372A9A9673D5 DUP7 DUP5 PUSH1 0x20 ADD MLOAD PUSH1 0x40 MLOAD PUSH2 0x1572 SWAP3 SWAP2 SWAP1 PUSH2 0x3697 JUMP JUMPDEST PUSH1 0x40 MLOAD DUP1 SWAP2 SUB SWAP1 LOG2 POP SWAP4 SWAP3 POP POP POP JUMP JUMPDEST PUSH2 0x158A PUSH2 0x1BB4 JUMP JUMPDEST PUSH1 0x1 PUSH1 0x1 PUSH1 0xA0 SHL SUB DUP2 AND PUSH2 0x15EF JUMPI PUSH1 0x40 MLOAD PUSH3 0x461BCD PUSH1 0xE5 SHL DUP2 MSTORE PUSH1 0x20 PUSH1 0x4 DUP3 ADD MSTORE PUSH1 0x26 PUSH1 0x24 DUP3 ADD MSTORE PUSH32 0x4F776E61626C653A206E6577206F776E657220697320746865207A65726F2061 PUSH1 0x44 DUP3 ADD MSTORE PUSH6 0x646472657373 PUSH1 0xD0 SHL PUSH1 0x64 DUP3 ADD MSTORE PUSH1 0x84 ADD PUSH2 0x654 JUMP JUMPDEST PUSH2 0x15F8 DUP2 PUSH2 0x20E7 JUMP JUMPDEST POP JUMP JUMPDEST PUSH1 0x40 MLOAD PUSH4 0xD505ACCF PUSH1 0xE0 SHL DUP2 MSTORE PUSH1 0x1 PUSH1 0x1 PUSH1 0xA0 SHL SUB DUP8 AND SWAP1 PUSH4 0xD505ACCF SWAP1 PUSH2 0xB54 SWAP1 CALLER SWAP1 ADDRESS SWAP1 DUP11 SWAP1 DUP11 SWAP1 DUP11 SWAP1 DUP11 SWAP1 DUP11 SWAP1 PUSH1 0x4 ADD PUSH2 0x3656 JUMP JUMPDEST PUSH1 0x0 SLOAD PUSH1 0x1 PUSH1 0xA0 SHL SWAP1 DIV PUSH1 0xFF AND ISZERO PUSH2 0x165D JUMPI PUSH1 0x40 MLOAD PUSH3 0x461BCD PUSH1 0xE5 SHL DUP2 MSTORE PUSH1 0x4 ADD PUSH2 0x654 SWAP1 PUSH2 0x360D JUMP JUMPDEST PUSH2 0x1668 DUP5 DUP5 DUP5 PUSH2 0x2055 JUMP JUMPDEST PUSH1 0x40 MLOAD PUSH4 0x294091CD PUSH1 0xE0 SHL DUP2 MSTORE PUSH1 0x1 PUSH1 0x1 PUSH1 0xA0 SHL SUB DUP5 DUP2 AND PUSH1 0x4 DUP4 ADD MSTORE PUSH1 0x24 DUP3 ADD DUP5 SWAP1 MSTORE DUP3 DUP2 AND PUSH1 0x44 DUP4 ADD MSTORE DUP6 AND SWAP1 PUSH4 0x294091CD SWAP1 PUSH1 0x64 ADD PUSH2 0xC4B JUMP JUMPDEST PUSH1 0x0 DUP1 SLOAD PUSH1 0x1 PUSH1 0xA0 SHL SWAP1 DIV PUSH1 0xFF AND ISZERO PUSH2 0x16D0 JUMPI PUSH1 0x40 MLOAD PUSH3 0x461BCD PUSH1 0xE5 SHL DUP2 MSTORE PUSH1 0x4 ADD PUSH2 0x654 SWAP1 PUSH2 0x360D JUMP JUMPDEST PUSH2 0x16E3 DUP13 DUP13 DUP13 DUP13 DUP13 DUP13 DUP13 DUP13 DUP13 DUP13 DUP13 PUSH2 0x92F JUMP JUMPDEST SWAP1 POP PUSH2 0x920 DUP13 PUSH2 0x2221 JUMP JUMPDEST PUSH1 0x0 DUP1 SLOAD PUSH1 0x1 PUSH1 0xA0 SHL SWAP1 DIV PUSH1 0xFF AND ISZERO PUSH2 0x1719 JUMPI PUSH1 0x40 MLOAD PUSH3 0x461BCD PUSH1 0xE5 SHL DUP2 MSTORE PUSH1 0x4 ADD PUSH2 0x654 SWAP1 PUSH2 0x360D JUMP JUMPDEST PUSH2 0x172A DUP12 DUP12 DUP12 DUP12 DUP12 DUP12 DUP12 DUP12 DUP12 PUSH2 0x1E0E JUMP JUMPDEST SWAP1 POP PUSH1 0x1 PUSH1 0x1 PUSH1 0xA0 SHL SUB DUP3 AND ISZERO PUSH2 0x128B JUMPI PUSH1 0x0 PUSH2 0x1749 DUP9 DUP11 ADD DUP11 PUSH2 0x3001 JUMP JUMPDEST SWAP2 POP POP PUSH1 0x1 PUSH1 0x1 PUSH1 0xA0 SHL SUB DUP2 AND ISZERO PUSH2 0x17BE JUMPI PUSH1 0x40 MLOAD PUSH4 0x7ACB7757 PUSH1 0xE0 SHL DUP2 MSTORE PUSH1 0x4 DUP2 ADD DUP4 SWAP1 MSTORE PUSH1 0x1 PUSH1 0x1 PUSH1 0xA0 SHL SUB DUP3 DUP2 AND PUSH1 0x24 DUP4 ADD MSTORE DUP5 AND SWAP1 PUSH4 0x7ACB7757 SWAP1 PUSH1 0x44 ADD PUSH1 0x0 PUSH1 0x40 MLOAD DUP1 DUP4 SUB DUP2 PUSH1 0x0 DUP8 DUP1 EXTCODESIZE ISZERO DUP1 ISZERO PUSH2 0x17A5 JUMPI PUSH1 0x0 DUP1 REVERT JUMPDEST POP GAS CALL ISZERO DUP1 ISZERO PUSH2 0x17B9 JUMPI RETURNDATASIZE PUSH1 0x0 DUP1 RETURNDATACOPY RETURNDATASIZE PUSH1 0x0 REVERT JUMPDEST POP POP POP POP JUMPDEST POP SWAP11 SWAP10 POP POP POP POP POP POP POP POP POP POP JUMP JUMPDEST PUSH1 0x40 DUP1 MLOAD DUP1 DUP3 ADD SWAP1 SWAP2 MSTORE PUSH1 0x0 DUP1 DUP3 MSTORE PUSH1 0x20 DUP3 ADD MSTORE DUP3 MLOAD PUSH1 0x40 DUP1 MLOAD PUSH1 0x60 DUP1 DUP3 ADD DUP4 MSTORE DUP1 DUP3 MSTORE PUSH1 0x0 PUSH1 0x20 DUP1 DUP5 ADD DUP3 SWAP1 MSTORE DUP4 DUP6 ADD DUP3 SWAP1 MSTORE DUP5 MLOAD PUSH1 0xA0 DUP2 ADD DUP7 MSTORE DUP3 DUP2 MSTORE SWAP1 DUP2 ADD DUP4 SWAP1 MSTORE SWAP4 DUP5 ADD DUP2 SWAP1 MSTORE DUP4 DUP3 ADD SWAP2 SWAP1 SWAP2 MSTORE PUSH1 0x80 DUP4 ADD MSTORE SWAP1 PUSH1 0x40 DUP1 MLOAD DUP1 DUP3 ADD SWAP1 SWAP2 MSTORE PUSH1 0x0 DUP1 DUP3 MSTORE PUSH1 0x20 DUP3 ADD MSTORE PUSH1 0x0 JUMPDEST DUP5 DUP2 LT ISZERO PUSH2 0x1B84 JUMPI DUP8 DUP2 DUP2 MLOAD DUP2 LT PUSH2 0x1856 JUMPI PUSH2 0x1856 PUSH2 0x37F8 JUMP JUMPDEST PUSH1 0x20 MUL PUSH1 0x20 ADD ADD MLOAD SWAP4 POP DUP4 PUSH1 0x0 ADD MLOAD PUSH1 0x0 DUP2 MLOAD DUP2 LT PUSH2 0x1877 JUMPI PUSH2 0x1877 PUSH2 0x37F8 JUMP JUMPDEST PUSH1 0x20 MUL PUSH1 0x20 ADD ADD MLOAD SWAP3 POP PUSH2 0x189D DUP5 PUSH1 0x20 ADD MLOAD DUP5 PUSH1 0x0 ADD MLOAD DUP7 PUSH1 0x40 ADD MLOAD DUP7 PUSH1 0x80 ADD MLOAD PUSH2 0x229E JUMP JUMPDEST DUP4 MLOAD MLOAD PUSH1 0x0 JUMPDEST PUSH2 0x18AE PUSH1 0x1 DUP4 PUSH2 0x39A8 JUMP JUMPDEST DUP2 SUB PUSH2 0x1968 JUMPI DUP5 PUSH1 0x0 ADD MLOAD PUSH1 0x1 PUSH1 0x1 PUSH1 0xA0 SHL SUB AND PUSH4 0x7132BB7F DUP7 PUSH1 0x20 ADD MLOAD CALLER DUP9 PUSH1 0x40 ADD MLOAD DUP10 PUSH1 0x60 ADD MLOAD PUSH1 0x40 MLOAD DUP6 PUSH4 0xFFFFFFFF AND PUSH1 0xE0 SHL DUP2 MSTORE PUSH1 0x4 ADD PUSH2 0x18F6 SWAP5 SWAP4 SWAP3 SWAP2 SWAP1 PUSH2 0x39BB JUMP JUMPDEST PUSH1 0x40 DUP1 MLOAD DUP1 DUP4 SUB DUP2 PUSH1 0x0 DUP8 GAS CALL ISZERO DUP1 ISZERO PUSH2 0x1914 JUMPI RETURNDATASIZE PUSH1 0x0 DUP1 RETURNDATACOPY RETURNDATASIZE PUSH1 0x0 REVERT JUMPDEST POP POP POP POP PUSH1 0x40 MLOAD RETURNDATASIZE PUSH1 0x1F NOT PUSH1 0x1F DUP3 ADD AND DUP3 ADD DUP1 PUSH1 0x40 MSTORE POP DUP2 ADD SWAP1 PUSH2 0x1938 SWAP2 SWAP1 PUSH2 0x3A51 JUMP JUMPDEST DUP1 MLOAD PUSH1 0x1 PUSH1 0x1 PUSH1 0xA0 SHL SUB AND DUP10 MSTORE PUSH1 0x20 DUP1 DUP3 ADD MLOAD SWAP1 DUP11 ADD DUP1 MLOAD SWAP3 SWAP7 POP SWAP1 SWAP2 PUSH2 0x1960 SWAP1 DUP4 SWAP1 PUSH2 0x3A6D JUMP JUMPDEST SWAP1 MSTORE POP PUSH2 0x1B7A JUMP JUMPDEST DUP5 PUSH1 0x0 ADD MLOAD PUSH1 0x1 PUSH1 0x1 PUSH1 0xA0 SHL SUB AND PUSH4 0x7132BB7F DUP7 PUSH1 0x20 ADD MLOAD CALLER DUP9 PUSH1 0x40 ADD MLOAD DUP10 PUSH1 0x60 ADD MLOAD PUSH1 0x40 MLOAD DUP6 PUSH4 0xFFFFFFFF AND PUSH1 0xE0 SHL DUP2 MSTORE PUSH1 0x4 ADD PUSH2 0x19AA SWAP5 SWAP4 SWAP3 SWAP2 SWAP1 PUSH2 0x39BB JUMP JUMPDEST PUSH1 0x40 DUP1 MLOAD DUP1 DUP4 SUB DUP2 PUSH1 0x0 DUP8 GAS CALL ISZERO DUP1 ISZERO PUSH2 0x19C8 JUMPI RETURNDATASIZE PUSH1 0x0 DUP1 RETURNDATACOPY RETURNDATASIZE PUSH1 0x0 REVERT JUMPDEST POP POP POP POP PUSH1 0x40 MLOAD RETURNDATASIZE PUSH1 0x1F NOT PUSH1 0x1F DUP3 ADD AND DUP3 ADD DUP1 PUSH1 0x40 MSTORE POP DUP2 ADD SWAP1 PUSH2 0x19EC SWAP2 SWAP1 PUSH2 0x3A51 JUMP JUMPDEST PUSH1 0x80 DUP7 ADD MLOAD DUP8 MLOAD DUP1 MLOAD SWAP3 SWAP7 POP PUSH1 0x1 SWAP1 SWAP4 ADD SWAP3 SWAP1 SWAP2 DUP4 SWAP1 DUP2 LT PUSH2 0x1A10 JUMPI PUSH2 0x1A10 PUSH2 0x37F8 JUMP JUMPDEST PUSH1 0x20 MUL PUSH1 0x20 ADD ADD MLOAD SWAP6 POP DUP1 ISZERO DUP1 ISZERO PUSH2 0x1A29 JUMPI POP DUP6 PUSH1 0x80 ADD MLOAD JUMPDEST ISZERO PUSH2 0x1B74 JUMPI DUP5 MLOAD PUSH1 0x40 MLOAD PUSH4 0x70A08231 PUSH1 0xE0 SHL DUP2 MSTORE ADDRESS PUSH1 0x4 DUP3 ADD MSTORE PUSH1 0x0 SWAP2 PUSH1 0x1 PUSH1 0x1 PUSH1 0xA0 SHL SUB AND SWAP1 PUSH4 0x70A08231 SWAP1 PUSH1 0x24 ADD PUSH1 0x20 PUSH1 0x40 MLOAD DUP1 DUP4 SUB DUP2 DUP7 GAS STATICCALL ISZERO DUP1 ISZERO PUSH2 0x1A76 JUMPI RETURNDATASIZE PUSH1 0x0 DUP1 RETURNDATACOPY RETURNDATASIZE PUSH1 0x0 REVERT JUMPDEST POP POP POP POP PUSH1 0x40 MLOAD RETURNDATASIZE PUSH1 0x1F NOT PUSH1 0x1F DUP3 ADD AND DUP3 ADD DUP1 PUSH1 0x40 MSTORE POP DUP2 ADD SWAP1 PUSH2 0x1A9A SWAP2 SWAP1 PUSH2 0x380E JUMP JUMPDEST SWAP1 POP PUSH2 0x1ACB DUP7 PUSH1 0x0 ADD MLOAD PUSH32 0x0 DUP4 PUSH2 0x2137 JUMP JUMPDEST DUP6 MLOAD DUP8 MLOAD PUSH1 0x40 MLOAD PUSH4 0x1F2C13E1 PUSH1 0xE3 SHL DUP2 MSTORE PUSH1 0x1 PUSH1 0x1 PUSH1 0xA0 SHL SUB PUSH32 0x0 AND SWAP3 PUSH4 0xF9609F08 SWAP3 PUSH2 0x1B2E SWAP3 PUSH1 0x4 ADD PUSH1 0x1 PUSH1 0x1 PUSH1 0xA0 SHL SUB SWAP3 DUP4 AND DUP2 MSTORE SWAP2 AND PUSH1 0x20 DUP3 ADD MSTORE PUSH1 0x40 ADD SWAP1 JUMP JUMPDEST PUSH1 0x20 PUSH1 0x40 MLOAD DUP1 DUP4 SUB DUP2 PUSH1 0x0 DUP8 GAS CALL ISZERO DUP1 ISZERO PUSH2 0x1B4D JUMPI RETURNDATASIZE PUSH1 0x0 DUP1 RETURNDATACOPY RETURNDATASIZE PUSH1 0x0 REVERT JUMPDEST POP POP POP POP PUSH1 0x40 MLOAD RETURNDATASIZE PUSH1 0x1F NOT PUSH1 0x1F DUP3 ADD AND DUP3 ADD DUP1 PUSH1 0x40 MSTORE POP DUP2 ADD SWAP1 PUSH2 0x1B71 SWAP2 SWAP1 PUSH2 0x380E JUMP JUMPDEST POP POP JUMPDEST POP PUSH2 0x18A3 JUMP JUMPDEST POP POP PUSH1 0x1 ADD PUSH2 0x183C JUMP JUMPDEST POP DUP6 DUP6 PUSH1 0x20 ADD MLOAD LT ISZERO PUSH2 0x1BAA JUMPI PUSH1 0x40 MLOAD PUSH4 0xC9F52C71 PUSH1 0xE0 SHL DUP2 MSTORE PUSH1 0x4 ADD PUSH1 0x40 MLOAD DUP1 SWAP2 SUB SWAP1 REVERT JUMPDEST POP POP POP POP SWAP3 SWAP2 POP POP JUMP JUMPDEST CALLER PUSH2 0x1BC7 PUSH1 0x0 SLOAD PUSH1 0x1 PUSH1 0x1 PUSH1 0xA0 SHL SUB AND SWAP1 JUMP JUMPDEST PUSH1 0x1 PUSH1 0x1 PUSH1 0xA0 SHL SUB AND EQ PUSH2 0xD8E JUMPI PUSH1 0x40 MLOAD PUSH3 0x461BCD PUSH1 0xE5 SHL DUP2 MSTORE PUSH1 0x20 PUSH1 0x4 DUP3 ADD DUP2 SWAP1 MSTORE PUSH1 0x24 DUP3 ADD MSTORE PUSH32 0x4F776E61626C653A2063616C6C6572206973206E6F7420746865206F776E6572 PUSH1 0x44 DUP3 ADD MSTORE PUSH1 0x64 ADD PUSH2 0x654 JUMP JUMPDEST PUSH1 0x0 DUP3 PUSH1 0x1 PUSH1 0x1 PUSH1 0xA0 SHL SUB AND DUP3 PUSH1 0x40 MLOAD PUSH1 0x0 PUSH1 0x40 MLOAD DUP1 DUP4 SUB DUP2 DUP6 DUP8 GAS CALL SWAP3 POP POP POP RETURNDATASIZE DUP1 PUSH1 0x0 DUP2 EQ PUSH2 0x1C6A JUMPI PUSH1 0x40 MLOAD SWAP2 POP PUSH1 0x1F NOT PUSH1 0x3F RETURNDATASIZE ADD AND DUP3 ADD PUSH1 0x40 MSTORE RETURNDATASIZE DUP3 MSTORE RETURNDATASIZE PUSH1 0x0 PUSH1 0x20 DUP5 ADD RETURNDATACOPY PUSH2 0x1C6F JUMP JUMPDEST PUSH1 0x60 SWAP2 POP JUMPDEST POP POP SWAP1 POP DUP1 PUSH2 0x1C91 JUMPI PUSH1 0x40 MLOAD PUSH4 0xB12D13EB PUSH1 0xE0 SHL DUP2 MSTORE PUSH1 0x4 ADD PUSH1 0x40 MLOAD DUP1 SWAP2 SUB SWAP1 REVERT JUMPDEST POP POP POP JUMP JUMPDEST PUSH1 0x40 MLOAD PUSH4 0x23B872DD PUSH1 0xE0 SHL DUP2 MSTORE CALLER PUSH1 0x4 DUP3 ADD MSTORE PUSH1 0x1 PUSH1 0x1 PUSH1 0xA0 SHL SUB DUP9 AND PUSH1 0x24 DUP3 ADD DUP2 SWAP1 MSTORE PUSH1 0x44 DUP3 ADD DUP9 SWAP1 MSTORE PUSH1 0x60 SWAP2 PUSH4 0x23B872DD SWAP1 PUSH1 0x64 ADD PUSH1 0x20 PUSH1 0x40 MLOAD DUP1 DUP4 SUB DUP2 PUSH1 0x0 DUP8 GAS CALL ISZERO DUP1 ISZERO PUSH2 0x1CEC JUMPI RETURNDATASIZE PUSH1 0x0 DUP1 RETURNDATACOPY RETURNDATASIZE PUSH1 0x0 REVERT JUMPDEST POP POP POP POP PUSH1 0x40 MLOAD RETURNDATASIZE PUSH1 0x1F NOT PUSH1 0x1F DUP3 ADD AND DUP3 ADD DUP1 PUSH1 0x40 MSTORE POP DUP2 ADD SWAP1 PUSH2 0x1D10 SWAP2 SWAP1 PUSH2 0x3A80 JUMP JUMPDEST POP PUSH1 0x40 MLOAD PUSH4 0xF66EAB5B PUSH1 0xE0 SHL DUP2 MSTORE PUSH1 0x1 PUSH1 0x1 PUSH1 0xA0 SHL SUB DUP10 AND SWAP1 PUSH4 0xF66EAB5B SWAP1 PUSH2 0x1D45 SWAP1 DUP10 SWAP1 CALLER SWAP1 DUP10 SWAP1 DUP10 SWAP1 DUP10 SWAP1 PUSH1 0x4 ADD PUSH2 0x3A9D JUMP JUMPDEST PUSH1 0x0 PUSH1 0x40 MLOAD DUP1 DUP4 SUB DUP2 PUSH1 0x0 DUP8 GAS CALL ISZERO DUP1 ISZERO PUSH2 0x1D64 JUMPI RETURNDATASIZE PUSH1 0x0 DUP1 RETURNDATACOPY RETURNDATASIZE PUSH1 0x0 REVERT JUMPDEST POP POP POP POP PUSH1 0x40 MLOAD RETURNDATASIZE PUSH1 0x0 DUP3 RETURNDATACOPY PUSH1 0x1F RETURNDATASIZE SWAP1 DUP2 ADD PUSH1 0x1F NOT AND DUP3 ADD PUSH1 0x40 MSTORE PUSH2 0x1D8C SWAP2 SWAP1 DUP2 ADD SWAP1 PUSH2 0x3ADA JUMP JUMPDEST DUP1 MLOAD SWAP1 SWAP2 POP PUSH1 0x0 JUMPDEST DUP2 DUP2 LT ISZERO PUSH2 0x1E01 JUMPI PUSH1 0x0 DUP4 DUP3 DUP2 MLOAD DUP2 LT PUSH2 0x1DB0 JUMPI PUSH2 0x1DB0 PUSH2 0x37F8 JUMP JUMPDEST PUSH1 0x20 MUL PUSH1 0x20 ADD ADD MLOAD SWAP1 POP DUP8 DUP3 DUP2 MLOAD DUP2 LT PUSH2 0x1DCC JUMPI PUSH2 0x1DCC PUSH2 0x37F8 JUMP JUMPDEST PUSH1 0x20 MUL PUSH1 0x20 ADD ADD MLOAD DUP2 PUSH1 0x20 ADD MLOAD LT ISZERO PUSH2 0x1DF8 JUMPI PUSH1 0x40 MLOAD PUSH4 0xC9F52C71 PUSH1 0xE0 SHL DUP2 MSTORE PUSH1 0x4 ADD PUSH1 0x40 MLOAD DUP1 SWAP2 SUB SWAP1 REVERT JUMPDEST POP PUSH1 0x1 ADD PUSH2 0x1D94 JUMP JUMPDEST POP POP SWAP8 SWAP7 POP POP POP POP POP POP POP JUMP JUMPDEST PUSH1 0x40 DUP1 MLOAD PUSH1 0x60 DUP2 ADD DUP3 MSTORE PUSH1 0x0 DUP1 DUP3 MSTORE PUSH1 0x20 DUP3 ADD DUP2 SWAP1 MSTORE SWAP2 DUP2 ADD DUP3 SWAP1 MSTORE DUP9 SWAP1 PUSH1 0x0 JUMPDEST DUP3 DUP2 LT ISZERO PUSH2 0x1E81 JUMPI DUP12 DUP12 DUP3 DUP2 DUP2 LT PUSH2 0x1E49 JUMPI PUSH2 0x1E49 PUSH2 0x37F8 JUMP JUMPDEST SWAP1 POP PUSH1 0x60 MUL ADD DUP1 CALLDATASIZE SUB DUP2 ADD SWAP1 PUSH2 0x1E5F SWAP2 SWAP1 PUSH2 0x3B6F JUMP JUMPDEST SWAP2 POP PUSH2 0x1E79 DUP3 PUSH1 0x0 ADD MLOAD DUP15 DUP5 PUSH1 0x20 ADD MLOAD DUP6 PUSH1 0x40 ADD MLOAD PUSH2 0x229E JUMP JUMPDEST PUSH1 0x1 ADD PUSH2 0x1E2F JUMP JUMPDEST POP PUSH1 0x40 MLOAD PUSH4 0x1F39435 PUSH1 0xE1 SHL DUP2 MSTORE PUSH1 0x1 PUSH1 0x1 PUSH1 0xA0 SHL SUB DUP14 AND SWAP1 PUSH4 0x3E7286A SWAP1 PUSH2 0x1EB8 SWAP1 DUP13 SWAP1 DUP13 SWAP1 CALLER SWAP1 DUP13 SWAP1 DUP13 SWAP1 DUP13 SWAP1 PUSH1 0x4 ADD PUSH2 0x3BBA JUMP JUMPDEST PUSH1 0x20 PUSH1 0x40 MLOAD DUP1 DUP4 SUB DUP2 PUSH1 0x0 DUP8 GAS CALL ISZERO DUP1 ISZERO PUSH2 0x1ED7 JUMPI RETURNDATASIZE PUSH1 0x0 DUP1 RETURNDATACOPY RETURNDATASIZE PUSH1 0x0 REVERT JUMPDEST POP POP POP POP PUSH1 0x40 MLOAD RETURNDATASIZE PUSH1 0x1F NOT PUSH1 0x1F DUP3 ADD AND DUP3 ADD DUP1 PUSH1 0x40 MSTORE POP DUP2 ADD SWAP1 PUSH2 0x1EFB SWAP2 SWAP1 PUSH2 0x380E JUMP JUMPDEST SWAP3 POP DUP7 DUP4 LT ISZERO PUSH2 0x1F1E JUMPI PUSH1 0x40 MLOAD PUSH4 0x124CA15F PUSH1 0xE1 SHL DUP2 MSTORE PUSH1 0x4 ADD PUSH1 0x40 MLOAD DUP1 SWAP2 SUB SWAP1 REVERT JUMPDEST POP POP SWAP10 SWAP9 POP POP POP POP POP POP POP POP POP JUMP JUMPDEST PUSH1 0x40 DUP1 MLOAD DUP1 DUP3 ADD SWAP1 SWAP2 MSTORE PUSH1 0x0 DUP1 DUP3 MSTORE PUSH1 0x20 DUP3 ADD MSTORE PUSH1 0x40 MLOAD PUSH4 0x23B872DD PUSH1 0xE0 SHL DUP2 MSTORE CALLER PUSH1 0x4 DUP3 ADD MSTORE PUSH1 0x1 PUSH1 0x1 PUSH1 0xA0 SHL SUB DUP9 AND PUSH1 0x24 DUP3 ADD DUP2 SWAP1 MSTORE PUSH1 0x44 DUP3 ADD DUP9 SWAP1 MSTORE SWAP1 PUSH4 0x23B872DD SWAP1 PUSH1 0x64 ADD PUSH1 0x20 PUSH1 0x40 MLOAD DUP1 DUP4 SUB DUP2 PUSH1 0x0 DUP8 GAS CALL ISZERO DUP1 ISZERO PUSH2 0x1F95 JUMPI RETURNDATASIZE PUSH1 0x0 DUP1 RETURNDATACOPY RETURNDATASIZE PUSH1 0x0 REVERT JUMPDEST POP POP POP POP PUSH1 0x40 MLOAD RETURNDATASIZE PUSH1 0x1F NOT PUSH1 0x1F DUP3 ADD AND DUP3 ADD DUP1 PUSH1 0x40 MSTORE POP DUP2 ADD SWAP1 PUSH2 0x1FB9 SWAP2 SWAP1 PUSH2 0x3A80 JUMP JUMPDEST POP PUSH1 0x40 MLOAD PUSH4 0x13D85E75 PUSH1 0xE1 SHL DUP2 MSTORE PUSH1 0x1 PUSH1 0x1 PUSH1 0xA0 SHL SUB DUP9 AND SWAP1 PUSH4 0x27B0BCEA SWAP1 PUSH2 0x1FEC SWAP1 DUP9 SWAP1 CALLER SWAP1 DUP9 SWAP1 DUP9 SWAP1 PUSH1 0x4 ADD PUSH2 0x39BB JUMP JUMPDEST PUSH1 0x40 DUP1 MLOAD DUP1 DUP4 SUB DUP2 PUSH1 0x0 DUP8 GAS CALL ISZERO DUP1 ISZERO PUSH2 0x200A JUMPI RETURNDATASIZE PUSH1 0x0 DUP1 RETURNDATACOPY RETURNDATASIZE PUSH1 0x0 REVERT JUMPDEST POP POP POP POP PUSH1 0x40 MLOAD RETURNDATASIZE PUSH1 0x1F NOT PUSH1 0x1F DUP3 ADD AND DUP3 ADD DUP1 PUSH1 0x40 MSTORE POP DUP2 ADD SWAP1 PUSH2 0x202E SWAP2 SWAP1 PUSH2 0x3A51 JUMP JUMPDEST SWAP1 POP DUP4 DUP2 PUSH1 0x20 ADD MLOAD LT ISZERO PUSH2 0xE8F JUMPI PUSH1 0x40 MLOAD PUSH4 0xC9F52C71 PUSH1 0xE0 SHL DUP2 MSTORE PUSH1 0x4 ADD PUSH1 0x40 MLOAD DUP1 SWAP2 SUB SWAP1 REVERT JUMPDEST PUSH2 0x2061 DUP3 CALLER ADDRESS DUP5 PUSH2 0x252C JUMP JUMPDEST PUSH1 0x40 MLOAD PUSH4 0x6EB1769F PUSH1 0xE1 SHL DUP2 MSTORE ADDRESS PUSH1 0x4 DUP3 ADD MSTORE PUSH1 0x1 PUSH1 0x1 PUSH1 0xA0 SHL SUB DUP5 DUP2 AND PUSH1 0x24 DUP4 ADD MSTORE DUP3 SWAP2 SWAP1 DUP5 AND SWAP1 PUSH4 0xDD62ED3E SWAP1 PUSH1 0x44 ADD PUSH1 0x20 PUSH1 0x40 MLOAD DUP1 DUP4 SUB DUP2 DUP7 GAS STATICCALL ISZERO DUP1 ISZERO PUSH2 0x20B0 JUMPI RETURNDATASIZE PUSH1 0x0 DUP1 RETURNDATACOPY RETURNDATASIZE PUSH1 0x0 REVERT JUMPDEST POP POP POP POP PUSH1 0x40 MLOAD RETURNDATASIZE PUSH1 0x1F NOT PUSH1 0x1F DUP3 ADD AND DUP3 ADD DUP1 PUSH1 0x40 MSTORE POP DUP2 ADD SWAP1 PUSH2 0x20D4 SWAP2 SWAP1 PUSH2 0x380E JUMP JUMPDEST LT ISZERO PUSH2 0x1C91 JUMPI PUSH2 0x1C91 DUP3 DUP5 PUSH1 0x0 NOT PUSH2 0x261E JUMP JUMPDEST PUSH1 0x0 DUP1 SLOAD PUSH1 0x1 PUSH1 0x1 PUSH1 0xA0 SHL SUB DUP4 DUP2 AND PUSH1 0x1 PUSH1 0x1 PUSH1 0xA0 SHL SUB NOT DUP4 AND DUP2 OR DUP5 SSTORE PUSH1 0x40 MLOAD SWAP2 SWAP1 SWAP3 AND SWAP3 DUP4 SWAP2 PUSH32 0x8BE0079C531659141344CD1FD0A4F28419497F9722A3DAAFE3B4186F6B6457E0 SWAP2 SWAP1 LOG3 POP POP JUMP JUMPDEST PUSH1 0x40 DUP1 MLOAD PUSH1 0x1 PUSH1 0x1 PUSH1 0xA0 SHL SUB DUP5 DUP2 AND PUSH1 0x24 DUP4 ADD MSTORE PUSH1 0x44 DUP1 DUP4 ADD DUP6 SWAP1 MSTORE DUP4 MLOAD DUP1 DUP5 SUB SWAP1 SWAP2 ADD DUP2 MSTORE PUSH1 0x64 SWAP1 SWAP3 ADD DUP4 MSTORE PUSH1 0x20 DUP3 ADD DUP1 MLOAD PUSH1 0x1 PUSH1 0x1 PUSH1 0xE0 SHL SUB AND PUSH4 0xA9059CBB PUSH1 0xE0 SHL OR SWAP1 MSTORE SWAP2 MLOAD PUSH1 0x0 SWAP3 DUP4 SWAP3 SWAP1 DUP8 AND SWAP2 PUSH2 0x2193 SWAP2 SWAP1 PUSH2 0x3C05 JUMP JUMPDEST PUSH1 0x0 PUSH1 0x40 MLOAD DUP1 DUP4 SUB DUP2 PUSH1 0x0 DUP7 GAS CALL SWAP2 POP POP RETURNDATASIZE DUP1 PUSH1 0x0 DUP2 EQ PUSH2 0x21D0 JUMPI PUSH1 0x40 MLOAD SWAP2 POP PUSH1 0x1F NOT PUSH1 0x3F RETURNDATASIZE ADD AND DUP3 ADD PUSH1 0x40 MSTORE RETURNDATASIZE DUP3 MSTORE RETURNDATASIZE PUSH1 0x0 PUSH1 0x20 DUP5 ADD RETURNDATACOPY PUSH2 0x21D5 JUMP JUMPDEST PUSH1 0x60 SWAP2 POP JUMPDEST POP SWAP2 POP SWAP2 POP DUP2 ISZERO DUP1 PUSH2 0x2203 JUMPI POP DUP1 MLOAD ISZERO DUP1 ISZERO SWAP1 PUSH2 0x2203 JUMPI POP DUP1 DUP1 PUSH1 0x20 ADD SWAP1 MLOAD DUP2 ADD SWAP1 PUSH2 0x2201 SWAP2 SWAP1 PUSH2 0x3A80 JUMP JUMPDEST ISZERO JUMPDEST ISZERO PUSH2 0xD06 JUMPI PUSH1 0x40 MLOAD PUSH4 0x12171D83 PUSH1 0xE3 SHL DUP2 MSTORE PUSH1 0x4 ADD PUSH1 0x40 MLOAD DUP1 SWAP2 SUB SWAP1 REVERT JUMPDEST PUSH1 0x1 PUSH1 0x1 PUSH1 0xA0 SHL SUB DUP2 AND PUSH1 0x0 SWAP1 DUP2 MSTORE PUSH1 0x1 PUSH1 0x20 SWAP1 DUP2 MSTORE PUSH1 0x40 DUP1 DUP4 KECCAK256 CALLER DUP5 MSTORE SWAP1 SWAP2 MSTORE SWAP1 KECCAK256 SLOAD PUSH1 0xFF AND PUSH2 0x15F8 JUMPI PUSH1 0x1 PUSH1 0x1 PUSH1 0xA0 SHL SUB AND PUSH1 0x0 DUP2 DUP2 MSTORE PUSH1 0x1 PUSH1 0x20 DUP2 DUP2 MSTORE PUSH1 0x40 DUP1 DUP5 KECCAK256 CALLER DUP6 MSTORE DUP3 MSTORE DUP1 DUP5 KECCAK256 DUP1 SLOAD PUSH1 0xFF NOT AND DUP5 OR SWAP1 SSTORE PUSH1 0x2 DUP3 MSTORE DUP4 KECCAK256 DUP1 SLOAD SWAP3 DUP4 ADD DUP2 SSTORE DUP4 MSTORE SWAP1 SWAP2 KECCAK256 ADD DUP1 SLOAD PUSH1 0x1 PUSH1 0x1 PUSH1 0xA0 SHL SUB NOT AND SWAP1 SWAP2 OR SWAP1 SSTORE JUMP JUMPDEST DUP1 ISZERO PUSH2 0x240E JUMPI PUSH1 0x1 PUSH1 0x1 PUSH1 0xA0 SHL SUB DUP5 AND PUSH2 0x234E JUMPI PUSH1 0x40 MLOAD PUSH4 0x1F2C13E1 PUSH1 0xE3 SHL DUP2 MSTORE PUSH1 0x1 PUSH1 0x1 PUSH1 0xA0 SHL SUB DUP6 DUP2 AND PUSH1 0x4 DUP4 ADD MSTORE DUP5 DUP2 AND PUSH1 0x24 DUP4 ADD MSTORE PUSH32 0x0 AND SWAP1 PUSH4 0xF9609F08 SWAP1 DUP5 SWAP1 PUSH1 0x44 ADD PUSH1 0x20 PUSH1 0x40 MLOAD DUP1 DUP4 SUB DUP2 DUP6 DUP9 GAS CALL ISZERO DUP1 ISZERO PUSH2 0x2323 JUMPI RETURNDATASIZE PUSH1 0x0 DUP1 RETURNDATACOPY RETURNDATASIZE PUSH1 0x0 REVERT JUMPDEST POP POP POP POP POP PUSH1 0x40 MLOAD RETURNDATASIZE PUSH1 0x1F NOT PUSH1 0x1F DUP3 ADD AND DUP3 ADD DUP1 PUSH1 0x40 MSTORE POP DUP2 ADD SWAP1 PUSH2 0x2348 SWAP2 SWAP1 PUSH2 0x380E JUMP JUMPDEST POP PUSH2 0x13D6 JUMP JUMPDEST PUSH2 0x237A DUP5 CALLER PUSH32 0x0 DUP6 PUSH2 0x252C JUMP JUMPDEST PUSH1 0x40 MLOAD PUSH4 0x1F2C13E1 PUSH1 0xE3 SHL DUP2 MSTORE PUSH1 0x1 PUSH1 0x1 PUSH1 0xA0 SHL SUB DUP6 DUP2 AND PUSH1 0x4 DUP4 ADD MSTORE DUP5 DUP2 AND PUSH1 0x24 DUP4 ADD MSTORE PUSH32 0x0 AND SWAP1 PUSH4 0xF9609F08 SWAP1 PUSH1 0x44 ADD PUSH1 0x20 PUSH1 0x40 MLOAD DUP1 DUP4 SUB DUP2 PUSH1 0x0 DUP8 GAS CALL ISZERO DUP1 ISZERO PUSH2 0x23EA JUMPI RETURNDATASIZE PUSH1 0x0 DUP1 RETURNDATACOPY RETURNDATASIZE PUSH1 0x0 REVERT JUMPDEST POP POP POP POP PUSH1 0x40 MLOAD RETURNDATASIZE PUSH1 0x1F NOT PUSH1 0x1F DUP3 ADD AND DUP3 ADD DUP1 PUSH1 0x40 MSTORE POP DUP2 ADD SWAP1 PUSH2 0x2348 SWAP2 SWAP1 PUSH2 0x380E JUMP JUMPDEST PUSH1 0x1 PUSH1 0x1 PUSH1 0xA0 SHL SUB DUP5 AND PUSH2 0x2524 JUMPI PUSH32 0x0 PUSH1 0x1 PUSH1 0x1 PUSH1 0xA0 SHL SUB AND PUSH4 0xD0E30DB0 DUP4 PUSH1 0x40 MLOAD DUP3 PUSH4 0xFFFFFFFF AND PUSH1 0xE0 SHL DUP2 MSTORE PUSH1 0x4 ADD PUSH1 0x0 PUSH1 0x40 MLOAD DUP1 DUP4 SUB DUP2 DUP6 DUP9 DUP1 EXTCODESIZE ISZERO DUP1 ISZERO PUSH2 0x2477 JUMPI PUSH1 0x0 DUP1 REVERT JUMPDEST POP GAS CALL ISZERO DUP1 ISZERO PUSH2 0x248B JUMPI RETURNDATASIZE PUSH1 0x0 DUP1 RETURNDATACOPY RETURNDATASIZE PUSH1 0x0 REVERT JUMPDEST POP POP PUSH1 0x40 MLOAD PUSH4 0xA9059CBB PUSH1 0xE0 SHL DUP2 MSTORE PUSH1 0x1 PUSH1 0x1 PUSH1 0xA0 SHL SUB DUP8 DUP2 AND PUSH1 0x4 DUP4 ADD MSTORE PUSH1 0x24 DUP3 ADD DUP8 SWAP1 MSTORE PUSH32 0x0 AND SWAP4 POP PUSH4 0xA9059CBB SWAP3 POP PUSH1 0x44 ADD SWAP1 POP PUSH1 0x20 PUSH1 0x40 MLOAD DUP1 DUP4 SUB DUP2 PUSH1 0x0 DUP8 GAS CALL ISZERO DUP1 ISZERO PUSH2 0x2500 JUMPI RETURNDATASIZE PUSH1 0x0 DUP1 RETURNDATACOPY RETURNDATASIZE PUSH1 0x0 REVERT JUMPDEST POP POP POP POP PUSH1 0x40 MLOAD RETURNDATASIZE PUSH1 0x1F NOT PUSH1 0x1F DUP3 ADD AND DUP3 ADD DUP1 PUSH1 0x40 MSTORE POP DUP2 ADD SWAP1 PUSH2 0x2348 SWAP2 SWAP1 PUSH2 0x3A80 JUMP JUMPDEST PUSH2 0x13D6 DUP5 CALLER DUP6 DUP6 JUMPDEST PUSH1 0x40 DUP1 MLOAD PUSH1 0x1 PUSH1 0x1 PUSH1 0xA0 SHL SUB DUP6 DUP2 AND PUSH1 0x24 DUP4 ADD MSTORE DUP5 DUP2 AND PUSH1 0x44 DUP4 ADD MSTORE PUSH1 0x64 DUP1 DUP4 ADD DUP6 SWAP1 MSTORE DUP4 MLOAD DUP1 DUP5 SUB SWAP1 SWAP2 ADD DUP2 MSTORE PUSH1 0x84 SWAP1 SWAP3 ADD DUP4 MSTORE PUSH1 0x20 DUP3 ADD DUP1 MLOAD PUSH1 0x1 PUSH1 0x1 PUSH1 0xE0 SHL SUB AND PUSH4 0x23B872DD PUSH1 0xE0 SHL OR SWAP1 MSTORE SWAP2 MLOAD PUSH1 0x0 SWAP3 DUP4 SWAP3 SWAP1 DUP9 AND SWAP2 PUSH2 0x2590 SWAP2 SWAP1 PUSH2 0x3C05 JUMP JUMPDEST PUSH1 0x0 PUSH1 0x40 MLOAD DUP1 DUP4 SUB DUP2 PUSH1 0x0 DUP7 GAS CALL SWAP2 POP POP RETURNDATASIZE DUP1 PUSH1 0x0 DUP2 EQ PUSH2 0x25CD JUMPI PUSH1 0x40 MLOAD SWAP2 POP PUSH1 0x1F NOT PUSH1 0x3F RETURNDATASIZE ADD AND DUP3 ADD PUSH1 0x40 MSTORE RETURNDATASIZE DUP3 MSTORE RETURNDATASIZE PUSH1 0x0 PUSH1 0x20 DUP5 ADD RETURNDATACOPY PUSH2 0x25D2 JUMP JUMPDEST PUSH1 0x60 SWAP2 POP JUMPDEST POP SWAP2 POP SWAP2 POP DUP2 ISZERO DUP1 PUSH2 0x2600 JUMPI POP DUP1 MLOAD ISZERO DUP1 ISZERO SWAP1 PUSH2 0x2600 JUMPI POP DUP1 DUP1 PUSH1 0x20 ADD SWAP1 MLOAD DUP2 ADD SWAP1 PUSH2 0x25FE SWAP2 SWAP1 PUSH2 0x3A80 JUMP JUMPDEST ISZERO JUMPDEST ISZERO PUSH2 0x1093 JUMPI PUSH1 0x40 MLOAD PUSH4 0x1E4E7D09 PUSH1 0xE2 SHL DUP2 MSTORE PUSH1 0x4 ADD PUSH1 0x40 MLOAD DUP1 SWAP2 SUB SWAP1 REVERT JUMPDEST PUSH1 0x40 DUP1 MLOAD PUSH1 0x1 PUSH1 0x1 PUSH1 0xA0 SHL SUB DUP5 DUP2 AND PUSH1 0x24 DUP4 ADD MSTORE PUSH1 0x44 DUP1 DUP4 ADD DUP6 SWAP1 MSTORE DUP4 MLOAD DUP1 DUP5 SUB SWAP1 SWAP2 ADD DUP2 MSTORE PUSH1 0x64 SWAP1 SWAP3 ADD DUP4 MSTORE PUSH1 0x20 DUP3 ADD DUP1 MLOAD PUSH1 0x1 PUSH1 0x1 PUSH1 0xE0 SHL SUB AND PUSH4 0x95EA7B3 PUSH1 0xE0 SHL OR SWAP1 MSTORE SWAP2 MLOAD PUSH1 0x0 SWAP3 DUP4 SWAP3 SWAP1 DUP8 AND SWAP2 PUSH2 0x267A SWAP2 SWAP1 PUSH2 0x3C05 JUMP JUMPDEST PUSH1 0x0 PUSH1 0x40 MLOAD DUP1 DUP4 SUB DUP2 PUSH1 0x0 DUP7 GAS CALL SWAP2 POP POP RETURNDATASIZE DUP1 PUSH1 0x0 DUP2 EQ PUSH2 0x26B7 JUMPI PUSH1 0x40 MLOAD SWAP2 POP PUSH1 0x1F NOT PUSH1 0x3F RETURNDATASIZE ADD AND DUP3 ADD PUSH1 0x40 MSTORE RETURNDATASIZE DUP3 MSTORE RETURNDATASIZE PUSH1 0x0 PUSH1 0x20 DUP5 ADD RETURNDATACOPY PUSH2 0x26BC JUMP JUMPDEST PUSH1 0x60 SWAP2 POP JUMPDEST POP SWAP2 POP SWAP2 POP DUP2 ISZERO DUP1 PUSH2 0x26EA JUMPI POP DUP1 MLOAD ISZERO DUP1 ISZERO SWAP1 PUSH2 0x26EA JUMPI POP DUP1 DUP1 PUSH1 0x20 ADD SWAP1 MLOAD DUP2 ADD SWAP1 PUSH2 0x26E8 SWAP2 SWAP1 PUSH2 0x3A80 JUMP JUMPDEST ISZERO JUMPDEST ISZERO PUSH2 0xD06 JUMPI PUSH1 0x40 MLOAD PUSH4 0x3E3F8F73 PUSH1 0xE0 SHL DUP2 MSTORE PUSH1 0x4 ADD PUSH1 0x40 MLOAD DUP1 SWAP2 SUB SWAP1 REVERT JUMPDEST PUSH4 0x4E487B71 PUSH1 0xE0 SHL PUSH1 0x0 MSTORE PUSH1 0x41 PUSH1 0x4 MSTORE PUSH1 0x24 PUSH1 0x0 REVERT JUMPDEST PUSH1 0x40 MLOAD PUSH1 0x60 DUP2 ADD PUSH1 0x1 PUSH1 0x1 PUSH1 0x40 SHL SUB DUP2 GT DUP3 DUP3 LT OR ISZERO PUSH2 0x2740 JUMPI PUSH2 0x2740 PUSH2 0x2708 JUMP JUMPDEST PUSH1 0x40 MSTORE SWAP1 JUMP JUMPDEST PUSH1 0x40 MLOAD PUSH1 0xA0 DUP2 ADD PUSH1 0x1 PUSH1 0x1 PUSH1 0x40 SHL SUB DUP2 GT DUP3 DUP3 LT OR ISZERO PUSH2 0x2740 JUMPI PUSH2 0x2740 PUSH2 0x2708 JUMP JUMPDEST PUSH1 0x40 MLOAD PUSH1 0xC0 DUP2 ADD PUSH1 0x1 PUSH1 0x1 PUSH1 0x40 SHL SUB DUP2 GT DUP3 DUP3 LT OR ISZERO PUSH2 0x2740 JUMPI PUSH2 0x2740 PUSH2 0x2708 JUMP JUMPDEST PUSH1 0x40 MLOAD PUSH1 0x1F DUP3 ADD PUSH1 0x1F NOT AND DUP2 ADD PUSH1 0x1 PUSH1 0x1 PUSH1 0x40 SHL SUB DUP2 GT DUP3 DUP3 LT OR ISZERO PUSH2 0x27B2 JUMPI PUSH2 0x27B2 PUSH2 0x2708 JUMP JUMPDEST PUSH1 0x40 MSTORE SWAP2 SWAP1 POP JUMP JUMPDEST PUSH1 0x0 PUSH1 0x1 PUSH1 0x1 PUSH1 0x40 SHL SUB DUP3 GT ISZERO PUSH2 0x27D3 JUMPI PUSH2 0x27D3 PUSH2 0x2708 JUMP JUMPDEST POP PUSH1 0x5 SHL PUSH1 0x20 ADD SWAP1 JUMP JUMPDEST PUSH1 0x1 PUSH1 0x1 PUSH1 0xA0 SHL SUB DUP2 AND DUP2 EQ PUSH2 0x15F8 JUMPI PUSH1 0x0 DUP1 REVERT JUMPDEST DUP1 CALLDATALOAD PUSH2 0x27FD DUP2 PUSH2 0x27DD JUMP JUMPDEST SWAP2 SWAP1 POP JUMP JUMPDEST PUSH1 0x0 PUSH1 0x1 PUSH1 0x1 PUSH1 0x40 SHL SUB DUP3 GT ISZERO PUSH2 0x281B JUMPI PUSH2 0x281B PUSH2 0x2708 JUMP JUMPDEST POP PUSH1 0x1F ADD PUSH1 0x1F NOT AND PUSH1 0x20 ADD SWAP1 JUMP JUMPDEST PUSH1 0x0 DUP3 PUSH1 0x1F DUP4 ADD SLT PUSH2 0x283A JUMPI PUSH1 0x0 DUP1 REVERT JUMPDEST DUP2 CALLDATALOAD PUSH2 0x284D PUSH2 0x2848 DUP3 PUSH2 0x2802 JUMP JUMPDEST PUSH2 0x278A JUMP JUMPDEST DUP2 DUP2 MSTORE DUP5 PUSH1 0x20 DUP4 DUP7 ADD ADD GT ISZERO PUSH2 0x2862 JUMPI PUSH1 0x0 DUP1 REVERT JUMPDEST DUP2 PUSH1 0x20 DUP6 ADD PUSH1 0x20 DUP4 ADD CALLDATACOPY PUSH1 0x0 SWAP2 DUP2 ADD PUSH1 0x20 ADD SWAP2 SWAP1 SWAP2 MSTORE SWAP4 SWAP3 POP POP POP JUMP JUMPDEST DUP1 ISZERO ISZERO DUP2 EQ PUSH2 0x15F8 JUMPI PUSH1 0x0 DUP1 REVERT JUMPDEST DUP1 CALLDATALOAD PUSH2 0x27FD DUP2 PUSH2 0x287F JUMP JUMPDEST PUSH1 0x0 DUP3 PUSH1 0x1F DUP4 ADD SLT PUSH2 0x28A9 JUMPI PUSH1 0x0 DUP1 REVERT JUMPDEST PUSH2 0x28B6 PUSH2 0x2848 DUP4 CALLDATALOAD PUSH2 0x27BA JUMP JUMPDEST DUP3 CALLDATALOAD DUP1 DUP3 MSTORE PUSH1 0x20 DUP1 DUP4 ADD SWAP3 SWAP2 PUSH1 0x5 SHL DUP6 ADD ADD DUP6 LT ISZERO PUSH2 0x28D4 JUMPI PUSH1 0x0 DUP1 REVERT JUMPDEST PUSH1 0x20 DUP5 ADD JUMPDEST PUSH1 0x20 DUP6 CALLDATALOAD PUSH1 0x5 SHL DUP7 ADD ADD DUP2 LT ISZERO PUSH2 0x2A9F JUMPI PUSH1 0x1 PUSH1 0x1 PUSH1 0x40 SHL SUB DUP1 DUP3 CALLDATALOAD GT ISZERO PUSH2 0x2900 JUMPI PUSH1 0x0 DUP1 REVERT JUMPDEST PUSH1 0x60 DUP3 CALLDATALOAD DUP8 ADD DUP9 SUB PUSH1 0x1F NOT ADD SLT ISZERO PUSH2 0x2917 JUMPI PUSH1 0x0 DUP1 REVERT JUMPDEST PUSH2 0x291F PUSH2 0x271E JUMP JUMPDEST DUP2 PUSH1 0x20 DUP5 CALLDATALOAD DUP10 ADD ADD CALLDATALOAD GT ISZERO PUSH2 0x2933 JUMPI PUSH1 0x0 DUP1 REVERT JUMPDEST DUP3 CALLDATALOAD DUP8 ADD PUSH1 0x20 DUP2 ADD CALLDATALOAD ADD PUSH1 0x3F DUP2 ADD DUP10 SGT PUSH2 0x294C JUMPI PUSH1 0x0 DUP1 REVERT JUMPDEST PUSH2 0x295C PUSH2 0x2848 PUSH1 0x20 DUP4 ADD CALLDATALOAD PUSH2 0x27BA JUMP JUMPDEST PUSH1 0x20 DUP3 DUP2 ADD CALLDATALOAD DUP1 DUP4 MSTORE SWAP1 DUP3 ADD SWAP2 SWAP1 PUSH1 0x5 SHL DUP4 ADD PUSH1 0x40 ADD DUP12 LT ISZERO PUSH2 0x297E JUMPI PUSH1 0x0 DUP1 REVERT JUMPDEST PUSH1 0x40 DUP4 ADD JUMPDEST PUSH1 0x40 PUSH1 0x20 DUP6 ADD CALLDATALOAD PUSH1 0x5 SHL DUP6 ADD ADD DUP2 LT ISZERO PUSH2 0x2A62 JUMPI DUP6 DUP2 CALLDATALOAD GT ISZERO PUSH2 0x29A5 JUMPI PUSH1 0x0 DUP1 REVERT JUMPDEST DUP1 CALLDATALOAD DUP5 ADD PUSH1 0xA0 DUP2 DUP15 SUB PUSH1 0x3F NOT ADD SLT ISZERO PUSH2 0x29BD JUMPI PUSH1 0x0 DUP1 REVERT JUMPDEST PUSH2 0x29C5 PUSH2 0x2746 JUMP JUMPDEST PUSH2 0x29D2 PUSH1 0x40 DUP4 ADD CALLDATALOAD PUSH2 0x27DD JUMP JUMPDEST PUSH1 0x40 DUP3 ADD CALLDATALOAD DUP2 MSTORE DUP8 PUSH1 0x60 DUP4 ADD CALLDATALOAD GT ISZERO PUSH2 0x29EA JUMPI PUSH1 0x0 DUP1 REVERT JUMPDEST PUSH2 0x29FD DUP15 PUSH1 0x40 PUSH1 0x60 DUP6 ADD CALLDATALOAD DUP6 ADD ADD PUSH2 0x2829 JUMP JUMPDEST PUSH1 0x20 DUP3 ADD MSTORE PUSH2 0x2A0F PUSH1 0x80 DUP4 ADD CALLDATALOAD PUSH2 0x27DD JUMP JUMPDEST PUSH1 0x80 DUP3 ADD CALLDATALOAD PUSH1 0x40 DUP3 ADD MSTORE DUP8 PUSH1 0xA0 DUP4 ADD CALLDATALOAD GT ISZERO PUSH2 0x2A2A JUMPI PUSH1 0x0 DUP1 REVERT JUMPDEST PUSH2 0x2A3D DUP15 PUSH1 0x40 PUSH1 0xA0 DUP6 ADD CALLDATALOAD DUP6 ADD ADD PUSH2 0x2829 JUMP JUMPDEST PUSH1 0x60 DUP3 ADD MSTORE PUSH2 0x2A4E PUSH1 0xC0 DUP4 ADD PUSH2 0x288D JUMP JUMPDEST PUSH1 0x80 DUP3 ADD MSTORE DUP5 MSTORE POP PUSH1 0x20 SWAP3 DUP4 ADD SWAP3 ADD PUSH2 0x2983 JUMP JUMPDEST POP DUP4 MSTORE POP PUSH2 0x2A77 SWAP1 POP DUP4 CALLDATALOAD DUP9 ADD PUSH1 0x40 ADD PUSH2 0x27F2 JUMP JUMPDEST PUSH1 0x20 DUP3 ADD MSTORE PUSH1 0x60 DUP4 CALLDATALOAD DUP9 ADD ADD CALLDATALOAD PUSH1 0x40 DUP3 ADD MSTORE DUP1 DUP6 MSTORE POP POP PUSH1 0x20 DUP4 ADD SWAP3 POP PUSH1 0x20 DUP2 ADD SWAP1 POP PUSH2 0x28D9 JUMP JUMPDEST POP SWAP5 SWAP4 POP POP POP POP JUMP JUMPDEST PUSH1 0x0 DUP1 PUSH1 0x0 DUP1 DUP5 DUP7 SUB PUSH2 0x120 DUP2 SLT ISZERO PUSH2 0x2AC0 JUMPI PUSH1 0x0 DUP1 REVERT JUMPDEST DUP6 CALLDATALOAD PUSH1 0x1 PUSH1 0x1 PUSH1 0x40 SHL SUB DUP2 GT ISZERO PUSH2 0x2AD6 JUMPI PUSH1 0x0 DUP1 REVERT JUMPDEST PUSH2 0x2AE2 DUP9 DUP3 DUP10 ADD PUSH2 0x2898 JUMP JUMPDEST SWAP6 POP POP PUSH1 0x20 DUP7 ADD CALLDATALOAD SWAP4 POP PUSH1 0x40 DUP7 ADD CALLDATALOAD SWAP3 POP PUSH1 0xC0 PUSH1 0x5F NOT DUP3 ADD SLT ISZERO PUSH2 0x2B05 JUMPI PUSH1 0x0 DUP1 REVERT JUMPDEST POP SWAP3 SWAP6 SWAP2 SWAP5 POP SWAP3 PUSH1 0x60 ADD SWAP2 POP JUMP JUMPDEST DUP2 MLOAD PUSH1 0x1 PUSH1 0x1 PUSH1 0xA0 SHL SUB AND DUP2 MSTORE PUSH1 0x20 DUP1 DUP4 ADD MLOAD SWAP1 DUP3 ADD MSTORE PUSH1 0x40 DUP2 ADD JUMPDEST SWAP3 SWAP2 POP POP JUMP JUMPDEST PUSH1 0x0 DUP1 PUSH1 0x40 DUP4 DUP6 SUB SLT ISZERO PUSH2 0x2B48 JUMPI PUSH1 0x0 DUP1 REVERT JUMPDEST DUP3 CALLDATALOAD PUSH2 0x2B53 DUP2 PUSH2 0x27DD JUMP JUMPDEST SWAP5 PUSH1 0x20 SWAP4 SWAP1 SWAP4 ADD CALLDATALOAD SWAP4 POP POP POP JUMP JUMPDEST PUSH1 0x0 DUP1 DUP4 PUSH1 0x1F DUP5 ADD SLT PUSH2 0x2B73 JUMPI PUSH1 0x0 DUP1 REVERT JUMPDEST POP DUP2 CALLDATALOAD PUSH1 0x1 PUSH1 0x1 PUSH1 0x40 SHL SUB DUP2 GT ISZERO PUSH2 0x2B8A JUMPI PUSH1 0x0 DUP1 REVERT JUMPDEST PUSH1 0x20 DUP4 ADD SWAP2 POP DUP4 PUSH1 0x20 DUP3 DUP6 ADD ADD GT ISZERO PUSH2 0x2BA2 JUMPI PUSH1 0x0 DUP1 REVERT JUMPDEST SWAP3 POP SWAP3 SWAP1 POP JUMP JUMPDEST PUSH1 0x0 DUP1 DUP4 PUSH1 0x1F DUP5 ADD SLT PUSH2 0x2BBB JUMPI PUSH1 0x0 DUP1 REVERT JUMPDEST POP DUP2 CALLDATALOAD PUSH1 0x1 PUSH1 0x1 PUSH1 0x40 SHL SUB DUP2 GT ISZERO PUSH2 0x2BD2 JUMPI PUSH1 0x0 DUP1 REVERT JUMPDEST PUSH1 0x20 DUP4 ADD SWAP2 POP DUP4 PUSH1 0x20 DUP3 PUSH1 0x5 SHL DUP6 ADD ADD GT ISZERO PUSH2 0x2BA2 JUMPI PUSH1 0x0 DUP1 REVERT JUMPDEST PUSH1 0x0 PUSH1 0x60 DUP3 DUP5 SUB SLT ISZERO PUSH2 0x2BFF JUMPI PUSH1 0x0 DUP1 REVERT JUMPDEST PUSH2 0x2C07 PUSH2 0x271E JUMP JUMPDEST SWAP1 POP DUP2 CALLDATALOAD DUP2 MSTORE PUSH1 0x20 DUP3 ADD CALLDATALOAD PUSH1 0x20 DUP3 ADD MSTORE PUSH1 0x40 DUP3 ADD CALLDATALOAD PUSH1 0x1 PUSH1 0x1 PUSH1 0x40 SHL SUB DUP2 GT ISZERO PUSH2 0x2C30 JUMPI PUSH1 0x0 DUP1 REVERT JUMPDEST PUSH2 0x2C3C DUP5 DUP3 DUP6 ADD PUSH2 0x2829 JUMP JUMPDEST PUSH1 0x40 DUP4 ADD MSTORE POP SWAP3 SWAP2 POP POP JUMP JUMPDEST PUSH1 0x0 DUP1 PUSH1 0x0 DUP1 PUSH1 0x0 DUP1 PUSH1 0x0 DUP1 PUSH1 0x0 DUP1 PUSH1 0xE0 DUP12 DUP14 SUB SLT ISZERO PUSH2 0x2C67 JUMPI PUSH1 0x0 DUP1 REVERT JUMPDEST PUSH2 0x2C70 DUP12 PUSH2 0x27F2 JUMP JUMPDEST SWAP10 POP PUSH1 0x20 DUP12 ADD CALLDATALOAD SWAP9 POP PUSH1 0x40 DUP12 ADD CALLDATALOAD PUSH1 0x1 PUSH1 0x1 PUSH1 0x40 SHL SUB DUP1 DUP3 GT ISZERO PUSH2 0x2C93 JUMPI PUSH1 0x0 DUP1 REVERT JUMPDEST PUSH2 0x2C9F DUP15 DUP4 DUP16 ADD PUSH2 0x2B61 JUMP JUMPDEST SWAP1 SWAP11 POP SWAP9 POP PUSH1 0x60 DUP14 ADD CALLDATALOAD SWAP2 POP DUP1 DUP3 GT ISZERO PUSH2 0x2CB8 JUMPI PUSH1 0x0 DUP1 REVERT JUMPDEST PUSH2 0x2CC4 DUP15 DUP4 DUP16 ADD PUSH2 0x2BA9 JUMP JUMPDEST SWAP1 SWAP9 POP SWAP7 POP DUP7 SWAP2 POP PUSH2 0x2CD8 PUSH1 0x80 DUP15 ADD PUSH2 0x27F2 JUMP JUMPDEST SWAP6 POP PUSH1 0xA0 DUP14 ADD CALLDATALOAD SWAP2 POP DUP1 DUP3 GT ISZERO PUSH2 0x2CEE JUMPI PUSH1 0x0 DUP1 REVERT JUMPDEST PUSH2 0x2CFA DUP15 DUP4 DUP16 ADD PUSH2 0x2B61 JUMP JUMPDEST SWAP1 SWAP6 POP SWAP4 POP PUSH1 0xC0 DUP14 ADD CALLDATALOAD SWAP2 POP DUP1 DUP3 GT ISZERO PUSH2 0x2D13 JUMPI PUSH1 0x0 DUP1 REVERT JUMPDEST POP PUSH2 0x2D20 DUP14 DUP3 DUP15 ADD PUSH2 0x2BED JUMP JUMPDEST SWAP2 POP POP SWAP3 SWAP6 SWAP9 SWAP12 SWAP2 SWAP5 SWAP8 SWAP11 POP SWAP3 SWAP6 SWAP9 POP JUMP JUMPDEST PUSH1 0x20 DUP1 DUP3 MSTORE DUP3 MLOAD DUP3 DUP3 ADD DUP2 SWAP1 MSTORE PUSH1 0x0 SWAP2 SWAP1 PUSH1 0x40 SWAP1 DUP2 DUP6 ADD SWAP1 DUP7 DUP5 ADD DUP6 JUMPDEST DUP3 DUP2 LT ISZERO PUSH2 0x2D85 JUMPI PUSH2 0x2D75 DUP5 DUP4 MLOAD DUP1 MLOAD PUSH1 0x1 PUSH1 0x1 PUSH1 0xA0 SHL SUB AND DUP3 MSTORE PUSH1 0x20 SWAP1 DUP2 ADD MLOAD SWAP2 ADD MSTORE JUMP JUMPDEST SWAP3 DUP5 ADD SWAP3 SWAP1 DUP6 ADD SWAP1 PUSH1 0x1 ADD PUSH2 0x2D4F JUMP JUMPDEST POP SWAP2 SWAP8 SWAP7 POP POP POP POP POP POP POP JUMP JUMPDEST PUSH1 0x0 DUP1 DUP4 PUSH1 0x1F DUP5 ADD SLT PUSH2 0x2DA4 JUMPI PUSH1 0x0 DUP1 REVERT JUMPDEST POP DUP2 CALLDATALOAD PUSH1 0x1 PUSH1 0x1 PUSH1 0x40 SHL SUB DUP2 GT ISZERO PUSH2 0x2DBB JUMPI PUSH1 0x0 DUP1 REVERT JUMPDEST PUSH1 0x20 DUP4 ADD SWAP2 POP DUP4 PUSH1 0x20 PUSH1 0x60 DUP4 MUL DUP6 ADD ADD GT ISZERO PUSH2 0x2BA2 JUMPI PUSH1 0x0 DUP1 REVERT JUMPDEST DUP1 CALLDATALOAD PUSH1 0xFF DUP2 AND DUP2 EQ PUSH2 0x27FD JUMPI PUSH1 0x0 DUP1 REVERT JUMPDEST PUSH1 0x0 DUP3 PUSH1 0x1F DUP4 ADD SLT PUSH2 0x2DF8 JUMPI PUSH1 0x0 DUP1 REVERT JUMPDEST DUP2 CALLDATALOAD PUSH1 0x20 PUSH2 0x2E08 PUSH2 0x2848 DUP4 PUSH2 0x27BA JUMP JUMPDEST DUP3 DUP2 MSTORE PUSH1 0xC0 SWAP3 DUP4 MUL DUP6 ADD DUP3 ADD SWAP3 DUP3 DUP3 ADD SWAP2 SWAP1 DUP8 DUP6 GT ISZERO PUSH2 0x2E27 JUMPI PUSH1 0x0 DUP1 REVERT JUMPDEST DUP4 DUP8 ADD JUMPDEST DUP6 DUP2 LT ISZERO PUSH2 0x2E9C JUMPI DUP2 DUP2 DUP11 SUB SLT ISZERO PUSH2 0x2E43 JUMPI PUSH1 0x0 DUP1 DUP2 REVERT JUMPDEST PUSH2 0x2E4B PUSH2 0x2768 JUMP JUMPDEST DUP2 CALLDATALOAD PUSH2 0x2E56 DUP2 PUSH2 0x27DD JUMP JUMPDEST DUP2 MSTORE DUP2 DUP7 ADD CALLDATALOAD DUP7 DUP3 ADD MSTORE PUSH1 0x40 DUP1 DUP4 ADD CALLDATALOAD SWAP1 DUP3 ADD MSTORE PUSH1 0x60 PUSH2 0x2E77 DUP2 DUP5 ADD PUSH2 0x2DD6 JUMP JUMPDEST SWAP1 DUP3 ADD MSTORE PUSH1 0x80 DUP3 DUP2 ADD CALLDATALOAD SWAP1 DUP3 ADD MSTORE PUSH1 0xA0 DUP1 DUP4 ADD CALLDATALOAD SWAP1 DUP3 ADD MSTORE DUP5 MSTORE SWAP3 DUP5 ADD SWAP3 DUP2 ADD PUSH2 0x2E2B JUMP JUMPDEST POP SWAP1 SWAP8 SWAP7 POP POP POP POP POP POP POP JUMP JUMPDEST PUSH1 0x0 DUP1 PUSH1 0x0 DUP1 PUSH1 0x0 DUP1 PUSH1 0x0 DUP1 PUSH1 0x0 DUP1 PUSH1 0x0 PUSH2 0x100 DUP13 DUP15 SUB SLT ISZERO PUSH2 0x2ECB JUMPI PUSH1 0x0 DUP1 REVERT JUMPDEST PUSH2 0x2ED4 DUP13 PUSH2 0x27F2 JUMP JUMPDEST SWAP11 POP PUSH1 0x1 PUSH1 0x1 PUSH1 0x40 SHL SUB DUP1 PUSH1 0x20 DUP15 ADD CALLDATALOAD GT ISZERO PUSH2 0x2EEF JUMPI PUSH1 0x0 DUP1 REVERT JUMPDEST PUSH2 0x2EFF DUP15 PUSH1 0x20 DUP16 ADD CALLDATALOAD DUP16 ADD PUSH2 0x2D92 JUMP JUMPDEST SWAP1 SWAP12 POP SWAP10 POP PUSH1 0x40 DUP14 ADD CALLDATALOAD DUP2 LT ISZERO PUSH2 0x2F15 JUMPI PUSH1 0x0 DUP1 REVERT JUMPDEST PUSH2 0x2F25 DUP15 PUSH1 0x40 DUP16 ADD CALLDATALOAD DUP16 ADD PUSH2 0x2B61 JUMP JUMPDEST SWAP1 SWAP10 POP SWAP8 POP PUSH1 0x60 DUP14 ADD CALLDATALOAD SWAP7 POP PUSH2 0x2F3D PUSH1 0x80 DUP15 ADD PUSH2 0x27F2 JUMP JUMPDEST SWAP6 POP DUP1 PUSH1 0xA0 DUP15 ADD CALLDATALOAD GT ISZERO PUSH2 0x2F50 JUMPI PUSH1 0x0 DUP1 REVERT JUMPDEST PUSH2 0x2F60 DUP15 PUSH1 0xA0 DUP16 ADD CALLDATALOAD DUP16 ADD PUSH2 0x2B61 JUMP JUMPDEST SWAP1 SWAP6 POP SWAP4 POP PUSH1 0xC0 DUP14 ADD CALLDATALOAD DUP2 LT ISZERO PUSH2 0x2F76 JUMPI PUSH1 0x0 DUP1 REVERT JUMPDEST POP PUSH2 0x2F87 DUP14 PUSH1 0xC0 DUP15 ADD CALLDATALOAD DUP15 ADD PUSH2 0x2DE7 JUMP JUMPDEST SWAP2 POP PUSH2 0x2F95 PUSH1 0xE0 DUP14 ADD PUSH2 0x27F2 JUMP JUMPDEST SWAP1 POP SWAP3 SWAP6 SWAP9 SWAP12 POP SWAP3 SWAP6 SWAP9 SWAP12 SWAP1 SWAP4 SWAP7 SWAP10 POP JUMP JUMPDEST PUSH1 0x0 DUP1 PUSH1 0x0 DUP1 PUSH1 0x0 DUP1 PUSH1 0xC0 DUP8 DUP10 SUB SLT ISZERO PUSH2 0x2FC0 JUMPI PUSH1 0x0 DUP1 REVERT JUMPDEST DUP7 CALLDATALOAD PUSH2 0x2FCB DUP2 PUSH2 0x27DD JUMP JUMPDEST SWAP6 POP PUSH1 0x20 DUP8 ADD CALLDATALOAD SWAP5 POP PUSH1 0x40 DUP8 ADD CALLDATALOAD SWAP4 POP PUSH2 0x2FE7 PUSH1 0x60 DUP9 ADD PUSH2 0x2DD6 JUMP JUMPDEST SWAP3 POP PUSH1 0x80 DUP8 ADD CALLDATALOAD SWAP2 POP PUSH1 0xA0 DUP8 ADD CALLDATALOAD SWAP1 POP SWAP3 SWAP6 POP SWAP3 SWAP6 POP SWAP3 SWAP6 JUMP JUMPDEST PUSH1 0x0 DUP1 PUSH1 0x40 DUP4 DUP6 SUB SLT ISZERO PUSH2 0x3014 JUMPI PUSH1 0x0 DUP1 REVERT JUMPDEST DUP3 CALLDATALOAD PUSH2 0x301F DUP2 PUSH2 0x27DD JUMP JUMPDEST SWAP2 POP PUSH1 0x20 DUP4 ADD CALLDATALOAD PUSH2 0x302F DUP2 PUSH2 0x27DD JUMP JUMPDEST DUP1 SWAP2 POP POP SWAP3 POP SWAP3 SWAP1 POP JUMP JUMPDEST PUSH1 0x0 DUP1 PUSH1 0x0 DUP1 PUSH1 0x0 DUP1 PUSH1 0xC0 DUP8 DUP10 SUB SLT ISZERO PUSH2 0x3053 JUMPI PUSH1 0x0 DUP1 REVERT JUMPDEST DUP7 CALLDATALOAD PUSH2 0x305E DUP2 PUSH2 0x27DD JUMP JUMPDEST SWAP6 POP PUSH1 0x20 DUP8 ADD CALLDATALOAD SWAP5 POP PUSH1 0x40 DUP8 ADD CALLDATALOAD PUSH1 0x1 PUSH1 0x1 PUSH1 0x40 SHL SUB DUP1 DUP3 GT ISZERO PUSH2 0x3081 JUMPI PUSH1 0x0 DUP1 REVERT JUMPDEST PUSH2 0x308D DUP11 DUP4 DUP12 ADD PUSH2 0x2829 JUMP JUMPDEST SWAP6 POP PUSH1 0x60 DUP10 ADD CALLDATALOAD SWAP5 POP PUSH1 0x80 DUP10 ADD CALLDATALOAD SWAP2 POP PUSH2 0x30A6 DUP3 PUSH2 0x27DD JUMP JUMPDEST SWAP1 SWAP3 POP PUSH1 0xA0 DUP9 ADD CALLDATALOAD SWAP1 DUP1 DUP3 GT ISZERO PUSH2 0x30BC JUMPI PUSH1 0x0 DUP1 REVERT JUMPDEST POP PUSH2 0x30C9 DUP10 DUP3 DUP11 ADD PUSH2 0x2829 JUMP JUMPDEST SWAP2 POP POP SWAP3 SWAP6 POP SWAP3 SWAP6 POP SWAP3 SWAP6 JUMP JUMPDEST PUSH1 0x0 DUP1 PUSH1 0x0 DUP1 PUSH1 0x80 DUP6 DUP8 SUB SLT ISZERO PUSH2 0x30EC JUMPI PUSH1 0x0 DUP1 REVERT JUMPDEST DUP5 CALLDATALOAD PUSH2 0x30F7 DUP2 PUSH2 0x27DD JUMP JUMPDEST SWAP4 POP PUSH1 0x20 DUP6 ADD CALLDATALOAD PUSH2 0x3107 DUP2 PUSH2 0x27DD JUMP JUMPDEST SWAP3 POP PUSH1 0x40 DUP6 ADD CALLDATALOAD SWAP2 POP PUSH1 0x60 DUP6 ADD CALLDATALOAD PUSH2 0x311E DUP2 PUSH2 0x27DD JUMP JUMPDEST SWAP4 SWAP7 SWAP3 SWAP6 POP SWAP1 SWAP4 POP POP JUMP JUMPDEST PUSH1 0x0 DUP1 PUSH1 0x0 DUP1 PUSH1 0x0 PUSH1 0x80 DUP7 DUP9 SUB SLT ISZERO PUSH2 0x3141 JUMPI PUSH1 0x0 DUP1 REVERT JUMPDEST DUP6 CALLDATALOAD PUSH2 0x314C DUP2 PUSH2 0x27DD JUMP JUMPDEST SWAP5 POP PUSH1 0x20 DUP7 ADD CALLDATALOAD SWAP4 POP PUSH1 0x40 DUP7 ADD CALLDATALOAD SWAP3 POP PUSH1 0x60 DUP7 ADD CALLDATALOAD PUSH1 0x1 PUSH1 0x1 PUSH1 0x40 SHL SUB DUP2 GT ISZERO PUSH2 0x3175 JUMPI PUSH1 0x0 DUP1 REVERT JUMPDEST PUSH2 0x3181 DUP9 DUP3 DUP10 ADD PUSH2 0x2B61 JUMP JUMPDEST SWAP7 SWAP10 SWAP6 SWAP9 POP SWAP4 SWAP7 POP SWAP3 SWAP5 SWAP4 SWAP3 POP POP POP JUMP JUMPDEST PUSH1 0x0 PUSH1 0x60 DUP3 DUP5 SUB SLT ISZERO PUSH2 0x31A4 JUMPI PUSH1 0x0 DUP1 REVERT JUMPDEST POP SWAP2 SWAP1 POP JUMP JUMPDEST PUSH1 0x0 DUP1 PUSH1 0x0 DUP1 PUSH1 0x0 DUP1 PUSH1 0x0 PUSH1 0xE0 DUP9 DUP11 SUB SLT ISZERO PUSH2 0x31C5 JUMPI PUSH1 0x0 DUP1 REVERT JUMPDEST DUP8 CALLDATALOAD PUSH2 0x31D0 DUP2 PUSH2 0x27DD JUMP JUMPDEST SWAP7 POP PUSH1 0x20 DUP9 ADD CALLDATALOAD SWAP6 POP PUSH1 0x40 DUP9 ADD CALLDATALOAD PUSH1 0x1 PUSH1 0x1 PUSH1 0x40 SHL SUB DUP1 DUP3 GT ISZERO PUSH2 0x31F3 JUMPI PUSH1 0x0 DUP1 REVERT JUMPDEST PUSH2 0x31FF DUP12 DUP4 DUP13 ADD PUSH2 0x2829 JUMP JUMPDEST SWAP7 POP PUSH1 0x60 DUP11 ADD CALLDATALOAD SWAP6 POP PUSH1 0x80 DUP11 ADD CALLDATALOAD SWAP2 POP PUSH2 0x3218 DUP3 PUSH2 0x27DD JUMP JUMPDEST SWAP1 SWAP4 POP PUSH1 0xA0 DUP10 ADD CALLDATALOAD SWAP1 DUP1 DUP3 GT ISZERO PUSH2 0x322E JUMPI PUSH1 0x0 DUP1 REVERT JUMPDEST PUSH2 0x323A DUP12 DUP4 DUP13 ADD PUSH2 0x2829 JUMP JUMPDEST SWAP4 POP PUSH1 0xC0 DUP11 ADD CALLDATALOAD SWAP2 POP DUP1 DUP3 GT ISZERO PUSH2 0x3250 JUMPI PUSH1 0x0 DUP1 REVERT JUMPDEST POP PUSH2 0x325D DUP11 DUP3 DUP12 ADD PUSH2 0x3192 JUMP JUMPDEST SWAP2 POP POP SWAP3 SWAP6 SWAP9 SWAP2 SWAP5 SWAP8 POP SWAP3 SWAP6 POP JUMP JUMPDEST PUSH1 0x0 DUP1 PUSH1 0x0 PUSH1 0x40 DUP5 DUP7 SUB SLT ISZERO PUSH2 0x3281 JUMPI PUSH1 0x0 DUP1 REVERT JUMPDEST DUP4 CALLDATALOAD PUSH2 0x328C DUP2 PUSH2 0x27DD JUMP JUMPDEST SWAP3 POP PUSH1 0x20 DUP5 ADD CALLDATALOAD PUSH1 0x1 PUSH1 0x1 PUSH1 0x40 SHL SUB DUP2 GT ISZERO PUSH2 0x32A7 JUMPI PUSH1 0x0 DUP1 REVERT JUMPDEST PUSH2 0x32B3 DUP7 DUP3 DUP8 ADD PUSH2 0x2B61 JUMP JUMPDEST SWAP5 SWAP8 SWAP1 SWAP7 POP SWAP4 SWAP5 POP POP POP POP JUMP JUMPDEST PUSH1 0x0 DUP1 PUSH1 0x20 DUP4 DUP6 SUB SLT ISZERO PUSH2 0x32D3 JUMPI PUSH1 0x0 DUP1 REVERT JUMPDEST DUP3 CALLDATALOAD PUSH1 0x1 PUSH1 0x1 PUSH1 0x40 SHL SUB DUP2 GT ISZERO PUSH2 0x32E9 JUMPI PUSH1 0x0 DUP1 REVERT JUMPDEST PUSH2 0x32F5 DUP6 DUP3 DUP7 ADD PUSH2 0x2BA9 JUMP JUMPDEST SWAP1 SWAP7 SWAP1 SWAP6 POP SWAP4 POP POP POP POP JUMP JUMPDEST PUSH1 0x0 JUMPDEST DUP4 DUP2 LT ISZERO PUSH2 0x331C JUMPI DUP2 DUP2 ADD MLOAD DUP4 DUP3 ADD MSTORE PUSH1 0x20 ADD PUSH2 0x3304 JUMP JUMPDEST POP POP PUSH1 0x0 SWAP2 ADD MSTORE JUMP JUMPDEST PUSH1 0x0 DUP2 MLOAD DUP1 DUP5 MSTORE PUSH2 0x333D DUP2 PUSH1 0x20 DUP7 ADD PUSH1 0x20 DUP7 ADD PUSH2 0x3301 JUMP JUMPDEST PUSH1 0x1F ADD PUSH1 0x1F NOT AND SWAP3 SWAP1 SWAP3 ADD PUSH1 0x20 ADD SWAP3 SWAP2 POP POP JUMP JUMPDEST PUSH1 0x0 PUSH1 0x20 DUP1 DUP4 ADD PUSH1 0x20 DUP5 MSTORE DUP1 DUP6 MLOAD DUP1 DUP4 MSTORE PUSH1 0x40 DUP7 ADD SWAP2 POP PUSH1 0x40 DUP2 PUSH1 0x5 SHL DUP8 ADD ADD SWAP3 POP PUSH1 0x20 DUP8 ADD PUSH1 0x0 JUMPDEST DUP3 DUP2 LT ISZERO PUSH2 0x33A8 JUMPI PUSH1 0x3F NOT DUP9 DUP7 SUB ADD DUP5 MSTORE PUSH2 0x3396 DUP6 DUP4 MLOAD PUSH2 0x3325 JUMP JUMPDEST SWAP5 POP SWAP3 DUP6 ADD SWAP3 SWAP1 DUP6 ADD SWAP1 PUSH1 0x1 ADD PUSH2 0x337A JUMP JUMPDEST POP SWAP3 SWAP8 SWAP7 POP POP POP POP POP POP POP JUMP JUMPDEST PUSH1 0x0 DUP1 PUSH1 0x0 DUP1 PUSH1 0x0 DUP1 PUSH1 0x0 DUP1 PUSH1 0x0 PUSH1 0xC0 DUP11 DUP13 SUB SLT ISZERO PUSH2 0x33D3 JUMPI PUSH1 0x0 DUP1 REVERT JUMPDEST DUP10 CALLDATALOAD PUSH2 0x33DE DUP2 PUSH2 0x27DD JUMP JUMPDEST SWAP9 POP PUSH1 0x20 DUP11 ADD CALLDATALOAD SWAP8 POP PUSH1 0x40 DUP11 ADD CALLDATALOAD PUSH1 0x1 PUSH1 0x1 PUSH1 0x40 SHL SUB DUP1 DUP3 GT ISZERO PUSH2 0x3401 JUMPI PUSH1 0x0 DUP1 REVERT JUMPDEST PUSH2 0x340D DUP14 DUP4 DUP15 ADD PUSH2 0x2B61 JUMP JUMPDEST SWAP1 SWAP10 POP SWAP8 POP PUSH1 0x60 DUP13 ADD CALLDATALOAD SWAP2 POP DUP1 DUP3 GT ISZERO PUSH2 0x3426 JUMPI PUSH1 0x0 DUP1 REVERT JUMPDEST PUSH2 0x3432 DUP14 DUP4 DUP15 ADD PUSH2 0x2BA9 JUMP JUMPDEST SWAP1 SWAP8 POP SWAP6 POP PUSH1 0x80 DUP13 ADD CALLDATALOAD SWAP2 POP PUSH2 0x3447 DUP3 PUSH2 0x27DD JUMP JUMPDEST SWAP1 SWAP4 POP PUSH1 0xA0 DUP12 ADD CALLDATALOAD SWAP1 DUP1 DUP3 GT ISZERO PUSH2 0x345D JUMPI PUSH1 0x0 DUP1 REVERT JUMPDEST POP PUSH2 0x346A DUP13 DUP3 DUP14 ADD PUSH2 0x2B61 JUMP JUMPDEST SWAP2 POP DUP1 SWAP4 POP POP DUP1 SWAP2 POP POP SWAP3 SWAP6 SWAP9 POP SWAP3 SWAP6 SWAP9 POP SWAP3 SWAP6 SWAP9 JUMP JUMPDEST PUSH1 0x0 DUP1 PUSH1 0x0 PUSH1 0x60 DUP5 DUP7 SUB SLT ISZERO PUSH2 0x3496 JUMPI PUSH1 0x0 DUP1 REVERT JUMPDEST DUP4 CALLDATALOAD PUSH2 0x34A1 DUP2 PUSH2 0x27DD JUMP JUMPDEST SWAP3 POP PUSH1 0x20 DUP5 ADD CALLDATALOAD PUSH2 0x34B1 DUP2 PUSH2 0x27DD JUMP JUMPDEST SWAP3 SWAP6 SWAP3 SWAP5 POP POP POP PUSH1 0x40 SWAP2 SWAP1 SWAP2 ADD CALLDATALOAD SWAP1 JUMP JUMPDEST PUSH1 0x0 PUSH1 0x20 DUP3 DUP5 SUB SLT ISZERO PUSH2 0x34D4 JUMPI PUSH1 0x0 DUP1 REVERT JUMPDEST DUP2 CALLDATALOAD PUSH2 0x34DF DUP2 PUSH2 0x27DD JUMP JUMPDEST SWAP4 SWAP3 POP POP POP JUMP JUMPDEST PUSH1 0x0 DUP1 PUSH1 0x0 PUSH1 0x60 DUP5 DUP7 SUB SLT ISZERO PUSH2 0x34FB JUMPI PUSH1 0x0 DUP1 REVERT JUMPDEST DUP4 CALLDATALOAD PUSH1 0x1 PUSH1 0x1 PUSH1 0x40 SHL SUB DUP2 GT ISZERO PUSH2 0x3511 JUMPI PUSH1 0x0 DUP1 REVERT JUMPDEST PUSH2 0x351D DUP7 DUP3 DUP8 ADD PUSH2 0x2898 JUMP JUMPDEST SWAP7 PUSH1 0x20 DUP7 ADD CALLDATALOAD SWAP7 POP PUSH1 0x40 SWAP1 SWAP6 ADD CALLDATALOAD SWAP5 SWAP4 POP POP POP POP JUMP JUMPDEST PUSH1 0x0 DUP1 PUSH1 0x0 DUP1 PUSH1 0x0 DUP1 PUSH1 0x0 DUP1 PUSH1 0x0 DUP1 PUSH1 0xE0 DUP12 DUP14 SUB SLT ISZERO PUSH2 0x3552 JUMPI PUSH1 0x0 DUP1 REVERT JUMPDEST DUP11 CALLDATALOAD PUSH2 0x355D DUP2 PUSH2 0x27DD JUMP JUMPDEST SWAP10 POP PUSH1 0x20 DUP12 ADD CALLDATALOAD PUSH1 0x1 PUSH1 0x1 PUSH1 0x40 SHL SUB DUP1 DUP3 GT ISZERO PUSH2 0x3579 JUMPI PUSH1 0x0 DUP1 REVERT JUMPDEST PUSH2 0x3585 DUP15 DUP4 DUP16 ADD PUSH2 0x2D92 JUMP JUMPDEST SWAP1 SWAP12 POP SWAP10 POP PUSH1 0x40 DUP14 ADD CALLDATALOAD SWAP2 POP DUP1 DUP3 GT ISZERO PUSH2 0x359E JUMPI PUSH1 0x0 DUP1 REVERT JUMPDEST PUSH2 0x35AA DUP15 DUP4 DUP16 ADD PUSH2 0x2B61 JUMP JUMPDEST SWAP1 SWAP10 POP SWAP8 POP PUSH1 0x60 DUP14 ADD CALLDATALOAD SWAP7 POP PUSH1 0x80 DUP14 ADD CALLDATALOAD SWAP2 POP PUSH2 0x35C6 DUP3 PUSH2 0x27DD JUMP JUMPDEST SWAP1 SWAP5 POP PUSH1 0xA0 DUP13 ADD CALLDATALOAD SWAP1 DUP1 DUP3 GT ISZERO PUSH2 0x35DC JUMPI PUSH1 0x0 DUP1 REVERT JUMPDEST POP PUSH2 0x35E9 DUP14 DUP3 DUP15 ADD PUSH2 0x2B61 JUMP JUMPDEST SWAP1 SWAP5 POP SWAP3 POP PUSH2 0x35FC SWAP1 POP PUSH1 0xC0 DUP13 ADD PUSH2 0x27F2 JUMP JUMPDEST SWAP1 POP SWAP3 SWAP6 SWAP9 SWAP12 SWAP2 SWAP5 SWAP8 SWAP11 POP SWAP3 SWAP6 SWAP9 POP JUMP JUMPDEST PUSH1 0x20 DUP1 DUP3 MSTORE PUSH1 0x14 SWAP1 DUP3 ADD MSTORE PUSH20 0x10DBDB9D1C9858DD081A5CC8191A5CD8589B1959 PUSH1 0x62 SHL PUSH1 0x40 DUP3 ADD MSTORE PUSH1 0x60 ADD SWAP1 JUMP JUMPDEST PUSH1 0x0 PUSH1 0x20 DUP3 DUP5 SUB SLT ISZERO PUSH2 0x364D JUMPI PUSH1 0x0 DUP1 REVERT JUMPDEST PUSH2 0x34DF DUP3 PUSH2 0x2DD6 JUMP JUMPDEST PUSH1 0x1 PUSH1 0x1 PUSH1 0xA0 SHL SUB SWAP8 DUP9 AND DUP2 MSTORE SWAP6 SWAP1 SWAP7 AND PUSH1 0x20 DUP7 ADD MSTORE PUSH1 0x40 DUP6 ADD SWAP4 SWAP1 SWAP4 MSTORE PUSH1 0x60 DUP5 ADD SWAP2 SWAP1 SWAP2 MSTORE PUSH1 0xFF AND PUSH1 0x80 DUP4 ADD MSTORE PUSH1 0xA0 DUP3 ADD MSTORE PUSH1 0xC0 DUP2 ADD SWAP2 SWAP1 SWAP2 MSTORE PUSH1 0xE0 ADD SWAP1 JUMP JUMPDEST PUSH1 0x0 PUSH1 0x40 DUP3 ADD PUSH1 0x40 DUP4 MSTORE DUP1 DUP6 MLOAD DUP1 DUP4 MSTORE PUSH1 0x60 DUP6 ADD SWAP2 POP PUSH1 0x60 DUP2 PUSH1 0x5 SHL DUP7 ADD ADD SWAP3 POP PUSH1 0x20 DUP1 DUP9 ADD PUSH1 0x0 JUMPDEST DUP4 DUP2 LT ISZERO PUSH2 0x37AC JUMPI PUSH1 0x5F NOT DUP9 DUP8 SUB ADD DUP6 MSTORE DUP2 MLOAD DUP1 MLOAD PUSH1 0x60 DUP1 DUP10 MSTORE DUP2 MLOAD SWAP1 DUP10 ADD DUP2 SWAP1 MSTORE PUSH1 0x80 PUSH1 0x5 DUP3 SWAP1 SHL DUP11 ADD DUP2 ADD SWAP3 DUP8 ADD SWAP2 SWAP1 DUP11 ADD SWAP1 PUSH1 0x0 JUMPDEST DUP2 DUP2 LT ISZERO PUSH2 0x377C JUMPI DUP12 DUP6 SUB PUSH1 0x7F NOT ADD DUP4 MSTORE DUP4 MLOAD DUP1 MLOAD PUSH1 0x1 PUSH1 0x1 PUSH1 0xA0 SHL SUB SWAP1 DUP2 AND DUP8 MSTORE DUP11 DUP3 ADD MLOAD PUSH1 0xA0 DUP13 DUP10 ADD DUP2 SWAP1 MSTORE PUSH2 0x3732 SWAP1 DUP10 ADD DUP3 PUSH2 0x3325 JUMP JUMPDEST SWAP1 POP DUP2 PUSH1 0x40 DUP5 ADD MLOAD AND PUSH1 0x40 DUP10 ADD MSTORE PUSH1 0x60 DUP4 ADD MLOAD SWAP2 POP DUP8 DUP2 SUB PUSH1 0x60 DUP10 ADD MSTORE PUSH2 0x3759 DUP2 DUP4 PUSH2 0x3325 JUMP JUMPDEST PUSH1 0x80 SWAP4 DUP5 ADD MLOAD ISZERO ISZERO SWAP9 SWAP1 SWAP4 ADD SWAP8 SWAP1 SWAP8 MSTORE POP SWAP5 POP SWAP3 DUP9 ADD SWAP3 SWAP2 DUP9 ADD SWAP2 PUSH1 0x1 ADD PUSH2 0x36F8 JUMP JUMPDEST POP POP POP POP DUP5 DUP3 ADD MLOAD PUSH1 0x1 PUSH1 0x1 PUSH1 0xA0 SHL SUB AND DUP9 DUP7 ADD MSTORE PUSH1 0x40 SWAP2 DUP3 ADD MLOAD SWAP2 SWAP1 SWAP8 ADD MSTORE SWAP4 DUP3 ADD SWAP4 SWAP1 DUP3 ADD SWAP1 PUSH1 0x1 ADD PUSH2 0x36C0 JUMP JUMPDEST POP POP SWAP5 SWAP1 SWAP5 ADD SWAP5 SWAP1 SWAP5 MSTORE SWAP5 SWAP4 POP POP POP POP JUMP JUMPDEST PUSH1 0x1 PUSH1 0x1 PUSH1 0xA0 SHL SUB DUP7 DUP2 AND DUP3 MSTORE DUP6 AND PUSH1 0x20 DUP3 ADD MSTORE PUSH1 0x40 DUP2 ADD DUP5 SWAP1 MSTORE PUSH1 0x60 DUP2 ADD DUP4 SWAP1 MSTORE PUSH1 0xA0 PUSH1 0x80 DUP3 ADD DUP2 SWAP1 MSTORE PUSH1 0x0 SWAP1 PUSH2 0xBDA SWAP1 DUP4 ADD DUP5 PUSH2 0x3325 JUMP JUMPDEST PUSH4 0x4E487B71 PUSH1 0xE0 SHL PUSH1 0x0 MSTORE PUSH1 0x32 PUSH1 0x4 MSTORE PUSH1 0x24 PUSH1 0x0 REVERT JUMPDEST PUSH1 0x0 PUSH1 0x20 DUP3 DUP5 SUB SLT ISZERO PUSH2 0x3820 JUMPI PUSH1 0x0 DUP1 REVERT JUMPDEST POP MLOAD SWAP2 SWAP1 POP JUMP JUMPDEST DUP2 DUP4 MSTORE DUP2 DUP2 PUSH1 0x20 DUP6 ADD CALLDATACOPY POP PUSH1 0x0 DUP3 DUP3 ADD PUSH1 0x20 SWAP1 DUP2 ADD SWAP2 SWAP1 SWAP2 MSTORE PUSH1 0x1F SWAP1 SWAP2 ADD PUSH1 0x1F NOT AND SWAP1 SWAP2 ADD ADD SWAP1 JUMP JUMPDEST PUSH1 0x1 PUSH1 0x1 PUSH1 0xA0 SHL SUB DUP8 DUP2 AND DUP3 MSTORE DUP7 AND PUSH1 0x20 DUP3 ADD MSTORE PUSH1 0x40 DUP2 ADD DUP6 SWAP1 MSTORE PUSH1 0x60 DUP2 ADD DUP5 SWAP1 MSTORE PUSH1 0xA0 PUSH1 0x80 DUP3 ADD DUP2 SWAP1 MSTORE PUSH1 0x0 SWAP1 PUSH2 0xF5D SWAP1 DUP4 ADD DUP5 DUP7 PUSH2 0x3827 JUMP JUMPDEST PUSH1 0x0 DUP1 DUP4 CALLDATALOAD PUSH1 0x1E NOT DUP5 CALLDATASIZE SUB ADD DUP2 SLT PUSH2 0x38A2 JUMPI PUSH1 0x0 DUP1 REVERT JUMPDEST DUP4 ADD DUP1 CALLDATALOAD SWAP2 POP PUSH1 0x1 PUSH1 0x1 PUSH1 0x40 SHL SUB DUP3 GT ISZERO PUSH2 0x38BC JUMPI PUSH1 0x0 DUP1 REVERT JUMPDEST PUSH1 0x20 ADD SWAP2 POP CALLDATASIZE DUP2 SWAP1 SUB DUP3 SGT ISZERO PUSH2 0x2BA2 JUMPI PUSH1 0x0 DUP1 REVERT JUMPDEST PUSH1 0x20 DUP2 MSTORE PUSH1 0x0 PUSH2 0x1005 PUSH1 0x20 DUP4 ADD DUP5 DUP7 PUSH2 0x3827 JUMP JUMPDEST PUSH1 0x0 PUSH1 0x20 DUP3 DUP5 SUB SLT ISZERO PUSH2 0x38F7 JUMPI PUSH1 0x0 DUP1 REVERT JUMPDEST DUP2 MLOAD PUSH2 0x34DF DUP2 PUSH2 0x27DD JUMP JUMPDEST DUP2 DUP4 DUP3 CALLDATACOPY PUSH1 0x0 SWAP2 ADD SWAP1 DUP2 MSTORE SWAP2 SWAP1 POP JUMP JUMPDEST PUSH1 0x0 PUSH1 0x20 DUP3 DUP5 SUB SLT ISZERO PUSH2 0x3924 JUMPI PUSH1 0x0 DUP1 REVERT JUMPDEST DUP2 MLOAD PUSH1 0x1 PUSH1 0x1 PUSH1 0x40 SHL SUB DUP2 GT ISZERO PUSH2 0x393A JUMPI PUSH1 0x0 DUP1 REVERT JUMPDEST DUP3 ADD PUSH1 0x1F DUP2 ADD DUP5 SGT PUSH2 0x394B JUMPI PUSH1 0x0 DUP1 REVERT JUMPDEST DUP1 MLOAD PUSH2 0x3959 PUSH2 0x2848 DUP3 PUSH2 0x2802 JUMP JUMPDEST DUP2 DUP2 MSTORE DUP6 PUSH1 0x20 DUP4 DUP6 ADD ADD GT ISZERO PUSH2 0x396E JUMPI PUSH1 0x0 DUP1 REVERT JUMPDEST PUSH2 0x14A0 DUP3 PUSH1 0x20 DUP4 ADD PUSH1 0x20 DUP7 ADD PUSH2 0x3301 JUMP JUMPDEST PUSH1 0x20 DUP2 MSTORE PUSH1 0x0 PUSH2 0x34DF PUSH1 0x20 DUP4 ADD DUP5 PUSH2 0x3325 JUMP JUMPDEST PUSH4 0x4E487B71 PUSH1 0xE0 SHL PUSH1 0x0 MSTORE PUSH1 0x11 PUSH1 0x4 MSTORE PUSH1 0x24 PUSH1 0x0 REVERT JUMPDEST DUP2 DUP2 SUB DUP2 DUP2 GT ISZERO PUSH2 0x2B2F JUMPI PUSH2 0x2B2F PUSH2 0x3992 JUMP JUMPDEST PUSH1 0x80 DUP2 MSTORE PUSH1 0x0 PUSH2 0x39CE PUSH1 0x80 DUP4 ADD DUP8 PUSH2 0x3325 JUMP JUMPDEST PUSH1 0x1 PUSH1 0x1 PUSH1 0xA0 SHL SUB DUP7 DUP2 AND PUSH1 0x20 DUP6 ADD MSTORE DUP6 AND PUSH1 0x40 DUP5 ADD MSTORE DUP3 DUP2 SUB PUSH1 0x60 DUP5 ADD MSTORE PUSH2 0xBDA DUP2 DUP6 PUSH2 0x3325 JUMP JUMPDEST PUSH1 0x0 PUSH1 0x40 DUP3 DUP5 SUB SLT ISZERO PUSH2 0x3A09 JUMPI PUSH1 0x0 DUP1 REVERT JUMPDEST PUSH1 0x40 MLOAD PUSH1 0x40 DUP2 ADD DUP2 DUP2 LT PUSH1 0x1 PUSH1 0x1 PUSH1 0x40 SHL SUB DUP3 GT OR ISZERO PUSH2 0x3A2B JUMPI PUSH2 0x3A2B PUSH2 0x2708 JUMP JUMPDEST DUP1 PUSH1 0x40 MSTORE POP DUP1 SWAP2 POP DUP3 MLOAD PUSH2 0x3A3E DUP2 PUSH2 0x27DD JUMP JUMPDEST DUP2 MSTORE PUSH1 0x20 SWAP3 DUP4 ADD MLOAD SWAP3 ADD SWAP2 SWAP1 SWAP2 MSTORE SWAP2 SWAP1 POP JUMP JUMPDEST PUSH1 0x0 PUSH1 0x40 DUP3 DUP5 SUB SLT ISZERO PUSH2 0x3A63 JUMPI PUSH1 0x0 DUP1 REVERT JUMPDEST PUSH2 0x34DF DUP4 DUP4 PUSH2 0x39F7 JUMP JUMPDEST DUP1 DUP3 ADD DUP1 DUP3 GT ISZERO PUSH2 0x2B2F JUMPI PUSH2 0x2B2F PUSH2 0x3992 JUMP JUMPDEST PUSH1 0x0 PUSH1 0x20 DUP3 DUP5 SUB SLT ISZERO PUSH2 0x3A92 JUMPI PUSH1 0x0 DUP1 REVERT JUMPDEST DUP2 MLOAD PUSH2 0x34DF DUP2 PUSH2 0x287F JUMP JUMPDEST PUSH1 0x80 DUP2 MSTORE PUSH1 0x0 PUSH2 0x3AB0 PUSH1 0x80 DUP4 ADD DUP9 PUSH2 0x3325 JUMP JUMPDEST PUSH1 0x1 PUSH1 0x1 PUSH1 0xA0 SHL SUB DUP8 DUP2 AND PUSH1 0x20 DUP6 ADD MSTORE DUP7 AND PUSH1 0x40 DUP5 ADD MSTORE DUP3 DUP2 SUB PUSH1 0x60 DUP5 ADD MSTORE PUSH2 0xF5D DUP2 DUP6 DUP8 PUSH2 0x3827 JUMP JUMPDEST PUSH1 0x0 PUSH1 0x20 DUP1 DUP4 DUP6 SUB SLT ISZERO PUSH2 0x3AED JUMPI PUSH1 0x0 DUP1 REVERT JUMPDEST DUP3 MLOAD PUSH1 0x1 PUSH1 0x1 PUSH1 0x40 SHL SUB DUP2 GT ISZERO PUSH2 0x3B03 JUMPI PUSH1 0x0 DUP1 REVERT JUMPDEST DUP4 ADD PUSH1 0x1F DUP2 ADD DUP6 SGT PUSH2 0x3B14 JUMPI PUSH1 0x0 DUP1 REVERT JUMPDEST DUP1 MLOAD PUSH2 0x3B22 PUSH2 0x2848 DUP3 PUSH2 0x27BA JUMP JUMPDEST DUP1 DUP3 DUP3 MSTORE PUSH1 0x20 DUP3 ADD SWAP2 POP PUSH1 0x20 DUP4 PUSH1 0x6 SHL DUP6 ADD ADD SWAP3 POP DUP8 DUP4 GT ISZERO PUSH2 0x3B44 JUMPI PUSH1 0x0 DUP1 REVERT JUMPDEST PUSH1 0x20 DUP5 ADD SWAP4 POP JUMPDEST DUP3 DUP5 LT ISZERO PUSH2 0xBDA JUMPI PUSH2 0x3B5D DUP9 DUP6 PUSH2 0x39F7 JUMP JUMPDEST DUP3 MSTORE DUP5 DUP3 ADD SWAP2 POP PUSH1 0x40 DUP5 ADD SWAP4 POP PUSH2 0x3B4B JUMP JUMPDEST PUSH1 0x0 PUSH1 0x60 DUP3 DUP5 SUB SLT ISZERO PUSH2 0x3B81 JUMPI PUSH1 0x0 DUP1 REVERT JUMPDEST PUSH2 0x3B89 PUSH2 0x271E JUMP JUMPDEST DUP3 CALLDATALOAD PUSH2 0x3B94 DUP2 PUSH2 0x27DD JUMP JUMPDEST DUP2 MSTORE PUSH1 0x20 DUP4 DUP2 ADD CALLDATALOAD SWAP1 DUP3 ADD MSTORE PUSH1 0x40 DUP4 ADD CALLDATALOAD PUSH2 0x3BAE DUP2 PUSH2 0x287F JUMP JUMPDEST PUSH1 0x40 DUP3 ADD MSTORE SWAP4 SWAP3 POP POP POP JUMP JUMPDEST PUSH1 0x80 DUP2 MSTORE PUSH1 0x0 PUSH2 0x3BCE PUSH1 0x80 DUP4 ADD DUP9 DUP11 PUSH2 0x3827 JUMP JUMPDEST PUSH1 0x1 PUSH1 0x1 PUSH1 0xA0 SHL SUB DUP8 DUP2 AND PUSH1 0x20 DUP6 ADD MSTORE DUP7 AND PUSH1 0x40 DUP5 ADD MSTORE DUP3 DUP2 SUB PUSH1 0x60 DUP5 ADD MSTORE PUSH2 0x3BF8 DUP2 DUP6 DUP8 PUSH2 0x3827 JUMP JUMPDEST SWAP10 SWAP9 POP POP POP POP POP POP POP POP POP JUMP JUMPDEST PUSH1 0x0 DUP3 MLOAD PUSH2 0x3C17 DUP2 DUP5 PUSH1 0x20 DUP8 ADD PUSH2 0x3301 JUMP JUMPDEST SWAP2 SWAP1 SWAP2 ADD SWAP3 SWAP2 POP POP JUMP INVALID LOG2 PUSH5 0x6970667358 0x22 SLT KECCAK256 PUSH20 0x2391975EF19022D0F8B52BD5899C0849AC8F3E7E SELFDESTRUCT 0xC9 0xE4 PUSH19 0x14AFD3B902AB7D64736F6C6343000818003300 "},"methodIdentifiers":{"addLiquidity(address,(address,uint256,bool)[],bytes,uint256,address,bytes,address)":"fc31d54a","addLiquidity2(address,(address,uint256,bool)[],bytes,uint256,address,bytes,address)":"eb1432f0","addLiquidityWithPermit(address,(address,uint256,bool)[],bytes,uint256,address,bytes,(address,uint256,uint256,uint8,bytes32,bytes32)[],address)":"39be5126","addLiquidityWithPermit2(address,(address,uint256,bool)[],bytes,uint256,address,bytes,(address,uint256,uint256,uint8,bytes32,bytes32)[],address)":"fb689088","burnLiquidity(address,uint256,bytes,uint256[],address,bytes)":"ad271fa3","burnLiquiditySingle(address,uint256,bytes,uint256,address,bytes)":"53c43f15","burnLiquiditySingleWithPermit(address,uint256,bytes,uint256,address,bytes,(uint256,uint256,bytes))":"7d10c9d6","burnLiquidityWithPermit(address,uint256,bytes,uint256[],address,bytes,(uint256,uint256,bytes))":"353766c6","createPool(address,bytes)":"9dd41df2","disable()":"2f2770db","enteredPools(address,uint256)":"2b4abadb","enteredPoolsLength(address)":"b956b3fb","isDisabled()":"6c57f5a9","isPoolEntered(address,address)":"4f25b858","multicall(bytes[])":"ac9650d8","owner()":"8da5cb5b","renounceOwnership()":"715018a6","rescueERC20(address,address,uint256)":"b2118a8d","rescueETH(address,uint256)":"099a04e5","selfPermit(address,uint256,uint256,uint8,bytes32,bytes32)":"f3995c67","selfPermit2(address,uint256,uint256,bytes)":"6cc781cd","selfPermit2IfNecessary(address,uint256,uint256,bytes)":"688ee44c","selfPermitAllowed(address,uint256,uint256,uint8,bytes32,bytes32)":"4659a494","selfPermitAllowedIfNecessary(address,uint256,uint256,uint8,bytes32,bytes32)":"a4a78f0c","selfPermitIfNecessary(address,uint256,uint256,uint8,bytes32,bytes32)":"c2e3140a","stake(address,address,uint256,address)":"6291027c","stakeWithToken(address,address,uint256,address)":"f44e537a","swap(((address,bytes,address,bytes,bool)[],address,uint256)[],uint256,uint256)":"d7570e45","swapSyncSwap(((address,bytes,address,bytes,bool)[],address,uint256)[],uint256,uint256)":"ec26c55f","swapWithPermit(((address,bytes,address,bytes,bool)[],address,uint256)[],uint256,uint256,(address,uint256,uint256,uint8,bytes32,bytes32))":"7b2151e5","swapWithPermitSyncSwap(((address,bytes,address,bytes,bool)[],address,uint256)[],uint256,uint256,(address,uint256,uint256,uint8,bytes32,bytes32))":"03fffa52","transferOwnership(address)":"f2fde38b","vault()":"fbfa77cf","wETH()":"f2428621"}}}}}