{"contracts/KaskadeRouterV1.sol":{"KaskadeRouterV1":{"abi":[{"inputs":[{"internalType":"address","name":"_syncSwapContract","type":"address"}],"stateMutability":"nonpayable","type":"constructor"},{"anonymous":false,"inputs":[],"name":"Disabled","type":"event"},{"anonymous":false,"inputs":[{"indexed":true,"internalType":"address","name":"previousOwner","type":"address"},{"indexed":true,"internalType":"address","name":"newOwner","type":"address"}],"name":"OwnershipTransferred","type":"event"},{"anonymous":false,"inputs":[{"indexed":true,"internalType":"address","name":"user","type":"address"},{"indexed":false,"internalType":"uint256","name":"amountOut","type":"uint256"},{"indexed":false,"internalType":"uint256","name":"timestamp","type":"uint256"}],"name":"SwapSuccessful","type":"event"},{"inputs":[],"name":"disable","outputs":[],"stateMutability":"nonpayable","type":"function"},{"inputs":[],"name":"isDisabled","outputs":[{"internalType":"bool","name":"","type":"bool"}],"stateMutability":"view","type":"function"},{"inputs":[],"name":"owner","outputs":[{"internalType":"address","name":"","type":"address"}],"stateMutability":"view","type":"function"},{"inputs":[{"internalType":"address","name":"token","type":"address"},{"internalType":"address","name":"to","type":"address"},{"internalType":"uint256","name":"amount","type":"uint256"}],"name":"rescueERC20","outputs":[],"stateMutability":"nonpayable","type":"function"},{"inputs":[{"internalType":"address payable","name":"to","type":"address"},{"internalType":"uint256","name":"amount","type":"uint256"}],"name":"rescueETH","outputs":[],"stateMutability":"nonpayable","type":"function"},{"inputs":[{"components":[{"internalType":"address","name":"tokenIn","type":"address"},{"internalType":"uint256","name":"amountIn","type":"uint256"},{"components":[{"internalType":"address","name":"pool","type":"address"},{"internalType":"bytes","name":"data","type":"bytes"},{"internalType":"bool","name":"useVault","type":"bool"},{"internalType":"address","name":"callback","type":"address"},{"internalType":"bytes","name":"callbackData","type":"bytes"}],"internalType":"struct KaskadeRouterV1.SwapStep[]","name":"steps","type":"tuple[]"}],"internalType":"struct KaskadeRouterV1.SwapPath[]","name":"paths","type":"tuple[]"},{"internalType":"uint256","name":"amountOutMin","type":"uint256"},{"internalType":"uint256","name":"deadline","type":"uint256"}],"name":"swapSyncSwap","outputs":[{"components":[{"internalType":"address","name":"token","type":"address"},{"internalType":"uint256","name":"amount","type":"uint256"}],"internalType":"struct KaskadeRouterV1.TokenAmount","name":"amountOut","type":"tuple"}],"stateMutability":"payable","type":"function"},{"inputs":[],"name":"syncSwapContract","outputs":[{"internalType":"address","name":"","type":"address"}],"stateMutability":"view","type":"function"},{"inputs":[{"internalType":"address","name":"newOwner","type":"address"}],"name":"transferOwnership","outputs":[],"stateMutability":"nonpayable","type":"function"},{"stateMutability":"payable","type":"receive"}],"evm":{"bytecode":{"linkReferences":{},"object":"608060405234801561001057600080fd5b5060405161105538038061105583398101604081905261002f916100ad565b6100383361005d565b600180546001600160a01b0319166001600160a01b03929092169190911790556100dd565b600080546001600160a01b038381166001600160a01b0319831681178455604051919092169283917f8be0079c531659141344cd1fd0a4f28419497f9722a3daafe3b4186f6b6457e09190a35050565b6000602082840312156100bf57600080fd5b81516001600160a01b03811681146100d657600080fd5b9392505050565b610f69806100ec6000396000f3fe60806040526004361061007f5760003560e01c80636c57f5a91161004e5780636c57f5a9146101365780638da5cb5b14610160578063b2118a8d1461017e578063f2fde38b1461019e57600080fd5b8063099a04e51461008b5780631088a10e146100ad578063274c6d9d146100e95780632f2770db1461012157600080fd5b3661008657005b600080fd5b34801561009757600080fd5b506100ab6100a636600461089d565b6101be565b005b6100c06100bb366004610a0e565b6101df565b6040805182516001600160a01b0316815260209283015192810192909252015b60405180910390f35b3480156100f557600080fd5b50600154610109906001600160a01b031681565b6040516001600160a01b0390911681526020016100e0565b34801561012d57600080fd5b506100ab6103e4565b34801561014257600080fd5b50600054600160a01b900460ff1660405190151581526020016100e0565b34801561016c57600080fd5b506000546001600160a01b0316610109565b34801561018a57600080fd5b506100ab610199366004610cac565b610428565b3480156101aa57600080fd5b506100ab6101b9366004610ced565b61056b565b6101c66105e4565b806000036101d15750475b6101db828261064f565b5050565b604080518082019091526000808252602082015281804211156102335760405162461bcd60e51b8152602060048201526007602482015266115e1c1a5c995960ca1b60448201526064015b60405180910390fd5b600054600160a01b900460ff16156102845760405162461bcd60e51b815260206004820152601460248201527310dbdb9d1c9858dd081a5cc8191a5cd8589b195960621b604482015260640161022a565b60015460405160009182916001600160a01b03909116906102ad90899089908990602401610d61565b60408051601f198184030181529181526020820180516001600160e01b0316636713b41160e11b179052516102e29190610e89565b600060405180830381855af49150503d806000811461031d576040519150601f19603f3d011682016040523d82523d6000602084013e610322565b606091505b5091509150816103745760405162461bcd60e51b815260206004820152601b60248201527f44656c656761746563616c6c20746f2073776170206661696c65640000000000604482015260640161022a565b808060200190518101906103889190610ea5565b9350336001600160a01b03167fd0dcb5d6ccbc65558941eda1d0add99921923cc1868a41bbf8d224258a21396d8560200151426040516103d2929190918252602082015260400190565b60405180910390a25050509392505050565b6103ec6105e4565b6000805460ff60a01b1916600160a01b1781556040517f75884cdadc4a89e8b545db800057f06ec7f5338a08183c7ba515f2bfdd9fe1e19190a1565b6104306105e4565b6001600160a01b0382161580159061045a5750826001600160a01b0316826001600160a01b031614155b6104935760405162461bcd60e51b815260206004820152600a602482015269496e76616c696420746f60b01b604482015260640161022a565b6040516370a0823160e01b81523060048201526000906001600160a01b038516906370a0823190602401602060405180830381865afa1580156104da573d6000803e3d6000fd5b505050506040513d601f19601f820116820180604052508101906104fe9190610efd565b9050816000036105185761051384848361071d565b610565565b8082111561055a5760405162461bcd60e51b815260206004820152600f60248201526e457863656564732062616c616e636560881b604482015260640161022a565b61056584848461071d565b50505050565b6105736105e4565b6001600160a01b0381166105d85760405162461bcd60e51b815260206004820152602660248201527f4f776e61626c653a206e6577206f776e657220697320746865207a65726f206160448201526564647265737360d01b606482015260840161022a565b6105e181610838565b50565b336105f76000546001600160a01b031690565b6001600160a01b03161461064d5760405162461bcd60e51b815260206004820181905260248201527f4f776e61626c653a2063616c6c6572206973206e6f7420746865206f776e6572604482015260640161022a565b565b604080516000808252602082019092526001600160a01b0384169083906040516106799190610e89565b60006040518083038185875af1925050503d80600081146106b6576040519150601f19603f3d011682016040523d82523d6000602084013e6106bb565b606091505b50509050806107185760405162461bcd60e51b815260206004820152602360248201527f5472616e7366657248656c7065723a204554485f5452414e534645525f46414960448201526213115160ea1b606482015260840161022a565b505050565b604080516001600160a01b038481166024830152604480830185905283518084039091018152606490920183526020820180516001600160e01b031663a9059cbb60e01b17905291516000928392908716916107799190610e89565b6000604051808303816000865af19150503d80600081146107b6576040519150601f19603f3d011682016040523d82523d6000602084013e6107bb565b606091505b50915091508180156107e55750805115806107e55750808060200190518101906107e59190610f16565b6108315760405162461bcd60e51b815260206004820152601f60248201527f5472616e7366657248656c7065723a205452414e534645525f4641494c454400604482015260640161022a565b5050505050565b600080546001600160a01b038381166001600160a01b0319831681178455604051919092169283917f8be0079c531659141344cd1fd0a4f28419497f9722a3daafe3b4186f6b6457e09190a35050565b6001600160a01b03811681146105e157600080fd5b600080604083850312156108b057600080fd5b82356108bb81610888565b946020939093013593505050565b634e487b7160e01b600052604160045260246000fd5b6040516060810167ffffffffffffffff81118282101715610902576109026108c9565b60405290565b60405160a0810167ffffffffffffffff81118282101715610902576109026108c9565b604051601f8201601f1916810167ffffffffffffffff81118282101715610954576109546108c9565b604052919050565b600067ffffffffffffffff821115610976576109766108c9565b5060051b60200190565b803561098b81610888565b919050565b600082601f8301126109a157600080fd5b813567ffffffffffffffff8111156109bb576109bb6108c9565b6109ce601f8201601f191660200161092b565b8181528460208386010111156109e357600080fd5b816020850160208301376000918101602001919091529392505050565b80151581146105e157600080fd5b600080600060608486031215610a2357600080fd5b67ffffffffffffffff84351115610a3957600080fd5b84601f853586010112610a4b57600080fd5b610a60610a5b853586013561095c565b61092b565b8435850180358083526020808401939260059290921b90910101871015610a8657600080fd5b602086358701015b86358701803560051b01602001811015610c955767ffffffffffffffff81351115610ab857600080fd5b6060873588018235018903601f19011215610ad257600080fd5b610ada6108df565b610aed602083358a358b01010135610888565b87358801823501602081810135835260408201359083015267ffffffffffffffff6060909101351115610b1f57600080fd5b87358801823501606081013501603f81018a13610b3b57600080fd5b610b4b610a5b602083013561095c565b602082810135808352908201919060051b83016040018c1015610b6d57600080fd5b604083015b6040602085013560051b850101811015610c7f5767ffffffffffffffff81351115610b9c57600080fd5b60a0813585018e03603f19011215610bb357600080fd5b610bbb610908565b610bcb6040833587010135610888565b813585016040810135825267ffffffffffffffff6060909101351115610bf057600080fd5b610c068e83358701606081013501604001610990565b6020820152610c1b6080833587010135610a00565b8135850160808101356040830152610c359060a001610980565b606082015267ffffffffffffffff60c08335870101351115610c5657600080fd5b610c6c8e8335870160c081013501604001610990565b6080820152835260209283019201610b72565b5060408401525050835260209283019201610a8e565b509660208601359650604090950135949350505050565b600080600060608486031215610cc157600080fd5b8335610ccc81610888565b92506020840135610cdc81610888565b929592945050506040919091013590565b600060208284031215610cff57600080fd5b8135610d0a81610888565b9392505050565b60005b83811015610d2c578181015183820152602001610d14565b50506000910152565b60008151808452610d4d816020860160208601610d11565b601f01601f19169290920160200192915050565b6000606082016060835280865180835260808501915060808160051b8601019250602080890160005b83811015610e7057607f1988870381018652825180516001600160a01b03908116895285820151868a01526040918201516060928a018390528051928a018390528601916080600582901b8b0181019291908b019060005b81811015610e5757868d860301835285518481511686528a81015160a08c880152610e1060a0880182610d35565b9050604082015115156040880152856060830151166060880152608082015191508681036080880152610e438183610d35565b978c01979650505091890191600101610de2565b50929a5050509685019650505090820190600101610d8a565b5050850196909652506040909201929092529392505050565b60008251610e9b818460208701610d11565b9190910192915050565b600060408284031215610eb757600080fd5b6040516040810181811067ffffffffffffffff82111715610eda57610eda6108c9565b6040528251610ee881610888565b81526020928301519281019290925250919050565b600060208284031215610f0f57600080fd5b5051919050565b600060208284031215610f2857600080fd5b8151610d0a81610a0056fea2646970667358221220b37fe29a2e1f7f070a134b2f4a9815ae274c97f08e7fc84207ef733a257852d664736f6c63430008180033","opcodes":"PUSH1 0x80 PUSH1 0x40 MSTORE CALLVALUE DUP1 ISZERO PUSH2 0x10 JUMPI PUSH1 0x0 DUP1 REVERT JUMPDEST POP PUSH1 0x40 MLOAD PUSH2 0x1055 CODESIZE SUB DUP1 PUSH2 0x1055 DUP4 CODECOPY DUP2 ADD PUSH1 0x40 DUP2 SWAP1 MSTORE PUSH2 0x2F SWAP2 PUSH2 0xAD JUMP JUMPDEST PUSH2 0x38 CALLER PUSH2 0x5D JUMP JUMPDEST PUSH1 0x1 DUP1 SLOAD PUSH1 0x1 PUSH1 0x1 PUSH1 0xA0 SHL SUB NOT AND PUSH1 0x1 PUSH1 0x1 PUSH1 0xA0 SHL SUB SWAP3 SWAP1 SWAP3 AND SWAP2 SWAP1 SWAP2 OR SWAP1 SSTORE PUSH2 0xDD JUMP JUMPDEST PUSH1 0x0 DUP1 SLOAD PUSH1 0x1 PUSH1 0x1 PUSH1 0xA0 SHL SUB DUP4 DUP2 AND PUSH1 0x1 PUSH1 0x1 PUSH1 0xA0 SHL SUB NOT DUP4 AND DUP2 OR DUP5 SSTORE PUSH1 0x40 MLOAD SWAP2 SWAP1 SWAP3 AND SWAP3 DUP4 SWAP2 PUSH32 0x8BE0079C531659141344CD1FD0A4F28419497F9722A3DAAFE3B4186F6B6457E0 SWAP2 SWAP1 LOG3 POP POP JUMP JUMPDEST PUSH1 0x0 PUSH1 0x20 DUP3 DUP5 SUB SLT ISZERO PUSH2 0xBF JUMPI PUSH1 0x0 DUP1 REVERT JUMPDEST DUP2 MLOAD PUSH1 0x1 PUSH1 0x1 PUSH1 0xA0 SHL SUB DUP2 AND DUP2 EQ PUSH2 0xD6 JUMPI PUSH1 0x0 DUP1 REVERT JUMPDEST SWAP4 SWAP3 POP POP POP JUMP JUMPDEST PUSH2 0xF69 DUP1 PUSH2 0xEC PUSH1 0x0 CODECOPY PUSH1 0x0 RETURN INVALID PUSH1 0x80 PUSH1 0x40 MSTORE PUSH1 0x4 CALLDATASIZE LT PUSH2 0x7F JUMPI PUSH1 0x0 CALLDATALOAD PUSH1 0xE0 SHR DUP1 PUSH4 0x6C57F5A9 GT PUSH2 0x4E JUMPI DUP1 PUSH4 0x6C57F5A9 EQ PUSH2 0x136 JUMPI DUP1 PUSH4 0x8DA5CB5B EQ PUSH2 0x160 JUMPI DUP1 PUSH4 0xB2118A8D EQ PUSH2 0x17E JUMPI DUP1 PUSH4 0xF2FDE38B EQ PUSH2 0x19E JUMPI PUSH1 0x0 DUP1 REVERT JUMPDEST DUP1 PUSH4 0x99A04E5 EQ PUSH2 0x8B JUMPI DUP1 PUSH4 0x1088A10E EQ PUSH2 0xAD JUMPI DUP1 PUSH4 0x274C6D9D EQ PUSH2 0xE9 JUMPI DUP1 PUSH4 0x2F2770DB EQ PUSH2 0x121 JUMPI PUSH1 0x0 DUP1 REVERT JUMPDEST CALLDATASIZE PUSH2 0x86 JUMPI STOP JUMPDEST PUSH1 0x0 DUP1 REVERT JUMPDEST CALLVALUE DUP1 ISZERO PUSH2 0x97 JUMPI PUSH1 0x0 DUP1 REVERT JUMPDEST POP PUSH2 0xAB PUSH2 0xA6 CALLDATASIZE PUSH1 0x4 PUSH2 0x89D JUMP JUMPDEST PUSH2 0x1BE JUMP JUMPDEST STOP JUMPDEST PUSH2 0xC0 PUSH2 0xBB CALLDATASIZE PUSH1 0x4 PUSH2 0xA0E JUMP JUMPDEST PUSH2 0x1DF JUMP JUMPDEST PUSH1 0x40 DUP1 MLOAD DUP3 MLOAD PUSH1 0x1 PUSH1 0x1 PUSH1 0xA0 SHL SUB AND DUP2 MSTORE PUSH1 0x20 SWAP3 DUP4 ADD MLOAD SWAP3 DUP2 ADD SWAP3 SWAP1 SWAP3 MSTORE ADD JUMPDEST PUSH1 0x40 MLOAD DUP1 SWAP2 SUB SWAP1 RETURN JUMPDEST CALLVALUE DUP1 ISZERO PUSH2 0xF5 JUMPI PUSH1 0x0 DUP1 REVERT JUMPDEST POP PUSH1 0x1 SLOAD PUSH2 0x109 SWAP1 PUSH1 0x1 PUSH1 0x1 PUSH1 0xA0 SHL SUB AND DUP2 JUMP JUMPDEST PUSH1 0x40 MLOAD PUSH1 0x1 PUSH1 0x1 PUSH1 0xA0 SHL SUB SWAP1 SWAP2 AND DUP2 MSTORE PUSH1 0x20 ADD PUSH2 0xE0 JUMP JUMPDEST CALLVALUE DUP1 ISZERO PUSH2 0x12D JUMPI PUSH1 0x0 DUP1 REVERT JUMPDEST POP PUSH2 0xAB PUSH2 0x3E4 JUMP JUMPDEST CALLVALUE DUP1 ISZERO PUSH2 0x142 JUMPI PUSH1 0x0 DUP1 REVERT JUMPDEST POP PUSH1 0x0 SLOAD PUSH1 0x1 PUSH1 0xA0 SHL SWAP1 DIV PUSH1 0xFF AND PUSH1 0x40 MLOAD SWAP1 ISZERO ISZERO DUP2 MSTORE PUSH1 0x20 ADD PUSH2 0xE0 JUMP JUMPDEST CALLVALUE DUP1 ISZERO PUSH2 0x16C JUMPI PUSH1 0x0 DUP1 REVERT JUMPDEST POP PUSH1 0x0 SLOAD PUSH1 0x1 PUSH1 0x1 PUSH1 0xA0 SHL SUB AND PUSH2 0x109 JUMP JUMPDEST CALLVALUE DUP1 ISZERO PUSH2 0x18A JUMPI PUSH1 0x0 DUP1 REVERT JUMPDEST POP PUSH2 0xAB PUSH2 0x199 CALLDATASIZE PUSH1 0x4 PUSH2 0xCAC JUMP JUMPDEST PUSH2 0x428 JUMP JUMPDEST CALLVALUE DUP1 ISZERO PUSH2 0x1AA JUMPI PUSH1 0x0 DUP1 REVERT JUMPDEST POP PUSH2 0xAB PUSH2 0x1B9 CALLDATASIZE PUSH1 0x4 PUSH2 0xCED JUMP JUMPDEST PUSH2 0x56B JUMP JUMPDEST PUSH2 0x1C6 PUSH2 0x5E4 JUMP JUMPDEST DUP1 PUSH1 0x0 SUB PUSH2 0x1D1 JUMPI POP SELFBALANCE JUMPDEST PUSH2 0x1DB DUP3 DUP3 PUSH2 0x64F JUMP JUMPDEST POP POP JUMP JUMPDEST PUSH1 0x40 DUP1 MLOAD DUP1 DUP3 ADD SWAP1 SWAP2 MSTORE PUSH1 0x0 DUP1 DUP3 MSTORE PUSH1 0x20 DUP3 ADD MSTORE DUP2 DUP1 TIMESTAMP GT ISZERO PUSH2 0x233 JUMPI PUSH1 0x40 MLOAD PUSH3 0x461BCD PUSH1 0xE5 SHL DUP2 MSTORE PUSH1 0x20 PUSH1 0x4 DUP3 ADD MSTORE PUSH1 0x7 PUSH1 0x24 DUP3 ADD MSTORE PUSH7 0x115E1C1A5C9959 PUSH1 0xCA SHL PUSH1 0x44 DUP3 ADD MSTORE PUSH1 0x64 ADD JUMPDEST PUSH1 0x40 MLOAD DUP1 SWAP2 SUB SWAP1 REVERT JUMPDEST PUSH1 0x0 SLOAD PUSH1 0x1 PUSH1 0xA0 SHL SWAP1 DIV PUSH1 0xFF AND ISZERO PUSH2 0x284 JUMPI PUSH1 0x40 MLOAD PUSH3 0x461BCD PUSH1 0xE5 SHL DUP2 MSTORE PUSH1 0x20 PUSH1 0x4 DUP3 ADD MSTORE PUSH1 0x14 PUSH1 0x24 DUP3 ADD MSTORE PUSH20 0x10DBDB9D1C9858DD081A5CC8191A5CD8589B1959 PUSH1 0x62 SHL PUSH1 0x44 DUP3 ADD MSTORE PUSH1 0x64 ADD PUSH2 0x22A JUMP JUMPDEST PUSH1 0x1 SLOAD PUSH1 0x40 MLOAD PUSH1 0x0 SWAP2 DUP3 SWAP2 PUSH1 0x1 PUSH1 0x1 PUSH1 0xA0 SHL SUB SWAP1 SWAP2 AND SWAP1 PUSH2 0x2AD SWAP1 DUP10 SWAP1 DUP10 SWAP1 DUP10 SWAP1 PUSH1 0x24 ADD PUSH2 0xD61 JUMP JUMPDEST PUSH1 0x40 DUP1 MLOAD PUSH1 0x1F NOT DUP2 DUP5 SUB ADD DUP2 MSTORE SWAP2 DUP2 MSTORE PUSH1 0x20 DUP3 ADD DUP1 MLOAD PUSH1 0x1 PUSH1 0x1 PUSH1 0xE0 SHL SUB AND PUSH4 0x6713B411 PUSH1 0xE1 SHL OR SWAP1 MSTORE MLOAD PUSH2 0x2E2 SWAP2 SWAP1 PUSH2 0xE89 JUMP JUMPDEST PUSH1 0x0 PUSH1 0x40 MLOAD DUP1 DUP4 SUB DUP2 DUP6 GAS DELEGATECALL SWAP2 POP POP RETURNDATASIZE DUP1 PUSH1 0x0 DUP2 EQ PUSH2 0x31D JUMPI PUSH1 0x40 MLOAD SWAP2 POP PUSH1 0x1F NOT PUSH1 0x3F RETURNDATASIZE ADD AND DUP3 ADD PUSH1 0x40 MSTORE RETURNDATASIZE DUP3 MSTORE RETURNDATASIZE PUSH1 0x0 PUSH1 0x20 DUP5 ADD RETURNDATACOPY PUSH2 0x322 JUMP JUMPDEST PUSH1 0x60 SWAP2 POP JUMPDEST POP SWAP2 POP SWAP2 POP DUP2 PUSH2 0x374 JUMPI PUSH1 0x40 MLOAD PUSH3 0x461BCD PUSH1 0xE5 SHL DUP2 MSTORE PUSH1 0x20 PUSH1 0x4 DUP3 ADD MSTORE PUSH1 0x1B PUSH1 0x24 DUP3 ADD MSTORE PUSH32 0x44656C656761746563616C6C20746F2073776170206661696C65640000000000 PUSH1 0x44 DUP3 ADD MSTORE PUSH1 0x64 ADD PUSH2 0x22A JUMP JUMPDEST DUP1 DUP1 PUSH1 0x20 ADD SWAP1 MLOAD DUP2 ADD SWAP1 PUSH2 0x388 SWAP2 SWAP1 PUSH2 0xEA5 JUMP JUMPDEST SWAP4 POP CALLER PUSH1 0x1 PUSH1 0x1 PUSH1 0xA0 SHL SUB AND PUSH32 0xD0DCB5D6CCBC65558941EDA1D0ADD99921923CC1868A41BBF8D224258A21396D DUP6 PUSH1 0x20 ADD MLOAD TIMESTAMP PUSH1 0x40 MLOAD PUSH2 0x3D2 SWAP3 SWAP2 SWAP1 SWAP2 DUP3 MSTORE PUSH1 0x20 DUP3 ADD MSTORE PUSH1 0x40 ADD SWAP1 JUMP JUMPDEST PUSH1 0x40 MLOAD DUP1 SWAP2 SUB SWAP1 LOG2 POP POP POP SWAP4 SWAP3 POP POP POP JUMP JUMPDEST PUSH2 0x3EC PUSH2 0x5E4 JUMP JUMPDEST PUSH1 0x0 DUP1 SLOAD PUSH1 0xFF PUSH1 0xA0 SHL NOT AND PUSH1 0x1 PUSH1 0xA0 SHL OR DUP2 SSTORE PUSH1 0x40 MLOAD PUSH32 0x75884CDADC4A89E8B545DB800057F06EC7F5338A08183C7BA515F2BFDD9FE1E1 SWAP2 SWAP1 LOG1 JUMP JUMPDEST PUSH2 0x430 PUSH2 0x5E4 JUMP JUMPDEST PUSH1 0x1 PUSH1 0x1 PUSH1 0xA0 SHL SUB DUP3 AND ISZERO DUP1 ISZERO SWAP1 PUSH2 0x45A JUMPI POP DUP3 PUSH1 0x1 PUSH1 0x1 PUSH1 0xA0 SHL SUB AND DUP3 PUSH1 0x1 PUSH1 0x1 PUSH1 0xA0 SHL SUB AND EQ ISZERO JUMPDEST PUSH2 0x493 JUMPI PUSH1 0x40 MLOAD PUSH3 0x461BCD PUSH1 0xE5 SHL DUP2 MSTORE PUSH1 0x20 PUSH1 0x4 DUP3 ADD MSTORE PUSH1 0xA PUSH1 0x24 DUP3 ADD MSTORE PUSH10 0x496E76616C696420746F PUSH1 0xB0 SHL PUSH1 0x44 DUP3 ADD MSTORE PUSH1 0x64 ADD PUSH2 0x22A JUMP JUMPDEST PUSH1 0x40 MLOAD PUSH4 0x70A08231 PUSH1 0xE0 SHL DUP2 MSTORE ADDRESS PUSH1 0x4 DUP3 ADD MSTORE PUSH1 0x0 SWAP1 PUSH1 0x1 PUSH1 0x1 PUSH1 0xA0 SHL SUB DUP6 AND SWAP1 PUSH4 0x70A08231 SWAP1 PUSH1 0x24 ADD PUSH1 0x20 PUSH1 0x40 MLOAD DUP1 DUP4 SUB DUP2 DUP7 GAS STATICCALL ISZERO DUP1 ISZERO PUSH2 0x4DA JUMPI RETURNDATASIZE PUSH1 0x0 DUP1 RETURNDATACOPY RETURNDATASIZE PUSH1 0x0 REVERT JUMPDEST POP POP POP POP PUSH1 0x40 MLOAD RETURNDATASIZE PUSH1 0x1F NOT PUSH1 0x1F DUP3 ADD AND DUP3 ADD DUP1 PUSH1 0x40 MSTORE POP DUP2 ADD SWAP1 PUSH2 0x4FE SWAP2 SWAP1 PUSH2 0xEFD JUMP JUMPDEST SWAP1 POP DUP2 PUSH1 0x0 SUB PUSH2 0x518 JUMPI PUSH2 0x513 DUP5 DUP5 DUP4 PUSH2 0x71D JUMP JUMPDEST PUSH2 0x565 JUMP JUMPDEST DUP1 DUP3 GT ISZERO PUSH2 0x55A JUMPI PUSH1 0x40 MLOAD PUSH3 0x461BCD PUSH1 0xE5 SHL DUP2 MSTORE PUSH1 0x20 PUSH1 0x4 DUP3 ADD MSTORE PUSH1 0xF PUSH1 0x24 DUP3 ADD MSTORE PUSH15 0x457863656564732062616C616E6365 PUSH1 0x88 SHL PUSH1 0x44 DUP3 ADD MSTORE PUSH1 0x64 ADD PUSH2 0x22A JUMP JUMPDEST PUSH2 0x565 DUP5 DUP5 DUP5 PUSH2 0x71D JUMP JUMPDEST POP POP POP POP JUMP JUMPDEST PUSH2 0x573 PUSH2 0x5E4 JUMP JUMPDEST PUSH1 0x1 PUSH1 0x1 PUSH1 0xA0 SHL SUB DUP2 AND PUSH2 0x5D8 JUMPI PUSH1 0x40 MLOAD PUSH3 0x461BCD PUSH1 0xE5 SHL DUP2 MSTORE PUSH1 0x20 PUSH1 0x4 DUP3 ADD MSTORE PUSH1 0x26 PUSH1 0x24 DUP3 ADD MSTORE PUSH32 0x4F776E61626C653A206E6577206F776E657220697320746865207A65726F2061 PUSH1 0x44 DUP3 ADD MSTORE PUSH6 0x646472657373 PUSH1 0xD0 SHL PUSH1 0x64 DUP3 ADD MSTORE PUSH1 0x84 ADD PUSH2 0x22A JUMP JUMPDEST PUSH2 0x5E1 DUP2 PUSH2 0x838 JUMP JUMPDEST POP JUMP JUMPDEST CALLER PUSH2 0x5F7 PUSH1 0x0 SLOAD PUSH1 0x1 PUSH1 0x1 PUSH1 0xA0 SHL SUB AND SWAP1 JUMP JUMPDEST PUSH1 0x1 PUSH1 0x1 PUSH1 0xA0 SHL SUB AND EQ PUSH2 0x64D JUMPI PUSH1 0x40 MLOAD PUSH3 0x461BCD PUSH1 0xE5 SHL DUP2 MSTORE PUSH1 0x20 PUSH1 0x4 DUP3 ADD DUP2 SWAP1 MSTORE PUSH1 0x24 DUP3 ADD MSTORE PUSH32 0x4F776E61626C653A2063616C6C6572206973206E6F7420746865206F776E6572 PUSH1 0x44 DUP3 ADD MSTORE PUSH1 0x64 ADD PUSH2 0x22A JUMP JUMPDEST JUMP JUMPDEST PUSH1 0x40 DUP1 MLOAD PUSH1 0x0 DUP1 DUP3 MSTORE PUSH1 0x20 DUP3 ADD SWAP1 SWAP3 MSTORE PUSH1 0x1 PUSH1 0x1 PUSH1 0xA0 SHL SUB DUP5 AND SWAP1 DUP4 SWAP1 PUSH1 0x40 MLOAD PUSH2 0x679 SWAP2 SWAP1 PUSH2 0xE89 JUMP JUMPDEST PUSH1 0x0 PUSH1 0x40 MLOAD DUP1 DUP4 SUB DUP2 DUP6 DUP8 GAS CALL SWAP3 POP POP POP RETURNDATASIZE DUP1 PUSH1 0x0 DUP2 EQ PUSH2 0x6B6 JUMPI PUSH1 0x40 MLOAD SWAP2 POP PUSH1 0x1F NOT PUSH1 0x3F RETURNDATASIZE ADD AND DUP3 ADD PUSH1 0x40 MSTORE RETURNDATASIZE DUP3 MSTORE RETURNDATASIZE PUSH1 0x0 PUSH1 0x20 DUP5 ADD RETURNDATACOPY PUSH2 0x6BB JUMP JUMPDEST PUSH1 0x60 SWAP2 POP JUMPDEST POP POP SWAP1 POP DUP1 PUSH2 0x718 JUMPI PUSH1 0x40 MLOAD PUSH3 0x461BCD PUSH1 0xE5 SHL DUP2 MSTORE PUSH1 0x20 PUSH1 0x4 DUP3 ADD MSTORE PUSH1 0x23 PUSH1 0x24 DUP3 ADD MSTORE PUSH32 0x5472616E7366657248656C7065723A204554485F5452414E534645525F464149 PUSH1 0x44 DUP3 ADD MSTORE PUSH3 0x131151 PUSH1 0xEA SHL PUSH1 0x64 DUP3 ADD MSTORE PUSH1 0x84 ADD PUSH2 0x22A JUMP JUMPDEST POP POP POP JUMP JUMPDEST PUSH1 0x40 DUP1 MLOAD PUSH1 0x1 PUSH1 0x1 PUSH1 0xA0 SHL SUB DUP5 DUP2 AND PUSH1 0x24 DUP4 ADD MSTORE PUSH1 0x44 DUP1 DUP4 ADD DUP6 SWAP1 MSTORE DUP4 MLOAD DUP1 DUP5 SUB SWAP1 SWAP2 ADD DUP2 MSTORE PUSH1 0x64 SWAP1 SWAP3 ADD DUP4 MSTORE PUSH1 0x20 DUP3 ADD DUP1 MLOAD PUSH1 0x1 PUSH1 0x1 PUSH1 0xE0 SHL SUB AND PUSH4 0xA9059CBB PUSH1 0xE0 SHL OR SWAP1 MSTORE SWAP2 MLOAD PUSH1 0x0 SWAP3 DUP4 SWAP3 SWAP1 DUP8 AND SWAP2 PUSH2 0x779 SWAP2 SWAP1 PUSH2 0xE89 JUMP JUMPDEST PUSH1 0x0 PUSH1 0x40 MLOAD DUP1 DUP4 SUB DUP2 PUSH1 0x0 DUP7 GAS CALL SWAP2 POP POP RETURNDATASIZE DUP1 PUSH1 0x0 DUP2 EQ PUSH2 0x7B6 JUMPI PUSH1 0x40 MLOAD SWAP2 POP PUSH1 0x1F NOT PUSH1 0x3F RETURNDATASIZE ADD AND DUP3 ADD PUSH1 0x40 MSTORE RETURNDATASIZE DUP3 MSTORE RETURNDATASIZE PUSH1 0x0 PUSH1 0x20 DUP5 ADD RETURNDATACOPY PUSH2 0x7BB JUMP JUMPDEST PUSH1 0x60 SWAP2 POP JUMPDEST POP SWAP2 POP SWAP2 POP DUP2 DUP1 ISZERO PUSH2 0x7E5 JUMPI POP DUP1 MLOAD ISZERO DUP1 PUSH2 0x7E5 JUMPI POP DUP1 DUP1 PUSH1 0x20 ADD SWAP1 MLOAD DUP2 ADD SWAP1 PUSH2 0x7E5 SWAP2 SWAP1 PUSH2 0xF16 JUMP JUMPDEST PUSH2 0x831 JUMPI PUSH1 0x40 MLOAD PUSH3 0x461BCD PUSH1 0xE5 SHL DUP2 MSTORE PUSH1 0x20 PUSH1 0x4 DUP3 ADD MSTORE PUSH1 0x1F PUSH1 0x24 DUP3 ADD MSTORE PUSH32 0x5472616E7366657248656C7065723A205452414E534645525F4641494C454400 PUSH1 0x44 DUP3 ADD MSTORE PUSH1 0x64 ADD PUSH2 0x22A JUMP JUMPDEST POP POP POP POP POP JUMP JUMPDEST PUSH1 0x0 DUP1 SLOAD PUSH1 0x1 PUSH1 0x1 PUSH1 0xA0 SHL SUB DUP4 DUP2 AND PUSH1 0x1 PUSH1 0x1 PUSH1 0xA0 SHL SUB NOT DUP4 AND DUP2 OR DUP5 SSTORE PUSH1 0x40 MLOAD SWAP2 SWAP1 SWAP3 AND SWAP3 DUP4 SWAP2 PUSH32 0x8BE0079C531659141344CD1FD0A4F28419497F9722A3DAAFE3B4186F6B6457E0 SWAP2 SWAP1 LOG3 POP POP JUMP JUMPDEST PUSH1 0x1 PUSH1 0x1 PUSH1 0xA0 SHL SUB DUP2 AND DUP2 EQ PUSH2 0x5E1 JUMPI PUSH1 0x0 DUP1 REVERT JUMPDEST PUSH1 0x0 DUP1 PUSH1 0x40 DUP4 DUP6 SUB SLT ISZERO PUSH2 0x8B0 JUMPI PUSH1 0x0 DUP1 REVERT JUMPDEST DUP3 CALLDATALOAD PUSH2 0x8BB DUP2 PUSH2 0x888 JUMP JUMPDEST SWAP5 PUSH1 0x20 SWAP4 SWAP1 SWAP4 ADD CALLDATALOAD SWAP4 POP POP POP JUMP JUMPDEST PUSH4 0x4E487B71 PUSH1 0xE0 SHL PUSH1 0x0 MSTORE PUSH1 0x41 PUSH1 0x4 MSTORE PUSH1 0x24 PUSH1 0x0 REVERT JUMPDEST PUSH1 0x40 MLOAD PUSH1 0x60 DUP2 ADD PUSH8 0xFFFFFFFFFFFFFFFF DUP2 GT DUP3 DUP3 LT OR ISZERO PUSH2 0x902 JUMPI PUSH2 0x902 PUSH2 0x8C9 JUMP JUMPDEST PUSH1 0x40 MSTORE SWAP1 JUMP JUMPDEST PUSH1 0x40 MLOAD PUSH1 0xA0 DUP2 ADD PUSH8 0xFFFFFFFFFFFFFFFF DUP2 GT DUP3 DUP3 LT OR ISZERO PUSH2 0x902 JUMPI PUSH2 0x902 PUSH2 0x8C9 JUMP JUMPDEST PUSH1 0x40 MLOAD PUSH1 0x1F DUP3 ADD PUSH1 0x1F NOT AND DUP2 ADD PUSH8 0xFFFFFFFFFFFFFFFF DUP2 GT DUP3 DUP3 LT OR ISZERO PUSH2 0x954 JUMPI PUSH2 0x954 PUSH2 0x8C9 JUMP JUMPDEST PUSH1 0x40 MSTORE SWAP2 SWAP1 POP JUMP JUMPDEST PUSH1 0x0 PUSH8 0xFFFFFFFFFFFFFFFF DUP3 GT ISZERO PUSH2 0x976 JUMPI PUSH2 0x976 PUSH2 0x8C9 JUMP JUMPDEST POP PUSH1 0x5 SHL PUSH1 0x20 ADD SWAP1 JUMP JUMPDEST DUP1 CALLDATALOAD PUSH2 0x98B DUP2 PUSH2 0x888 JUMP JUMPDEST SWAP2 SWAP1 POP JUMP JUMPDEST PUSH1 0x0 DUP3 PUSH1 0x1F DUP4 ADD SLT PUSH2 0x9A1 JUMPI PUSH1 0x0 DUP1 REVERT JUMPDEST DUP2 CALLDATALOAD PUSH8 0xFFFFFFFFFFFFFFFF DUP2 GT ISZERO PUSH2 0x9BB JUMPI PUSH2 0x9BB PUSH2 0x8C9 JUMP JUMPDEST PUSH2 0x9CE PUSH1 0x1F DUP3 ADD PUSH1 0x1F NOT AND PUSH1 0x20 ADD PUSH2 0x92B JUMP JUMPDEST DUP2 DUP2 MSTORE DUP5 PUSH1 0x20 DUP4 DUP7 ADD ADD GT ISZERO PUSH2 0x9E3 JUMPI PUSH1 0x0 DUP1 REVERT JUMPDEST DUP2 PUSH1 0x20 DUP6 ADD PUSH1 0x20 DUP4 ADD CALLDATACOPY PUSH1 0x0 SWAP2 DUP2 ADD PUSH1 0x20 ADD SWAP2 SWAP1 SWAP2 MSTORE SWAP4 SWAP3 POP POP POP JUMP JUMPDEST DUP1 ISZERO ISZERO DUP2 EQ PUSH2 0x5E1 JUMPI PUSH1 0x0 DUP1 REVERT JUMPDEST PUSH1 0x0 DUP1 PUSH1 0x0 PUSH1 0x60 DUP5 DUP7 SUB SLT ISZERO PUSH2 0xA23 JUMPI PUSH1 0x0 DUP1 REVERT JUMPDEST PUSH8 0xFFFFFFFFFFFFFFFF DUP5 CALLDATALOAD GT ISZERO PUSH2 0xA39 JUMPI PUSH1 0x0 DUP1 REVERT JUMPDEST DUP5 PUSH1 0x1F DUP6 CALLDATALOAD DUP7 ADD ADD SLT PUSH2 0xA4B JUMPI PUSH1 0x0 DUP1 REVERT JUMPDEST PUSH2 0xA60 PUSH2 0xA5B DUP6 CALLDATALOAD DUP7 ADD CALLDATALOAD PUSH2 0x95C JUMP JUMPDEST PUSH2 0x92B JUMP JUMPDEST DUP5 CALLDATALOAD DUP6 ADD DUP1 CALLDATALOAD DUP1 DUP4 MSTORE PUSH1 0x20 DUP1 DUP5 ADD SWAP4 SWAP3 PUSH1 0x5 SWAP3 SWAP1 SWAP3 SHL SWAP1 SWAP2 ADD ADD DUP8 LT ISZERO PUSH2 0xA86 JUMPI PUSH1 0x0 DUP1 REVERT JUMPDEST PUSH1 0x20 DUP7 CALLDATALOAD DUP8 ADD ADD JUMPDEST DUP7 CALLDATALOAD DUP8 ADD DUP1 CALLDATALOAD PUSH1 0x5 SHL ADD PUSH1 0x20 ADD DUP2 LT ISZERO PUSH2 0xC95 JUMPI PUSH8 0xFFFFFFFFFFFFFFFF DUP2 CALLDATALOAD GT ISZERO PUSH2 0xAB8 JUMPI PUSH1 0x0 DUP1 REVERT JUMPDEST PUSH1 0x60 DUP8 CALLDATALOAD DUP9 ADD DUP3 CALLDATALOAD ADD DUP10 SUB PUSH1 0x1F NOT ADD SLT ISZERO PUSH2 0xAD2 JUMPI PUSH1 0x0 DUP1 REVERT JUMPDEST PUSH2 0xADA PUSH2 0x8DF JUMP JUMPDEST PUSH2 0xAED PUSH1 0x20 DUP4 CALLDATALOAD DUP11 CALLDATALOAD DUP12 ADD ADD ADD CALLDATALOAD PUSH2 0x888 JUMP JUMPDEST DUP8 CALLDATALOAD DUP9 ADD DUP3 CALLDATALOAD ADD PUSH1 0x20 DUP2 DUP2 ADD CALLDATALOAD DUP4 MSTORE PUSH1 0x40 DUP3 ADD CALLDATALOAD SWAP1 DUP4 ADD MSTORE PUSH8 0xFFFFFFFFFFFFFFFF PUSH1 0x60 SWAP1 SWAP2 ADD CALLDATALOAD GT ISZERO PUSH2 0xB1F JUMPI PUSH1 0x0 DUP1 REVERT JUMPDEST DUP8 CALLDATALOAD DUP9 ADD DUP3 CALLDATALOAD ADD PUSH1 0x60 DUP2 ADD CALLDATALOAD ADD PUSH1 0x3F DUP2 ADD DUP11 SGT PUSH2 0xB3B JUMPI PUSH1 0x0 DUP1 REVERT JUMPDEST PUSH2 0xB4B PUSH2 0xA5B PUSH1 0x20 DUP4 ADD CALLDATALOAD PUSH2 0x95C JUMP JUMPDEST PUSH1 0x20 DUP3 DUP2 ADD CALLDATALOAD DUP1 DUP4 MSTORE SWAP1 DUP3 ADD SWAP2 SWAP1 PUSH1 0x5 SHL DUP4 ADD PUSH1 0x40 ADD DUP13 LT ISZERO PUSH2 0xB6D JUMPI PUSH1 0x0 DUP1 REVERT JUMPDEST PUSH1 0x40 DUP4 ADD JUMPDEST PUSH1 0x40 PUSH1 0x20 DUP6 ADD CALLDATALOAD PUSH1 0x5 SHL DUP6 ADD ADD DUP2 LT ISZERO PUSH2 0xC7F JUMPI PUSH8 0xFFFFFFFFFFFFFFFF DUP2 CALLDATALOAD GT ISZERO PUSH2 0xB9C JUMPI PUSH1 0x0 DUP1 REVERT JUMPDEST PUSH1 0xA0 DUP2 CALLDATALOAD DUP6 ADD DUP15 SUB PUSH1 0x3F NOT ADD SLT ISZERO PUSH2 0xBB3 JUMPI PUSH1 0x0 DUP1 REVERT JUMPDEST PUSH2 0xBBB PUSH2 0x908 JUMP JUMPDEST PUSH2 0xBCB PUSH1 0x40 DUP4 CALLDATALOAD DUP8 ADD ADD CALLDATALOAD PUSH2 0x888 JUMP JUMPDEST DUP2 CALLDATALOAD DUP6 ADD PUSH1 0x40 DUP2 ADD CALLDATALOAD DUP3 MSTORE PUSH8 0xFFFFFFFFFFFFFFFF PUSH1 0x60 SWAP1 SWAP2 ADD CALLDATALOAD GT ISZERO PUSH2 0xBF0 JUMPI PUSH1 0x0 DUP1 REVERT JUMPDEST PUSH2 0xC06 DUP15 DUP4 CALLDATALOAD DUP8 ADD PUSH1 0x60 DUP2 ADD CALLDATALOAD ADD PUSH1 0x40 ADD PUSH2 0x990 JUMP JUMPDEST PUSH1 0x20 DUP3 ADD MSTORE PUSH2 0xC1B PUSH1 0x80 DUP4 CALLDATALOAD DUP8 ADD ADD CALLDATALOAD PUSH2 0xA00 JUMP JUMPDEST DUP2 CALLDATALOAD DUP6 ADD PUSH1 0x80 DUP2 ADD CALLDATALOAD PUSH1 0x40 DUP4 ADD MSTORE PUSH2 0xC35 SWAP1 PUSH1 0xA0 ADD PUSH2 0x980 JUMP JUMPDEST PUSH1 0x60 DUP3 ADD MSTORE PUSH8 0xFFFFFFFFFFFFFFFF PUSH1 0xC0 DUP4 CALLDATALOAD DUP8 ADD ADD CALLDATALOAD GT ISZERO PUSH2 0xC56 JUMPI PUSH1 0x0 DUP1 REVERT JUMPDEST PUSH2 0xC6C DUP15 DUP4 CALLDATALOAD DUP8 ADD PUSH1 0xC0 DUP2 ADD CALLDATALOAD ADD PUSH1 0x40 ADD PUSH2 0x990 JUMP JUMPDEST PUSH1 0x80 DUP3 ADD MSTORE DUP4 MSTORE PUSH1 0x20 SWAP3 DUP4 ADD SWAP3 ADD PUSH2 0xB72 JUMP JUMPDEST POP PUSH1 0x40 DUP5 ADD MSTORE POP POP DUP4 MSTORE PUSH1 0x20 SWAP3 DUP4 ADD SWAP3 ADD PUSH2 0xA8E JUMP JUMPDEST POP SWAP7 PUSH1 0x20 DUP7 ADD CALLDATALOAD SWAP7 POP PUSH1 0x40 SWAP1 SWAP6 ADD CALLDATALOAD SWAP5 SWAP4 POP POP POP POP JUMP JUMPDEST PUSH1 0x0 DUP1 PUSH1 0x0 PUSH1 0x60 DUP5 DUP7 SUB SLT ISZERO PUSH2 0xCC1 JUMPI PUSH1 0x0 DUP1 REVERT JUMPDEST DUP4 CALLDATALOAD PUSH2 0xCCC DUP2 PUSH2 0x888 JUMP JUMPDEST SWAP3 POP PUSH1 0x20 DUP5 ADD CALLDATALOAD PUSH2 0xCDC DUP2 PUSH2 0x888 JUMP JUMPDEST SWAP3 SWAP6 SWAP3 SWAP5 POP POP POP PUSH1 0x40 SWAP2 SWAP1 SWAP2 ADD CALLDATALOAD SWAP1 JUMP JUMPDEST PUSH1 0x0 PUSH1 0x20 DUP3 DUP5 SUB SLT ISZERO PUSH2 0xCFF JUMPI PUSH1 0x0 DUP1 REVERT JUMPDEST DUP2 CALLDATALOAD PUSH2 0xD0A DUP2 PUSH2 0x888 JUMP JUMPDEST SWAP4 SWAP3 POP POP POP JUMP JUMPDEST PUSH1 0x0 JUMPDEST DUP4 DUP2 LT ISZERO PUSH2 0xD2C JUMPI DUP2 DUP2 ADD MLOAD DUP4 DUP3 ADD MSTORE PUSH1 0x20 ADD PUSH2 0xD14 JUMP JUMPDEST POP POP PUSH1 0x0 SWAP2 ADD MSTORE JUMP JUMPDEST PUSH1 0x0 DUP2 MLOAD DUP1 DUP5 MSTORE PUSH2 0xD4D DUP2 PUSH1 0x20 DUP7 ADD PUSH1 0x20 DUP7 ADD PUSH2 0xD11 JUMP JUMPDEST PUSH1 0x1F ADD PUSH1 0x1F NOT AND SWAP3 SWAP1 SWAP3 ADD PUSH1 0x20 ADD SWAP3 SWAP2 POP POP JUMP JUMPDEST PUSH1 0x0 PUSH1 0x60 DUP3 ADD PUSH1 0x60 DUP4 MSTORE DUP1 DUP7 MLOAD DUP1 DUP4 MSTORE PUSH1 0x80 DUP6 ADD SWAP2 POP PUSH1 0x80 DUP2 PUSH1 0x5 SHL DUP7 ADD ADD SWAP3 POP PUSH1 0x20 DUP1 DUP10 ADD PUSH1 0x0 JUMPDEST DUP4 DUP2 LT ISZERO PUSH2 0xE70 JUMPI PUSH1 0x7F NOT DUP9 DUP8 SUB DUP2 ADD DUP7 MSTORE DUP3 MLOAD DUP1 MLOAD PUSH1 0x1 PUSH1 0x1 PUSH1 0xA0 SHL SUB SWAP1 DUP2 AND DUP10 MSTORE DUP6 DUP3 ADD MLOAD DUP7 DUP11 ADD MSTORE PUSH1 0x40 SWAP2 DUP3 ADD MLOAD PUSH1 0x60 SWAP3 DUP11 ADD DUP4 SWAP1 MSTORE DUP1 MLOAD SWAP3 DUP11 ADD DUP4 SWAP1 MSTORE DUP7 ADD SWAP2 PUSH1 0x80 PUSH1 0x5 DUP3 SWAP1 SHL DUP12 ADD DUP2 ADD SWAP3 SWAP2 SWAP1 DUP12 ADD SWAP1 PUSH1 0x0 JUMPDEST DUP2 DUP2 LT ISZERO PUSH2 0xE57 JUMPI DUP7 DUP14 DUP7 SUB ADD DUP4 MSTORE DUP6 MLOAD DUP5 DUP2 MLOAD AND DUP7 MSTORE DUP11 DUP2 ADD MLOAD PUSH1 0xA0 DUP13 DUP9 ADD MSTORE PUSH2 0xE10 PUSH1 0xA0 DUP9 ADD DUP3 PUSH2 0xD35 JUMP JUMPDEST SWAP1 POP PUSH1 0x40 DUP3 ADD MLOAD ISZERO ISZERO PUSH1 0x40 DUP9 ADD MSTORE DUP6 PUSH1 0x60 DUP4 ADD MLOAD AND PUSH1 0x60 DUP9 ADD MSTORE PUSH1 0x80 DUP3 ADD MLOAD SWAP2 POP DUP7 DUP2 SUB PUSH1 0x80 DUP9 ADD MSTORE PUSH2 0xE43 DUP2 DUP4 PUSH2 0xD35 JUMP JUMPDEST SWAP8 DUP13 ADD SWAP8 SWAP7 POP POP POP SWAP2 DUP10 ADD SWAP2 PUSH1 0x1 ADD PUSH2 0xDE2 JUMP JUMPDEST POP SWAP3 SWAP11 POP POP POP SWAP7 DUP6 ADD SWAP7 POP POP POP SWAP1 DUP3 ADD SWAP1 PUSH1 0x1 ADD PUSH2 0xD8A JUMP JUMPDEST POP POP DUP6 ADD SWAP7 SWAP1 SWAP7 MSTORE POP PUSH1 0x40 SWAP1 SWAP3 ADD SWAP3 SWAP1 SWAP3 MSTORE SWAP4 SWAP3 POP POP POP JUMP JUMPDEST PUSH1 0x0 DUP3 MLOAD PUSH2 0xE9B DUP2 DUP5 PUSH1 0x20 DUP8 ADD PUSH2 0xD11 JUMP JUMPDEST SWAP2 SWAP1 SWAP2 ADD SWAP3 SWAP2 POP POP JUMP JUMPDEST PUSH1 0x0 PUSH1 0x40 DUP3 DUP5 SUB SLT ISZERO PUSH2 0xEB7 JUMPI PUSH1 0x0 DUP1 REVERT JUMPDEST PUSH1 0x40 MLOAD PUSH1 0x40 DUP2 ADD DUP2 DUP2 LT PUSH8 0xFFFFFFFFFFFFFFFF DUP3 GT OR ISZERO PUSH2 0xEDA JUMPI PUSH2 0xEDA PUSH2 0x8C9 JUMP JUMPDEST PUSH1 0x40 MSTORE DUP3 MLOAD PUSH2 0xEE8 DUP2 PUSH2 0x888 JUMP JUMPDEST DUP2 MSTORE PUSH1 0x20 SWAP3 DUP4 ADD MLOAD SWAP3 DUP2 ADD SWAP3 SWAP1 SWAP3 MSTORE POP SWAP2 SWAP1 POP JUMP JUMPDEST PUSH1 0x0 PUSH1 0x20 DUP3 DUP5 SUB SLT ISZERO PUSH2 0xF0F JUMPI PUSH1 0x0 DUP1 REVERT JUMPDEST POP MLOAD SWAP2 SWAP1 POP JUMP JUMPDEST PUSH1 0x0 PUSH1 0x20 DUP3 DUP5 SUB SLT ISZERO PUSH2 0xF28 JUMPI PUSH1 0x0 DUP1 REVERT JUMPDEST DUP2 MLOAD PUSH2 0xD0A DUP2 PUSH2 0xA00 JUMP INVALID LOG2 PUSH5 0x6970667358 0x22 SLT KECCAK256 0xB3 PUSH32 0xE29A2E1F7F070A134B2F4A9815AE274C97F08E7FC84207EF733A257852D66473 PUSH16 0x6C634300081800330000000000000000 "},"methodIdentifiers":{"disable()":"2f2770db","isDisabled()":"6c57f5a9","owner()":"8da5cb5b","rescueERC20(address,address,uint256)":"b2118a8d","rescueETH(address,uint256)":"099a04e5","swapSyncSwap((address,uint256,(address,bytes,bool,address,bytes)[])[],uint256,uint256)":"1088a10e","syncSwapContract()":"274c6d9d","transferOwnership(address)":"f2fde38b"}}}}}