{
  "_format": "hh-sol-artifact-1",
  "contractName": "MultiProtocolSwap",
  "sourceName": "contracts/Multiswap.sol",
  "abi": [
    {
      "anonymous": false,
      "inputs": [
        {
          "indexed": true,
          "internalType": "address",
          "name": "user",
          "type": "address"
        },
        {
          "indexed": false,
          "internalType": "uint256",
          "name": "amountOut",
          "type": "uint256"
        },
        {
          "indexed": false,
          "internalType": "uint256",
          "name": "timestamp",
          "type": "uint256"
        }
      ],
      "name": "SwapExecuted",
      "type": "event"
    },
    {
      "inputs": [
        {
          "components": [
            {
              "internalType": "address",
              "name": "tokenIn",
              "type": "address"
            },
            {
              "internalType": "uint256",
              "name": "amountIn",
              "type": "uint256"
            },
            {
              "components": [
                {
                  "internalType": "address",
                  "name": "pool",
                  "type": "address"
                },
                {
                  "internalType": "bytes",
                  "name": "data",
                  "type": "bytes"
                },
                {
                  "internalType": "uint256",
                  "name": "amountIn",
                  "type": "uint256"
                },
                {
                  "internalType": "uint256",
                  "name": "amountOutMin",
                  "type": "uint256"
                },
                {
                  "internalType": "uint256",
                  "name": "deadline",
                  "type": "uint256"
                }
              ],
              "internalType": "struct MultiProtocolSwap.SwapStep[]",
              "name": "steps",
              "type": "tuple[]"
            }
          ],
          "internalType": "struct MultiProtocolSwap.SwapPath[]",
          "name": "paths",
          "type": "tuple[]"
        },
        {
          "internalType": "uint256",
          "name": "deadline",
          "type": "uint256"
        }
      ],
      "name": "multiswap",
      "outputs": [],
      "stateMutability": "nonpayable",
      "type": "function"
    }
  ],
  "bytecode": "0x608060405234801561001057600080fd5b506107b5806100206000396000f3fe608060405234801561001057600080fd5b506004361061002b5760003560e01c806336cee19014610030575b600080fd5b61004361003e366004610481565b610045565b005b80428110156100915760405162461bcd60e51b8152602060048201526013602482015272151c985b9cd858dd1a5bdb88195e1c1a5c9959606a1b60448201526064015b60405180910390fd5b60005b838110156103665760008585838181106100b0576100b06104fc565b90506020028101906100c29190610512565b6100d090602081019061054e565b905060008686848181106100e6576100e66104fc565b90506020028101906100f89190610512565b60200135905060005b878785818110610113576101136104fc565b90506020028101906101259190610512565b610133906040810190610570565b9050811015610321576000888886818110610150576101506104fc565b90506020028101906101629190610512565b610170906040810190610570565b83818110610180576101806104fc565b905060200281019061019291906105c1565b61019b90610647565b80516020820151606083015192935090916101b787848861036d565b600080846001600160a01b0316846040516101d29190610715565b6000604051808303816000865af19150503d806000811461020f576040519150601f19603f3d011682016040523d82523d6000602084013e610214565b606091505b5091509150816102545760405162461bcd60e51b815260206004820152600b60248201526a14ddd85c0819985a5b195960aa1b6044820152606401610088565b60008180602001905181019061026a9190610744565b9050838110156102bc5760405162461bcd60e51b815260206004820152601a60248201527f496e73756666696369656e74206f757470757420616d6f756e740000000000006044820152606401610088565b6040516bffffffffffffffffffffffff1960608c811b82166020840152603483018c905288901b1660548201526068810182905260880160408051601f1981840301815291905280516020909101209950975050600190950194506101019350505050565b506040805182815242602082015233917f2d043ce009ff53fd444b0f4f5ff4c3f4ee293265203f77f156eeb33b595dfc4f910160405180910390a25050600101610094565b5050505050565b604080516001600160a01b038481166024830152604480830185905283518084039091018152606490920183526020820180516001600160e01b031663a9059cbb60e01b17905291516000928392908716916103c99190610715565b6000604051808303816000865af19150503d8060008114610406576040519150601f19603f3d011682016040523d82523d6000602084013e61040b565b606091505b5091509150818015610435575080511580610435575080806020019051810190610435919061075d565b6103665760405162461bcd60e51b815260206004820152601f60248201527f5472616e7366657248656c7065723a205452414e534645525f4641494c4544006044820152606401610088565b60008060006040848603121561049657600080fd5b833567ffffffffffffffff808211156104ae57600080fd5b818601915086601f8301126104c257600080fd5b8135818111156104d157600080fd5b8760208260051b85010111156104e657600080fd5b6020928301989097509590910135949350505050565b634e487b7160e01b600052603260045260246000fd5b60008235605e1983360301811261052857600080fd5b9190910192915050565b80356001600160a01b038116811461054957600080fd5b919050565b60006020828403121561056057600080fd5b61056982610532565b9392505050565b6000808335601e1984360301811261058757600080fd5b83018035915067ffffffffffffffff8211156105a257600080fd5b6020019150600581901b36038213156105ba57600080fd5b9250929050565b60008235609e1983360301811261052857600080fd5b634e487b7160e01b600052604160045260246000fd5b60405160a0810167ffffffffffffffff81118282101715610610576106106105d7565b60405290565b604051601f8201601f1916810167ffffffffffffffff8111828210171561063f5761063f6105d7565b604052919050565b600060a0823603121561065957600080fd5b6106616105ed565b61066a83610532565b815260208084013567ffffffffffffffff8082111561068857600080fd5b9085019036601f83011261069b57600080fd5b8135818111156106ad576106ad6105d7565b6106bf601f8201601f19168501610616565b915080825236848285010111156106d557600080fd5b8084840185840137600084828401015250808385015250505060408301356040820152606083013560608201526080830135608082015280915050919050565b6000825160005b81811015610736576020818601810151858301520161071c565b506000920191825250919050565b60006020828403121561075657600080fd5b5051919050565b60006020828403121561076f57600080fd5b8151801515811461056957600080fdfea2646970667358221220fe73055abbfe2bf9a521a9016f0a66df83f03d31ea335e4a9dd31cc5055b9b9664736f6c63430008180033",
  "linkReferences": {},
  "deployedLinkReferences": {}
}